:02000002D0002C
:1040000000400D00F8580D00000006000D000501ED
:0840100004014E040000000051
:1040180010550D0009480A49884208B505D0094AD3
:10402800824202D0121A01F021FA0748074A0021F9
:10403800121A01F026FA014808BD00BF04E3032064
:1040480060580D0074E3032074E30320F0E70320B5
:1040580070B500F08FFC074C074BE41AA408002544
:104068001E46A54204D056F8253098470135F8E792
:1040780070BD00BF60580D0028580D0000F038B81A
:1040880008B500F05FF8BDE8084000F041BC00F05A
:1040980049BA00F047BA0078B0FA80F04009704792
:1040A800012303707047000038B50E49054600F03B
:1040B8002FFB044630B10C4B0121188801F007F89A
:1040C800012038BD0949284600F022FB30B1064BD3
:1040D8002146188800F0FBFF204638BD4FF0FF301E
:1040E80038BD00BF24550D0008E3032027550D00F7
:1040F80010B50E4C00F040FD4FF4165100F030FDA5
:104108002088012100F0D2FF2088012100F0DFFF84
:10411800022207490748002300F0E4F9064A074944
:104128000748BDE8104000F055BC00BF08E3032075
:1041380078E303202B550D0037550D00B1400D00D5
:10414800B1490D0010B5094B094C188800F0D8FF8B
:10415800206000F011FD2368064A012100F04EFBA3
:104168006420BDE8104000F095BB00BF04E30320C5
:1041780078E303203B550D0000F010B808B5024B5A
:104188001B689B68019308BD6802030008B5024BD1
:104198001B68DB68019308BD6802030008B5024B81
:1041A8001B681B68019308BD2C02030008B5024B6D
:1041B8001B685B68019308BD2C02030008B5024B1D
:1041C8001B689B68019308BD2C02030008B5024BCD
:1041D8001B68DB68019308BD2C02030008B5024B7D
:1041E8001B681B69019308BD2C02030008B5024B2C
:1041F8001B681B6B019308BD2C02030008B5024B1A
:104208001B68DB69019308BD3002030008B5024B47
:104218001B681B6A019308BD3002030008B5024BF6
:104228001B685B68019308BD1802030008B5024BC0
:104238001B685B69019308BD1802030008B5024BAF
:104248001B689B68019308BD4802030008B5024B30
:104258001B681B69019308BD4802030008B5024B9F
:104268001B685B69019308BD4802030008B5024B4F
:104278001B681B6B019308BD4802030008B5024B7D
:104288001B685B6C019308BD4802030008B5024B2C
:104298001B685B69019308BD6402030008B5024B03
:1042A8001B681B68019308BD3C02030008B5024B5C
:1042B8001B68DB68019308BD3C02030008B5024B8C
:1042C8001B681B69019308BD3C02030008B5024B3B
:1042D8001B685B69019308BD3C02030008B5024BEB
:1042E8001B689B69019308BD3C02030008B5024B9B
:1042F8001B68DB69019308BD3C02030008B5024B4B
:104308001B681B6A019308BD3C02030008B5024BF9
:104318001B689B6A019308BD3C02030008B5024B69
:104328001B681B6A019308BD2802030008B5024BED
:104338001B685B6A019308BD2802030008B5024B9D
:104348001B689B6A019308BD2802030008B5024B4D
:104358001B68DB6A019308BD2802030008B5024BFD
:104368001B681B6B019308BD2802030008B5024BAC
:104378001B685B6B019308BD2802030008B5024B5C
:104388001B681B6C019308BD2802030008B5024B8B
:104398001B681B68019308BD4C02030008B5024B5B
:1043A8001B685B68019308BD4C02030008B5024B0B
:1043B8001B681B69019308BD4C02030008B5024B3A
:1043C8001B685B69019308BD4C02030008B5024BEA
:1043D8001B689B69019308BD4C02030008B5024B9A
:1043E8001B68DB69019308BD4C02030008B5024B4A
:1043F8001B681B6A019308BD4C02030008B5024BF9
:104408001B685B68019308BD2002030008B5024BD6
:104418001B685B69019308BD2002030008B5034BC4
:104428001B68D3F88830019308BD00002002030000
:1044380008B5034B1B68D3F89430019308BD0000FE
:104448002002030008B5024B1B685B68019308BD96
:104458004002030008B5024B1B689B68019308BD26
:104468004002030008B5024B1B68DB68019308BDD6
:104478004002030008B5024B1B681B69019308BD85
:104488004002030008B5024B1B685B69019308BD35
:104498004002030008B5024B1B689B69019308BDE5
:1044A8004002030008B5024B1B68DB69019308BD95
:1044B8004002030008B5024B1B681B6A019308BD44
:1044C8004002030008B5024B1B681B6B019308BD33
:1044D8004002030008B5024B1B685B6B019308BDE3
:1044E8004002030008B5024B1B681B68019308BD16
:1044F8004402030008B5024B1B685B68019308BDC2
:104508004402030008B5024B1B68DB6B019308BD2E
:104518004402030008B5024B1B681B68019308BDE1
:104528001C02030008B5024B1B685B68019308BDB9
:104538001C02030008B5024B1B689B68019308BD69
:104548001C02030008B5024B1B685B6A019308BD97
:104558001C020300002211464068FFF7ABBF00228F
:1045680011464068FFF7B6BF00224068FFF7AABFB0
:10457800002281F001014068FFF794BF00231A462A
:1045880019464068FFF786BF00231A461946406857
:10459800FFF778BF002211464068FFF76BBF002283
:1045A80011464068FFF756BF002202214068FFF716
:1045B80059BF00231A464068FFF744BF024B032245
:1045C8005A60024A1A6070477CE3032048550D0080
:1045D800704710B50446FFF75AFD204610BD00008D
:1045E80070B5084B0360044600250E4640F80C5F82
:1045F800FFF73CFE30462671FFF700FEA560204617
:1046080070BD00BF7C550D000079FFF7FFBD0000AD
:10461800044B00204FF6FF72187058809A80FFF7FD
:10462800EDBE00BF84E3032010B504460068FFF721
:1046380079FF204610BD10B50446006808B1FFF7A1
:1046480071FF00232360A360636010BD38B5044682
:104658000D4600680131FFF76DFF10B184E82100B5
:10466800012038BD10B50368044613B143688B4276
:1046780007D22046FFF7EAFF20B1A3680BB92268EA
:104688001370012010BD70B50E461146044615463C
:10469800FFF7E8FF18B92046FFF7CDFF09E02A46E3
:1046A8003146A560206800F0E1FE2268A368002179
:1046B800D154204670BD38B50023044603604360DA
:1046C800836003730D4639B1084600F015FF29468B
:1046D80002462046FFF7D7FF204638BD884210B56E
:1046E8000B46044607D0096819B19A68FFF7CBFF53
:1046F80001E0FFF7A0FF204610BD10B500230446D7
:104708000360436083600373FFF7E8FF204610BD32
:1047180008B582680B4612B919B9012008BD11B94C
:104728000368187802E0006800F0DCFEB0FA80F058
:10473800400908BDF8B506460D468F180024BD424D
:104748000CD0336815F8011B9B6830469847002841
:1047580001DB0444F3E7002C08BF04462046F8BDFB
:1047680070B505460C46084649B100F0C5FE2B68F1
:10477800024621462846DB68BDE87040184770BDF0
:1047880003689B68184738B50D210546FFF7F8FF01
:104798000A2104462846FFF7F3FF204438BD30B508
:1047A8008BB00B4600218DF82410012A98BF0A22ED
:1047B8000DF12304B3FBF2F505FB123303F0FF03FD
:1047C800092B94BF30333733DBB2214604F8013963
:1047D8002B46002DEED1FFF7C3FF0BB030BD10B450
:1047E8002AB903685DF8044B9B68C9B21847D2B26E
:1047F8005DF8044BFFF7D3BFFFF7F1BF0CB42DE909
:10480800F04387B000AF07F13804054654F8049B1D
:104818003C600E4623464A461421381DFFF792FE97
:10482800132805D8391D2846FFF79AFF044613E0D8
:1048380000F1080323F00703E846ADEB030D411C24
:1048480023464A4668463C60FFF77CFE6946284690
:10485800FFF786FF0446C5461EB12846FFF793FFBB
:10486800044420461C37BD46BDE8F04302B07047FB
:10487800014B024A1A6070478CE3032037560D003B
:10488800024B1A68024B1A60704700BF0CE3032002
:1048980090E303200021FFF7B9BD10B583680446F3
:1048A80013B1032201469847204610BD10B50446AF
:1048B800FFF7F3FF204610BD0348044A04490023CC
:1048C800836000F077BC00BF94E3032074E3032007
:1048D800B5480D0008B50C4B33B100F04DF903682D
:1048E8001B699847002809DC084B63B100F002FAFD
:1048F80003681B699847002803DC08BDAFF30080F4
:10490800F2E7AFF3008008BD0000000000000000DF
:1049180008B5FFF7DFFFFFF789FC014B186008BDFA
:1049280034E7032007B5002300931A466FF0770198
:10493800FFF77EFD03B05DF804FB000007B5438870
:104948000A2B08D0502B09D1094B1B683BB103B087
:104958005DF804EB1847FFF7E5FF06E00023009336
:104968001A466FF07701FFF763FD03B05DF804FBAB
:10497800A4E3032010B5FFF751FC044600F08AFDBC
:10498800074B13B12046AFF3008000210448FFF71E
:10499800B9FD00210348BDE81040FFF73FBD00BF47
:1049A8000000000045490D0010B588B0044668466F
:1049B800FFF781FE694604A8FFF79FFE04A8A047F9
:1049C800044604A8FFF730FE6846FFF72DFE204690
:1049D80008B010BDF0B5102485B007460E46154640
:1049E80000212246684600F04CFD00226946104628
:1049F800ADF80040029703960195FFF77BFD05B0DF
:104A0800F0BD704710B50446FFF741FB204610BDC6
:104A1800F0B5037D062B8DB00E4600F104074FF06C
:104A2800000402D000F1080518E00CAD394605F87D
:104A3800304D2F232A460A20FFF728FC284600F08D
:104A48005BFD33680246DB682946304698470FE02D
:104A580024B12E213046FFF793FE044415F8011DBA
:104A68000A223046FFF7C8FEBD420444F0D1204672
:104A78000DB0F0BD10B5054B0446112240F8043BBB
:104A8800002100F0FEFC204610BD00BF94560D002A
:104A98000346074A10B543F8042B01F1100251F8F8
:104AA800044B43F8044B9142F9D10A781A7010BDAF
:104AB80094560D0010B59DF8084044EA032343EAD4
:104AC800024242EA016104234160037510BD37B513
:104AD8000D788B784A78C97800912946FFF7EAFF64
:104AE80003B030BD4174704770470021007CFFF768
:104AF8006DBC0121007CFFF769BC007CFFF75EBC40
:104B0800007CFFF753BC38B50446007C0D46FFF720
:104B180055FC002801DC607C20B12946207CFFF789
:104B28005DFC012038BD007CFFF760BC10B5044671
:104B3800FFF7ADFA204610BD10B5044600236360A8
:104B48004FF47A73A360054B236001230846217450
:104B580063741146FFF71AFC204610BDA8560D00D5
:104B68000022007CFFF71ABC10B51422044600216D
:104B780000F087FC204610BD30B50E4D87B001A867
:104B8800FFF7F2FF296811F0010410D12846FFF75A
:104B980082FA60B101AA21460748FFF7CDFF2846EF
:104BA800FFF77EFA054A0649034800F003FB02486E
:104BB80007B030BDA8E30320ACE3032074E303206F
:104BC800F14A0D00002211464068FFF753BC00224D
:104BD80011464068FFF76EBC002211464068FFF797
:104BE80079BC00224068FFF76DBC002281F001010A
:104BF8004068FFF757BC00231A4619464068FFF77C
:104C080049BC00231A4619464068FFF73BBC0022FE
:104C180011464068FFF71EBC002202214068FFF7DA
:104C280021BC00231A464068FFF70CBC38B50C4C71
:104C380028252A460021204600F023FC4FF0FF33A8
:104C480063602580074C0423204663602C25064BAF
:104C580040F8083B2A46002100F013FC258138BDA6
:104C6800F4E30320C0E30320D8560D0070474174D5
:104C78007047007CFFF74ABB007CFFF71FBB007C36
:104C8800FFF72CBB007CFFF721BB007CFFF72EBB96
:104C980010B50446FFF7FBF9204610BD70B5457CFA
:104CA80004460E4625B9007CFFF730FB002805DDD9
:104CB8003146207CBDE87040FFF7F8BA284670BD41
:104CC80010B5044608461146002262604FF47A7215
:104CD800A260054A22600122207462741A46FFF716
:104CE800DDFA204610BD00BF0C570D00007CFFF711
:104CF80005BB000038B50C4D296811F0010411D12D
:104D08002846FFF7C8F968B1084A094B09482146FF
:104D1800FFF7D6FF2846FFF7C3F9074A07490548B2
:104D280000F048FA034838BDB4E40320B8E403208F
:104D380030E403201CE4032074E30320754C0D00C9
:104D48007047F8B5064615460C468F18BC4206D083
:104D5800336814F8011B9B6830469847F6E72846E5
:104D6800F8BD0022007CFFF7D9BA0021007CFFF7CC
:104D7800DDBA0021007CFFF7E1BA0021007CFFF7D3
:104D8800E5BA0021007CFFF7E9BA10B50446FFF741
:104D98007EF9204610BD000010B504464FF47A7322
:104DA8000846A3600021044B207461602360FFF76C
:104DB800E5FA204610BD00BF3C570D000021007CDD
:104DC800FFF7D4BA002211464068FFF773BB0022F0
:104DD80011464068FFF77EBB00224068FFF772BBB0
:104DE800002281F001014068FFF75CBB00231A46EE
:104DF80019464068FFF74EBB00231A46194640681B
:104E0800FFF740BB002211464068FFF733BB002282
:104E180011464068FFF71EBB002202214068FFF7D9
:104E280021BB00231A464068FFF70CBB38B505467E
:104E380078B1046844B1A3681BB103222146204617
:104E480098472046FFF723F92846BDE83840FFF782
:104E58001EB938BD10B103685B681847704710B5B4
:104E680003680446BBB15868FFF7E8F978B92368C6
:104E78005A7C12B95868FFF7E9F923685868FFF7B0
:104E8800EDF920680023236028B1FFF7CFFF2068E1
:104E980008B1FFF7CBFF204610BD000038B50B4B1B
:104EA80003600446D0F8CC0108B1FFF7F2F8D4F853
:104EB800C4512DB12846FFF7D2FF2846FFF7E7F87F
:104EC800A06808B1FFF7C6FF204638BD64570D003B
:104ED80038B50D4C0D4B23600025022304F5E47012
:104EE8006360A560C4F8C451C4F8C851FFF7C6F997
:104EF800074BC4F8CC5123602046064A0649BDE852
:104F0800384000F057B900BF3CE5032098570D0022
:104F180064570D0074E30320A54E0D0000231A46C4
:104F28004068FFF78FBA002202214068FFF79ABA5B
:104F3800002211464068FFF78DBA002211464068EA
:104F4800FFF798BA00231A4619464068FFF79ABA3D
:104F580000231A4619464068FFF79CBA002281F0E0
:104F680001014068FFF79EBA00224068FFF7AABA1D
:104F7800002211464068FFF7ADBA0022114640688A
:104F8800FFF798BA2DE9F043002495B016460D4670
:104F98000746FFF76FFD214620220CA8009400F079
:104FA80070FA40230C9321466B460CAA3046FFF753
:104FB800EDF80446002844D1024601216868FFF74D
:104FC80059FA0221804622466868FFF753FA009E84
:104FD80081462146002E34D0002932D17368022B35
:104FE80002D00A2B09D02AE0B8F1000F27D0716946
:104FF80038460431FFF76BFD20E0B9F1000F1ED0F1
:105008007469112201A800F03CFA06238DF81430C7
:1050180001AD04F108031834186859682A4603C218
:105028000833A3421546F7D101A906A807ADFFF733
:105038002FFD0FCD3C1D0FC42B6823700121F6698D
:10504800C8E70098FFF79AF8384615B0BDE8F0832E
:10505800024B034A1A6000225A6070470CE703208B
:1050680098570D0010B504460F48FFF7CDFA28B140
:10507800A4F10B03022B01D8002010BD00F07AF830
:10508800FFF79CFE08B1012CF6D9FFF733FEFFF7B6
:105098002DFE18B1A4F10903012BEDD9232C8CBFE7
:1050A8000020012010BD00BF14E70320232838B5D5
:1050B80004460D460AD8FF2908D0FFF7D3FF28B1C8
:1050C80029462046BDE83840FFF778B838BD38B5DE
:1050D80004460D46FFF77AF8FF2810D0062804D8B2
:1050E8004D2323FA00F0C30709D42046FFF7BAFF7F
:1050F80028B129462046BDE83840FFF76FB838BDCB
:105108000D2810B504469CBF0E34A4B22046FFF704
:10511800A9FF50B103212046FFF748F8032804D11E
:105128002046BDE81040FFF761B8002010BD000020
:1051380070B50C4C0C4E0D4D00212046FFF750FA6F
:1051480020460B4C3246294600F034F8012120460F
:10515800FFF746FA324629462046BDE8704000F07F
:1051680029B800BF14E7032074E30320D9450D00D4
:1051780024E7032038B50B4D296811F001040FD13D
:105188002846FEF788FF58B121460748FFF704FE76
:105198002846FEF785FF054A0549034800F00AF846
:1051A800014838BD38E703203CE7032074E30320B7
:1051B800494D0D000B460146184600F049B900005C
:1051C800184B1A68D1075CBF01221A60164B1A687F
:1051D800D2075CBF01221A60144B1A68D0075CBF63
:1051E80001221A60124B1A68D1075CBF01221A60AB
:1051F800104B1A68D2075CBF01221A600E4B1A685E
:10520800D0075CBF01221A600C4B1A68D1075CBF3B
:1052180001221A600A4B1A68D2075CBF01221A6081
:10522800704700BF6CE7032068E7032064E70320AA
:1052380060E703205CE7032058E7032054E70320D6
:1052480050E70320244B1A68D0075CBF01221A607C
:10525800224B1A68D1075CBF01221A60204B1A68DA
:10526800D2075CBF01221A601E4B1A68D0075CBFC8
:1052780001221A601C4B1A68D1075CBF01221A6010
:105288001A4B1A68D2075CBF01221A60184B1A68B9
:10529800D0075CBF01221A60164B1A68D1075CBFA1
:1052A80001221A60144B1A68D2075CBF01221A60E7
:1052B800124B1A68D0075CBF01221A60104B1A689B
:1052C800D1075CBF01221A600E4B1A68D2075CBF77
:1052D80001221A60704700BF9CE7032098E703206B
:1052E80094E7032090E703208CE7032088E7032056
:1052F80084E7032080E703207CE7032078E7032086
:1053080074E7032070E70320244B1A68D0075CBFBA
:1053180001221A60224B1A68D1075CBF01221A6069
:10532800204B1A68D2075CBF01221A601E4B1A680C
:10533800D0075CBF01221A601C4B1A68D1075CBFFA
:1053480001221A601A4B1A68D2075CBF01221A6040
:10535800184B1A68D0075CBF01221A60164B1A68EE
:10536800D1075CBF01221A60144B1A68D2075CBFD0
:1053780001221A60124B1A68D0075CBF01221A601A
:10538800104B1A68D1075CBF01221A600E4B1A68CD
:10539800D2075CBF01221A60704700BFCCE7032028
:1053A800C8E70320C4E70320C0E70320BCE70320C5
:1053B800B8E70320B4E70320B0E70320ACE70320F5
:1053C800A8E70320A4E70320A0E70320184B1A68E6
:1053D800D1075CBF01221A60164B1A68D2075CBF5E
:1053E80001221A60144B1A68D0075CBF01221A60A8
:1053F800124B1A68D1075CBF01221A60104B1A6859
:10540800D2075CBF01221A600E4B1A68D0075CBF36
:1054180001221A600C4B1A68D1075CBF01221A607E
:105428000A4B1A68D2075CBF01221A60704700BF96
:10543800ECE70320E8E70320E4E70320E0E70320A4
:10544800DCE70320D8E70320D4E70320D0E70320D4
:1054580010B5054C13462CB10A4601460220AFF39D
:10546800008010BD204610BD0000000010B5431E8E
:105478000A44914204D011F8014B03F8014FF8E7B0
:1054880010BD02440346934202D003F8011BFAE719
:105498007047000038B5124B1C68A36B0546D3B99A
:1054A8001820FFF737F843F20E33A06303804AF65B
:1054B800CD33438041F2342383804EF26D63C38041
:1054C8004DF6EC630381052343810B23838101227D
:1054D8000023C0E90423A36B00221D615A6138BD73
:1054E80070E3032010F8012B11F8013B012A28BFB3
:1054F8009A42F7D0D01A7047034613F8012B002AB6
:10550800FBD1181A013870471D400D0059400D0095
:1055180085400D0089400D00000000006F6E006F8F
:10552800666600616E616C6F6776616C7565006CAC
:105538006564002564000000000000000000000011
:10554800BB450D00B1450D00A7450D009D450D005B
:1055580091450D0085450D0079450D0071450D00FB
:1055680067450D005D450D008D4F0D0000000000E2
:1055780000000000D9450D00DB450D006C6E00668B
:105588006E00636F64650064657461696C000D0A80
:1055980000253031307520005D20002C200028299E
:1055A8003A2000205B00636F6465203D2000256978
:1055B8000064657461696C73203D200062617564E4
:1055C8000053657269616C0053657269616C3100E2
:1055D8007479706500706172616D00636D64006953
:1055E8006400686E64007374726D0066696C7400A0
:1055F8006C766C0061646448616E646C65720072FC
:10560800656D6F766548616E646C657200656E7570
:105618006D48616E646C657273004A534F4E5374E3
:105628007265616D4C6F6748616E646C657200618C
:105638007070006E6F6E6500747261636500696EEC
:10564800666F007761726E006572726F72007061CA
:105658006E696300616C6C005A00252B3033643A24
:10566800253032750025592D256D2D256454254882
:105678003A254D3A2553257A0061736374696D653F
:10568800000000000000000000000000194A0D00A2
:105698000B4A0D000D4A0D0000000000000000003C
:1056A800F14A0D00354B0D000F4B0D003D470D0025
:1056B800094B0D00F34A0D00FB4A0D002F4B0D005E
:1056C800034B0D00ED4A0D00000000000000000033
:1056D8002B4C0D00214C0D00174C0D00CD4B0D002F
:1056E8000B4C0D00FF4B0D00F34B0D00EB4B0D0069
:1056F800E14B0D00D74B0D008D4F0D000000000051
:1057080000000000754C0D00994C0D00A54C0D00D3
:105718003D470D00814C0D008D4C0D00874C0D0050
:10572800934C0D00774C0D007B4C0D0000000000E1
:1057380000000000494D0D00934D0D006B4D0D000C
:105748004B4D0D00734D0D007B4D0D00834D0D002D
:105758008B4D0D0000000000000000002B4E0D00D6
:10576800214E0D00174E0D000D4E0D00014E0D007F
:10577800F54D0D00E94D0D00E14D0D00D74D0D0023
:10578800CD4D0D008D4F0D00000000000000000001
:10579800254F0D002F4F0D00394F0D00434F0D00C1
:1057A8004D4F0D00594F0D00654F0D00714F0D0005
:1057B800794F0D00834F0D008D4F0D000000000044
:1057C80000000000000000000000000000000000D1
:1057D80000000000000000000000000000000000C1
:1057E80000000000000000000000000000000000B1
:1057F80000000000000000000000000000000000A1
:105808000000000000000000000000000000000090
:10581800000000000000000000000000430000003D
:1058280081410D00C5450D0019460D0079480D0050
:1058380089480D00C1480D00354C0D00D94E0D00AA
:1058480059500D0039510D00C9510D004D520D0030
:0858580011530D00D5530D00A2
:10586000130000000600000081560D00000000003B
:10587000C4570D00E4570D0004580D00000000004F
:1058800000000000000000000000000024580D008F
:105890000000000000000000000000000000000008
:1058A00000000000000000000000000000000000F8
:1058B00000000000000000000000000000000000E8
:1058C00000000000000000000000000010E30320C2
:1058D000FFFFFFFF00000102030405060708090A95
:1058E0000B0C0D0E0F101112131415161718191A90
:0858F0001B1C1D1E1F202800D7
:0458F8007856341298
:04000003D0004018D1
:00000001FF
