:02000002D0002C
:1040000000400D00A8570D00000006000D0005013E
:0840100004014E040000000051
:10401800C4530D0009480A49884208B505D0094A21
:10402800824202D0121A01F07BF90748074A0021A0
:10403800121A01F080F9014808BD00BF08E3032007
:1040480010570D0078E3032078E30320F0E70320FE
:1040580070B500F005FC074C074BE41AA4080025CE
:104068001E46A54204D056F8253098470135F8E792
:1040780070BD00BF04570D00CC560D0000F044B8C9
:1040880008B500F065F8BDE8084000F0B7BB00F0DF
:104098000FBA00F00DBA0078B0FA80F04009704706
:1040A800012303707047000038B51349054600F036
:1040B800EDFA044658B1114B0121188800F079FF38
:1040C8000F4B0121188800F074FF012038BD0D49FD
:1040D800284600F0DBFA58B1084B2146188800F052
:1040E80068FF074B2146188800F063FF204638BD5B
:1040F8004FF0FF3038BD00BFD8530D0008E3032050
:104108000CE30320DB530D0038B50C4D0C4C28880C
:10411800012100F03DFF2088012100F039FF094A04
:1041280009490A4800F0CCFB2888002100F041FF2B
:1041380020880021BDE8384000F03BBF08E3032099
:104148000CE30320DF530D00B1400D009D480D0026
:10415800704700F011B8000008B5024B1B689B6857
:10416800019308BD6802030008B5024B1B68DB68B1
:10417800019308BD6802030008B5024B1B681B6861
:10418800019308BD2C02030008B5024B1B689B680D
:10419800019308BD2C02030008B5024B1B68DB68BD
:1041A800019308BD2C02030008B5024B1B681B696C
:1041B800019308BD2C02030008B5024B1B68DB699C
:1041C800019308BD3002030008B5024B1B681B6A47
:1041D800019308BD3002030008B5024B1B685B68F9
:1041E800019308BD1802030008B5024B1B685B6900
:1041F800019308BD1802030008B5024B1B689B68B1
:10420800019308BD4802030008B5024B1B681B69EF
:10421800019308BD4802030008B5024B1B685B699F
:10422800019308BD4802030008B5024B1B681B6BCD
:10423800019308BD4802030008B5024B1B685B6C7C
:10424800019308BD4802030008B5024B1B685B696F
:10425800019308BD6402030008B5024B1B681B6884
:10426800019308BD3C02030008B5024B1B68DB68DC
:10427800019308BD3C02030008B5024B1B681B698B
:10428800019308BD3C02030008B5024B1B685B693B
:10429800019308BD3C02030008B5024B1B689B69EB
:1042A800019308BD3C02030008B5024B1B68DB699B
:1042B800019308BD3C02030008B5024B1B681B6A4A
:1042C800019308BD3C02030008B5024B1B689B6ABA
:1042D800019308BD3C02030008B5024B1B681B6A2A
:1042E800019308BD2802030008B5024B1B685B6AEE
:1042F800019308BD2802030008B5024B1B689B6A9E
:10430800019308BD2802030008B5024B1B68DB6A4D
:10431800019308BD2802030008B5024B1B681B6BFC
:10432800019308BD2802030008B5024B1B685B6BAC
:10433800019308BD2802030008B5024B1B681B6CDB
:10434800019308BD2802030008B5024B1B681B68CF
:10435800019308BD4C02030008B5024B1B681B699A
:10436800019308BD4C02030008B5024B1B685B694A
:10437800019308BD4C02030008B5024B1B689B69FA
:10438800019308BD4C02030008B5024B1B68DB69AA
:10439800019308BD4C02030008B5024B1B681B6A59
:1043A800019308BD4C02030008B5024B1B685B680B
:1043B800019308BD2002030008B5034B1B68D3F81E
:1043C8008830019308BD00002002030008B5034BA4
:1043D8001B68D3F89430019308BD00002002030045
:1043E80008B5024B1B685B68019308BD40020300D7
:1043F80008B5024B1B689B68019308BD4002030087
:1044080008B5024B1B68DB68019308BD4002030036
:1044180008B5024B1B681B69019308BD40020300E5
:1044280008B5024B1B685B69019308BD4002030095
:1044380008B5024B1B689B69019308BD4002030045
:1044480008B5024B1B68DB69019308BD40020300F5
:1044580008B5024B1B681B6A019308BD40020300A4
:1044680008B5024B1B681B6B019308BD4002030093
:1044780008B5024B1B685B6B019308BD4002030043
:1044880008B5024B1B685B68019308BD4402030032
:1044980008B5024B1B68DB6B019308BD440203009F
:1044A80008B5024B1B681B68019308BD1C0203007A
:1044B80008B5024B1B685B68019308BD1C0203002A
:1044C80008B5024B1B689B68019308BD1C020300DA
:1044D800002211464068FFF7BBBF00221146406822
:1044E800FFF7C6BF00224068FFF7BABF002281F07D
:1044F80001014068FFF7A4BF00231A461946406827
:10450800FFF796BF00231A4619464068FFF788BF91
:10451800002211464068FFF77BBF00221146406821
:10452800FFF766BF002202214068FFF769BF00233A
:104538001A464068FFF754BF024B03225A60024AEA
:104548001A6070477CE30320EC530D00704710B5E8
:104558000446FFF79CFD204610BD000070B5084BCF
:104568000360044600250E4640F80C5FFFF75CFE2A
:1045780030462671FFF720FEA560204670BD00BFBB
:1045880020540D000079FFF71FBE0000044B0020E7
:104598004FF6FF72187058809A80FFF705BF00BF6A
:1045A80084E3032010B504460068FFF781FF204626
:1045B80010BD10B50446006808B1FFF779FF002365
:1045C8002360A360636010BD38B504460D460068DB
:1045D8000131FFF775FF10B184E82100012038BDD3
:1045E80010B50368044613B143688B4207D22046CE
:1045F800FFF7EAFF20B1A3680BB922681370012006
:1046080010BD70B50E46114604461546FFF7E8FF83
:1046180018B92046FFF7CDFF09E02A463146A560C4
:10462800206800F07DFE2268A3680021D15420464E
:1046380070BD38B50023044603604360836003738C
:104648000D4639B1084600F0B1FE2946024620461B
:10465800FFF7D7FF204638BD884210B50B46044601
:1046680007D0096819B19A68FFF7CBFF01E0FFF797
:10467800A0FF204610BD10B5002304460360436028
:1046880083600373FFF7E8FF204610BD08B5826812
:104698000B4612B919B9012008BD11B90368187879
:1046A80002E0006800F078FEB0FA80F0400908BD2A
:1046B800F8B506460D468F180024BD420CD0336865
:1046C80015F8011B9B6830469847002801DB044415
:1046D800F3E7002C08BF04462046F8BD70B5054630
:1046E8000C46084649B100F061FE2B680246214697
:1046F8002846DB68BDE87040184770BD03689B68B2
:10470800184730B58BB00B4600218DF82410012ACC
:1047180098BF0A220DF12304B3FBF2F505FB12330F
:1047280003F0FF03092B94BF30333733DBB2214644
:1047380004F801392B46002DEED1FFF7CFFF0BB05F
:1047480030BD10B42AB903685DF8044B9B68C9B240
:104758001847D2B25DF8044BFFF7D3BFFFF7F1BF9C
:10476800014B024A1A6070478CE30320DE540D00A7
:10477800024B1A68024B1A60704700BF10E303200F
:1047880090E3032010B58368044613B10322014661
:104798009847204610BD10B50446FFF7F3FF2046A2
:1047A80010BD00000348044A04490023836000F058
:1047B8005BBC00BF94E3032078E303209F470D0010
:1047C80008B50C4B33B100F049F903681B699847E9
:1047D800002809DC084B63B100F0FEF903681B6987
:1047E8009847002803DC08BDAFF30080F2E7AFF379
:1047F800008008BD000000000000000008B5FFF7B9
:10480800DFFFFFF7F1FC014B186008BD34E7032018
:1048180007B5002300931A466FF07701FFF7D6FD1E
:1048280003B05DF804FB000007B543880A2B08D0E5
:10483800502B09D1094B1B683BB103B05DF804EB61
:104848001847FFF7E5FF06E0002300931A466FF0CC
:104858007701FFF7BBFD03B05DF804FBA4E3032079
:1048680010B5FFF7B9FC044600F06EFD074B13B115
:104878002046AFF3008000210448FFF709FE00211D
:104888000348BDE81040FFF797BD00BF00000000D7
:1048980031480D0010B588B004466846FFF7C9FED8
:1048A800694604A8FFF7E7FE04A8A047044604A841
:1048B800FFF778FE6846FFF775FE204608B010BD82
:1048C800F0B5102485B007460E461546002122464D
:1048D800684600F030FD002269461046ADF80040F9
:1048E800029703960195FFF7CBFD05B0F0BD704721
:1048F80010B50446FFF7CBFB204610BDF0B5037D8D
:10490800062B8DB00E4600F104074FF0000402D0CC
:1049180000F1080518E00CAD394605F8304D2F2395
:104928002A460A20FFF790FC284600F03FFD33682E
:104938000246DB682946304698470FE024B12E210D
:104948003046FFF7DBFE044415F8011D0A22304605
:10495800FFF704FFBD420444F0D120460DB0F0BD7E
:1049680010B5054B0446112240F8043B002100F025
:10497800E2FC204610BD00BF38550D000346074A2B
:1049880010B543F8042B01F1100251F8044B43F819
:10499800044B9142F9D10A781A7010BD38550D00B0
:1049A80010B59DF8084044EA032343EA024242EA6C
:1049B800016104234160037510BD37B50D788B780C
:1049C8004A78C97800912946FFF7EAFF03B030BD5D
:1049D8004174704770470021007CFFF7CDBC01216E
:1049E800007CFFF7C9BC007CFFF7BEBC007CFFF76A
:1049F800B3BC38B50446007C0D46FFF7B5FC00286B
:104A080001DC607C20B12946207CFFF7BDFC012039
:104A180038BD007CFFF7C0BC10B50446FFF737FB74
:104A2800204610BD10B50446002363604FF47A7326
:104A3800A360054B23600123084621746374114663
:104A4800FFF782FC204610BD4C550D0010B514220E
:104A58000446002100F06FFC204610BD30B50E4D15
:104A680087B001A8FFF7F2FF296811F0010410D1FF
:104A78002846FFF710FB60B101AA21460748FFF757
:104A8800D1FF2846FFF70CFB054A0649034800F00A
:104A9800EBFA024807B030BDA8E30320ACE30320DB
:104AA80078E30320DD490D00002211464068FFF736
:104AB800AFBC002211464068FFF7CABC002211466D
:104AC8004068FFF7D5BC00224068FFF7C9BC002248
:104AD80081F001014068FFF7B3BC00231A4619466C
:104AE8004068FFF7A5BC00231A4619464068FFF73F
:104AF80097BC002211464068FFF77ABC00220221C9
:104B08004068FFF77DBC00231A464068FFF768BC81
:104B180038B50C4C28252A460021204600F00BFC0D
:104B28004FF0FF3363602580074C04232046636001
:104B38002C25064B40F8083B2A46002100F0FBFBD9
:104B4800258138BDF4E30320C0E303207C550D0024
:104B5800704741747047007CFFF7B6BB007CFFF7D5
:104B68008BBB007CFFF798BB007CFFF78DBB007CFC
:104B7800FFF79ABB10B50446FFF789FA204610BD27
:104B880070B5457C04460E4625B9007CFFF79CFBB2
:104B9800002805DD3146207CBDE87040FFF764BB86
:104BA800284670BD10B504460846114600226260CA
:104BB8004FF47A72A260054A22600122207462745E
:104BC8001A46FFF749FB204610BD00BFB0550D003F
:104BD800007CFFF771BB000038B50C4D296811F057
:104BE800010411D12846FFF756FA68B1084A094B63
:104BF80009482146FFF7D6FF2846FFF751FA074A2A
:104C08000749054800F030FA034838BDB4E40320EA
:104C1800B8E4032030E403201CE4032078E30320F5
:104C2800594B0D007047F8B5064615460C468F18C7
:104C3800BC4206D0336814F8011B9B68304698477D
:104C4800F6E72846F8BD0022007CFFF745BB0021A7
:104C5800007CFFF749BB0021007CFFF74DBB00211A
:104C6800007CFFF751BB0021007CFFF755BB10B556
:104C78000446FFF70CFA204610BD000010B50446A4
:104C88004FF47A730846A3600021044B20746160D6
:104C98002360FFF751FB204610BD00BFE0550D0013
:104CA8000021007CFFF740BB002211464068FFF757
:104CB800CFBB002211464068FFF7DABB00224068EC
:104CC800FFF7CEBB002281F001014068FFF7B8BBB7
:104CD80000231A4619464068FFF7AABB00231A4664
:104CE80019464068FFF79CBB002211464068FFF751
:104CF8008FBB002211464068FFF77ABB00220221D1
:104D08004068FFF77DBB00231A464068FFF768BB81
:104D180038B5054678B1046844B1A3681BB10322CD
:104D28002146204698472046FFF7B1F92846BDE8B6
:104D38003840FFF7ACB938BD10B103685B68184755
:104D4800704710B503680446BBB15868FFF754FABA
:104D580078B923685A7C12B95868FFF755FA23685E
:104D68005868FFF759FA20680023236028B1FFF735
:104D7800CFFF206808B1FFF7CBFF204610BD000029
:104D880038B50B4B03600446D0F8CC0108B1FFF7E7
:104D980080F9D4F8C4512DB12846FFF7D2FF284630
:104DA800FFF775F9A06808B1FFF7C6FF204638BDC0
:104DB80008560D0038B50D4C0D4B23600025022315
:104DC80004F5E4706360A560C4F8C451C4F8C85120
:104DD800FFF732FA074BC4F8CC5123602046064A45
:104DE8000649BDE8384000F03FB900BF3CE5032064
:104DF8003C560D0008560D0078E30320894D0D0040
:104E080000231A464068FFF7EBBA002202214068E7
:104E1800FFF7F6BA002211464068FFF7E9BA002208
:104E280011464068FFF7F4BA00231A46194640684D
:104E3800FFF7F6BA00231A4619464068FFF7F8BA92
:104E4800002281F001014068FFF7FABA00224068A9
:104E5800FFF706BB002211464068FFF709BB002296
:104E680011464068FFF7F4BA2DE9F043002495B0E5
:104E780016460D460746FFF773FD214620220CA86B
:104E8800009400F058FA40230C9321466B460CAA74
:104E98003046FFF769F90446002844D1024601214B
:104EA8006868FFF7B5FA0221804622466868FFF76E
:104EB800AFFA009E81462146002E34D0002932D117
:104EC8007368022B02D00A2B09D02AE0B8F1000F30
:104ED80027D0716938460431FFF76FFD20E0B9F13A
:104EE800000F1ED07469112201A800F024FA0623CD
:104EF8008DF8143001AD04F10803183418685968A6
:104F08002A4603C20833A3421546F7D101A906A8C9
:104F180007ADFFF733FD0FCD3C1D0FC42B68237081
:104F28000121F669C8E70098FFF716F9384615B069
:104F3800BDE8F083024B034A1A6000225A607047AA
:104F48000CE703203C560D0010B504460F48FFF748
:104F580019FB28B1A4F10B03022B01D8002010BDC6
:104F680000F062F8FFF79CFE08B1012CF6D9FFF7B4
:104F780033FEFFF72DFE18B1A4F10903012BEDD97B
:104F8800232C8CBF0020012010BD00BF14E7032094
:104F9800232838B504460D460AD8FF2908D0FFF75C
:104FA800D3FF28B129462046BDE83840FFF7ECB8C2
:104FB80038BD38B504460D46FFF7EEF8FF2810D087
:104FC800062804D84D2323FA00F0C30709D4204645
:104FD800FFF7BAFF28B129462046BDE83840FFF759
:104FE800E3B838BD70B50C4C0C4E0D4D0021204671
:104FF800FFF7B4FA20460B4C3246294600F034F845
:1050080001212046FFF7AAFA324629462046BDE884
:10501800704000F029B800BF14E7032078E30320AC
:1050280055450D0024E7032038B50B4D296811F0CC
:1050380001040FD12846FFF72EF858B1214607483A
:10504800FFF71CFE2846FFF72BF8054A05490348D9
:1050580000F00AF8014838BD38E703203CE7032090
:1050680078E303202D4C0D000B460146184600F04E
:1050780049B90000184B1A68D1075CBF01221A60B1
:10508800164B1A68D2075CBF01221A60144B1A68C3
:10509800D0075CBF01221A60124B1A68D1075CBFA7
:1050A80001221A60104B1A68D2075CBF01221A60ED
:1050B8000E4B1A68D0075CBF01221A600C4B1A68A5
:1050C800D1075CBF01221A600A4B1A68D2075CBF7D
:1050D80001221A60704700BF6CE7032068E70320CD
:1050E80064E7032060E703205CE7032058E7032018
:1050F80054E7032050E70320244B1A68D0075CBF0D
:1051080001221A60224B1A68D1075CBF01221A607B
:10511800204B1A68D2075CBF01221A601E4B1A681E
:10512800D0075CBF01221A601C4B1A68D1075CBF0C
:1051380001221A601A4B1A68D2075CBF01221A6052
:10514800184B1A68D0075CBF01221A60164B1A6800
:10515800D1075CBF01221A60144B1A68D2075CBFE2
:1051680001221A60124B1A68D0075CBF01221A602C
:10517800104B1A68D1075CBF01221A600E4B1A68DF
:10518800D2075CBF01221A60704700BF9CE703206A
:1051980098E7032094E7032090E703208CE7032097
:1051A80088E7032084E7032080E703207CE70320C7
:1051B80078E7032074E7032070E70320244B1A687C
:1051C800D0075CBF01221A60224B1A68D1075CBF66
:1051D80001221A60204B1A68D2075CBF01221A60AC
:1051E8001E4B1A68D0075CBF01221A601C4B1A6854
:1051F800D1075CBF01221A601A4B1A68D2075CBF3C
:1052080001221A60184B1A68D0075CBF01221A6085
:10521800164B1A68D1075CBF01221A60144B1A6832
:10522800D2075CBF01221A60124B1A68D0075CBF14
:1052380001221A60104B1A68D1075CBF01221A605C
:105248000E4B1A68D2075CBF01221A60704700BF74
:10525800CCE70320C8E70320C4E70320C0E7032006
:10526800BCE70320B8E70320B4E70320B0E7032036
:10527800ACE70320A8E70320A4E70320A0E7032066
:10528800184B1A68D1075CBF01221A60164B1A68BE
:10529800D2075CBF01221A60144B1A68D0075CBFA2
:1052A80001221A60124B1A68D1075CBF01221A60EA
:1052B800104B1A68D2075CBF01221A600E4B1A689D
:1052C800D0075CBF01221A600C4B1A68D1075CBF7B
:1052D80001221A600A4B1A68D2075CBF01221A60C1
:1052E800704700BFECE70320E8E70320E4E703206A
:1052F800E0E70320DCE70320D8E70320D4E7032016
:10530800D0E7032010B5054C13462CB10A460146D8
:105318000220AFF3008010BD204610BD0000000041
:1053280010B5431E0A44914204D011F8014B03F80A
:10533800014FF8E710BD02440346934202D003F838
:10534800011BFAE77047000038B5124B1C68A36BC5
:105358000546D3B91820FFF7A3F843F20E33A0632C
:1053680003804AF6CD33438041F2342383804EF2E2
:105378006D63C3804DF6EC630381052343810B23E2
:10538800838101220023C0E90423A36B00221D614D
:105398005A6138BD74E3032010F8012B11F8013B62
:1053A800012A28BF9A42F7D0D01A7047034613F84B
:1053B800012B002AFBD1181A013870471D400D0037
:1053C80059400D0085400D0089400D000000000087
:1053D8006F6E006F6666006C656400000000000078
:1053E8000000000037450D002D450D0023450D0038
:1053F80019450D000D450D0001450D00F5440D0042
:10540800ED440D00E3440D00D9440D00714E0D002C
:10541800000000000000000055450D0057450D0034
:105428006C6E00666E00636F646500646574616924
:105438006C000D0A00253031307520005D200025F4
:1054480064002C200028293A2000205B00636F6448
:1054580065203D200025690064657461696C7320CE
:105468003D2000626175640053657269616C005388
:10547800657269616C310074797065007061726180
:105488006D00636D6400696400686E640073747213
:105498006D0066696C74006C766C006164644861C8
:1054A8006E646C65720072656D6F766548616E64D6
:1054B8006C657200656E756D48616E646C657273BB
:1054C800004A534F4E53747265616D4C6F67486163
:1054D8006E646C657200617070006E6F6E6500744A
:1054E8007261636500696E666F007761726E006550
:1054F80072726F720070616E696300616C6C005A41
:1055080000252B3033643A253032750025592D2576
:105518006D2D25645425483A254D3A2553257A00A2
:1055280061736374696D650000000000000000008D
:1055380005490D00F7480D00F9480D00000000006E
:1055480000000000DD490D00214A0D00FB490D0057
:10555800B9460D00F5490D00DF490D00E7490D007A
:105568001B4A0D00EF490D00D9490D00000000004D
:10557800000000000F4B0D00054B0D00FB4A0D000D
:10558800B14A0D00EF4A0D00E34A0D00D74A0D005D
:10559800CF4A0D00C54A0D00BB4A0D00714E0D00E3
:1055A8000000000000000000594B0D007D4B0D006D
:1055B800894B0D00B9460D00654B0D00714B0D0070
:1055C8006B4B0D00774B0D005B4B0D005F4B0D00D7
:1055D80000000000000000002D4C0D00774C0D006D
:1055E8004F4C0D002F4C0D00574C0D005F4C0D001B
:1055F800674C0D006F4C0D0000000000000000001B
:105608000F4D0D00054D0D00FB4C0D00F14C0D002C
:10561800E54C0D00D94C0D00CD4C0D00C54C0D00CE
:10562800BB4C0D00B14C0D00714E0D000000000088
:1056380000000000094E0D00134E0D001D4E0D0018
:10564800274E0D00314E0D003D4E0D00494E0D0008
:10565800554E0D005D4E0D00674E0D00714E0D004C
:105668000000000000000000000000000000000032
:105678000000000000000000000000000000000022
:105688000000000000000000000000000000000012
:105698000000000000000000000000000000000002
:1056A80000000000000000000000000000000000F2
:1056B80000000000000000000000000000000000E2
:1056C800430000005B410D0041450D0095450D006C
:1056D80069470D0079470D00AD470D00194B0D00C6
:1056E800BD4D0D003D4F0D00ED4F0D007D500D00DF
:1056F80001510D00C5510D0089520D000000000038
:08570800000000000000000099
:10571000060000000700000028550D0000000000F2
:1057200068560D0088560D00A8560D0000000000B8
:10573000000000000000000000000000C8560D003E
:105740000000000000000000000000000000000059
:105750000000000000000000000000000000000049
:105760000000000000000000000000000000000039
:1057700000000000000000000000000014E303200F
:10578000FFFFFFFF00000102030405060708090AE6
:105790000B0C0D0E0F101112131415161718191AE1
:0857A0001B1C1D1E1F20280028
:0457A80078563412E9
:04000003D0004018D1
:00000001FF
