:02000002D0002C
:1040000000400D00A4550D00000006000D00050144
:0840100004014E040000000051
:10401800D0510D0009480A49884208B505D0094A17
:10402800824202D0121A01F08BF80748074A002191
:10403800121A01F090F8014808BD00BF0CE30320F4
:1040480010550D0078E3032078E30320F0E7032000
:1040580070B500F041FB074C074BE41AA408002593
:104068001E46A54204D056F8253098470135F8E792
:1040780070BD00BF08550D00D0540D0000F014B8F5
:1040880008B500F019F8BDE8084000F0F3BA00F0F0
:10409800D7B900F0D5B90078B0FA80F04009704778
:1040A8000123037070470000024B0121188800F0BB
:1040B8007FBE00BF0CE3032010B5094C0121208806
:1040C80000F087FE4FF47A7000F096FA20880021FD
:1040D80000F07FFE4FF47A70BDE8104000F08CBA13
:1040E8000CE3032000F010B808B5024B1B689B686E
:1040F800019308BD6802030008B5024B1B68DB6822
:10410800019308BD6802030008B5024B1B681B68D1
:10411800019308BD2C02030008B5024B1B689B687D
:10412800019308BD2C02030008B5024B1B68DB682D
:10413800019308BD2C02030008B5024B1B681B69DC
:10414800019308BD2C02030008B5024B1B68DB690C
:10415800019308BD3002030008B5024B1B681B6AB7
:10416800019308BD3002030008B5024B1B685B6869
:10417800019308BD1802030008B5024B1B685B6970
:10418800019308BD1802030008B5024B1B689B6821
:10419800019308BD4802030008B5024B1B681B6960
:1041A800019308BD4802030008B5024B1B685B6910
:1041B800019308BD4802030008B5024B1B681B6B3E
:1041C800019308BD4802030008B5024B1B685B6CED
:1041D800019308BD4802030008B5024B1B685B69E0
:1041E800019308BD6402030008B5024B1B681B68F5
:1041F800019308BD3C02030008B5024B1B68DB684D
:10420800019308BD3C02030008B5024B1B681B69FB
:10421800019308BD3C02030008B5024B1B685B69AB
:10422800019308BD3C02030008B5024B1B689B695B
:10423800019308BD3C02030008B5024B1B68DB690B
:10424800019308BD3C02030008B5024B1B681B6ABA
:10425800019308BD3C02030008B5024B1B689B6A2A
:10426800019308BD3C02030008B5024B1B681B6A9A
:10427800019308BD2802030008B5024B1B685B6A5E
:10428800019308BD2802030008B5024B1B689B6A0E
:10429800019308BD2802030008B5024B1B68DB6ABE
:1042A800019308BD2802030008B5024B1B681B6B6D
:1042B800019308BD2802030008B5024B1B685B6B1D
:1042C800019308BD2802030008B5024B1B681B6C4C
:1042D800019308BD2802030008B5024B1B681B6840
:1042E800019308BD4C02030008B5024B1B681B690B
:1042F800019308BD4C02030008B5024B1B685B69BB
:10430800019308BD4C02030008B5024B1B689B696A
:10431800019308BD4C02030008B5024B1B68DB691A
:10432800019308BD4C02030008B5024B1B681B6AC9
:10433800019308BD4C02030008B5024B1B685B687B
:10434800019308BD2002030008B5024B1B685B6996
:10435800019308BD2002030008B5034B1B68D3F87E
:104368008830019308BD00002002030008B5034B04
:104378001B68D3F89430019308BD000020020300A5
:1043880008B5024B1B685B68019308BD4002030037
:1043980008B5024B1B689B68019308BD40020300E7
:1043A80008B5024B1B68DB68019308BD4002030097
:1043B80008B5024B1B681B69019308BD4002030046
:1043C80008B5024B1B685B69019308BD40020300F6
:1043D80008B5024B1B689B69019308BD40020300A6
:1043E80008B5024B1B68DB69019308BD4002030056
:1043F80008B5024B1B681B6A019308BD4002030005
:1044080008B5024B1B681B6B019308BD40020300F3
:1044180008B5024B1B685B6B019308BD40020300A3
:1044280008B5024B1B68DB6B019308BD440203000F
:1044380008B5024B1B681B68019308BD1C020300EA
:1044480008B5024B1B685B68019308BD1C0203009A
:10445800002211464068FFF7CBBF00221146406892
:10446800FFF7D6BF00224068FFF7CABF002281F0DD
:1044780001014068FFF7B4BF00231A461946406897
:10448800FFF7A6BF00231A4619464068FFF798BFF2
:10449800002211464068FFF78BBF00221146406892
:1044A800FFF776BF002202214068FFF779BF00239B
:1044B8001A464068FFF764BF024B03225A60024A5B
:1044C8001A6070477CE30320EC510D00704710B56B
:1044D8000446FFF7DCFD204610BD000070B5084B10
:1044E8000360044600250E4640F80C5FFFF764FEA3
:1044F80030462671FFF728FEA560204670BD00BF34
:1045080020520D000079FFF727BE0000044B002061
:104518004FF6FF72187058809A80FFF70DBF00BFE2
:1045280084E30320F8B506460D468F180024BD42E3
:104538000CD0336815F8011B9B6830469847002853
:1045480001DB0444F3E7002C08BF04462046F8BD0D
:1045580070B505460C46084649B100F02DFE2B689B
:10456800024621462846DB68BDE87040184770BD02
:1045780003689B68184730B58BB00B4600218DF84F
:104588002410012A98BF0A220DF12304B3FBF2F587
:1045980005FB123303F0FF03092B94BF3033373385
:1045A800DBB2214604F801392B46002DEED1FFF786
:1045B800CFFF0BB030BD10B42AB903685DF8044BC7
:1045C8009B68C9B21847D2B25DF8044BFFF7D3BF56
:1045D800FFF7F1BF014B024A1A6070478CE30320D2
:1045E800E0520D00024B1A68024B1A60704700BF78
:1045F80010E3032090E303200021FFF7A5BE10B5C8
:104608008368044613B1032201469847204610BD2B
:1046180010B50446FFF7F3FF204610BD0348044ACF
:1046280004490023836000F02FBC00BF94E30320FB
:1046380078E3032019460D0008B50C4B33B100F0A0
:104648001DF903681B699847002809DC084B63B10A
:1046580000F0D2F903681B699847002803DC08BDFD
:10466800AFF30080F2E7AFF3008008BD0000000060
:104678000000000008B5FFF7DFFFFFF77DFD014BE5
:10468800186008BD34E7032007B5002300931A46D5
:104698006FF07701FFF76AFE03B05DF804FB0000D6
:1046A80007B543880A2B08D0502B09D1094B1B6842
:1046B8003BB103B05DF804EB1847FFF7E5FF06E0F0
:1046C800002300931A466FF07701FFF74FFE03B0FF
:1046D8005DF804FBA4E3032010B5FFF745FD04468D
:1046E80000F042FD074B13B12046AFF300800021D4
:1046F8000448FFF795FE00210348BDE81040FFF786
:104708002BBE00BF00000000A9460D00704710B581
:104718000446FFF7BCFC204610BDF0B5037D062B10
:104728008DB00E4600F104074FF0000402D000F1EE
:10473800080518E00CAD394605F8304D2F232A46F8
:104748000A20FFF749FD284600F036FD3368024687
:10475800DB682946304698470FE024B12E213046C1
:10476800FFF706FF044415F8011D0A223046FFF73B
:104778002FFFBD420444F0D120460DB0F0BD00002B
:1047880010B5054B0446112240F8043B002100F007
:10479800E2FC204610BD00BF3C530D000346074A0B
:1047A80010B543F8042B01F1100251F8044B43F8FB
:1047B800044B9142F9D10A781A7010BD3C530D0090
:1047C80010B59DF8084044EA032343EA024242EA4E
:1047D800016104234160037510BD37B50D788B78EE
:1047E8004A78C97800912946FFF7EAFF03B030BD3F
:1047F8004174704770470021007CFFF785BD012197
:10480800007CFFF781BD007CFFF776BD007CFFF7D9
:104818006BBD38B50446007C0D46FFF76DFD0028DA
:1048280001DC607C20B12946207CFFF775FD012062
:1048380038BD007CFFF778BD10B50446FFF727FCAC
:10484800204610BD10B50446002363604FF47A7308
:10485800A360054B23600123084621746374114645
:10486800FFF73AFD204610BD50530D0010B5142235
:104878000446002100F06FFC204610BD30B50E4DF7
:1048880087B001A8FFF7F2FF296811F0010410D1E1
:104898002846FFF700FC60B101AA21460748FFF748
:1048A800D1FF2846FFF7FCFB054A0649034800F0FC
:1048B800EBFA024807B030BDA8E30320ACE30320BD
:1048C80078E30320FD470D00002211464068FFF7FA
:1048D8006FBD002211464068FFF78ABD00221146CD
:1048E8004068FFF795BD00224068FFF789BD0022A8
:1048F80081F001014068FFF773BD00231A4619468D
:104908004068FFF765BD00231A4619464068FFF75F
:1049180057BD002211464068FFF73ABD0022022128
:104928004068FFF73DBD00231A464068FFF728BDE1
:1049380038B50C4C28252A460021204600F00BFCEF
:104948004FF0FF3363602580074C042320466360E3
:104958002C25064B40F8083B2A46002100F0FBFBBB
:10496800258138BDF4E30320C0E3032080530D0004
:10497800704741747047007CFFF76EBC007CFFF7FE
:1049880043BC007CFFF750BC007CFFF745BC007CB3
:10499800FFF752BC10B50446FFF779FB204610BD5F
:1049A80070B5457C04460E4625B9007CFFF754FCDB
:1049B800002805DD3146207CBDE87040FFF71CBCAF
:1049C800284670BD10B504460846114600226260AC
:1049D8004FF47A72A260054A226001222074627440
:1049E8001A46FFF701FC204610BD00BFB4530D0066
:1049F800007CFFF729BC000038B50C4D296811F080
:104A0800010411D12846FFF746FB68B1084A094B53
:104A180009482146FFF7D6FF2846FFF741FB074A1A
:104A28000749054800F030FA034838BDB4E40320CC
:104A3800B8E4032030E403201CE4032078E30320D7
:104A480079490D007047F8B5064615460C468F188B
:104A5800BC4206D0336814F8011B9B68304698475F
:104A6800F6E72846F8BD0022007CFFF7FDBB0021D1
:104A7800007CFFF701BC0021007CFFF705BC00218A
:104A8800007CFFF709BC0021007CFFF70DBC10B5C6
:104A98000446FFF7FCFA204610BD000010B5044696
:104AA8004FF47A730846A3600021044B20746160B8
:104AB8002360FFF709FC204610BD00BFE4530D003A
:104AC8000021007CFFF7F8BB002211464068FFF781
:104AD8008FBC002211464068FFF79ABC002240684C
:104AE800FFF78EBC002281F001014068FFF778BC17
:104AF80000231A4619464068FFF76ABC00231A4685
:104B080019464068FFF75CBC002211464068FFF771
:104B18004FBC002211464068FFF73ABC0022022130
:104B28004068FFF73DBC00231A464068FFF728BCE1
:104B380038B5054678B1046844B1A3681BB10322AF
:104B48002146204698472046FFF7A1FA2846BDE8A7
:104B58003840FFF79CBA38BD10B103685B68184746
:104B6800704710B503680446BBB15868FFF70CFBE3
:104B780078B923685A7C12B95868FFF70DFB236887
:104B88005868FFF711FB20680023236028B1FFF75E
:104B9800CFFF206808B1FFF7CBFF204610BD00000B
:104BA80038B50B4B03600446D0F8CC0108B1FFF7C9
:104BB80070FAD4F8C4512DB12846FFF7D2FF284621
:104BC800FFF765FAA06808B1FFF7C6FF204638BDB1
:104BD8000C540D0038B50D4C0D4B236000250223F5
:104BE80004F5E4706360A560C4F8C451C4F8C85102
:104BF800FFF7EAFA074BC4F8CC5123602046064A6F
:104C08000649BDE8384000F03FB900BF3CE5032045
:104C180040540D000C540D0078E30320A94B0D00FF
:104C280000231A464068FFF7ABBB00220221406808
:104C3800FFF7B6BB002211464068FFF7A9BB002268
:104C480011464068FFF7B4BB00231A46194640686E
:104C5800FFF7B6BB00231A4619464068FFF7B8BBF2
:104C6800002281F001014068FFF7BABB00224068CA
:104C7800FFF7C6BB002211464068FFF7C9BB0022F8
:104C880011464068FFF7B4BB2DE9F043002495B006
:104C980016460D460746FFF773FD214620220CA84D
:104CA800009400F058FA40230C9321466B460CAA56
:104CB8003046FFF721FA0446002844D10246012174
:104CC8006868FFF775FB0221804622466868FFF78F
:104CD8006FFB009E81462146002E34D0002932D138
:104CE8007368022B02D00A2B09D02AE0B8F1000F12
:104CF80027D0716938460431FFF76FFD20E0B9F11C
:104D0800000F1ED07469112201A800F024FA0623AE
:104D18008DF8143001AD04F1080318341868596887
:104D28002A4603C20833A3421546F7D101A906A8AB
:104D380007ADFFF733FD0FCD3C1D0FC42B68237063
:104D48000121F669C8E70098FFF7CEF9384615B093
:104D5800BDE8F083024B034A1A6000225A6070478C
:104D68000CE7032040540D0010B504460F48FFF728
:104D7800C9FB28B1A4F10B03022B01D8002010BDF8
:104D880000F062F8FFF79CFE08B1012CF6D9FFF796
:104D980033FEFFF72DFE18B1A4F10903012BEDD95D
:104DA800232C8CBF0020012010BD00BF14E7032076
:104DB800232838B504460D460AD8FF2908D0FFF73E
:104DC800D3FF28B129462046BDE83840FFF7A4B9EB
:104DD80038BD38B504460D46FFF7A6F9FF2810D0B0
:104DE800062804D84D2323FA00F0C30709D4204627
:104DF800FFF7BAFF28B129462046BDE83840FFF73B
:104E08009BB938BD70B50C4C0C4E0D4D0021204699
:104E1800FFF764FB20460B4C3246294600F034F875
:104E280001212046FFF75AFB324629462046BDE8B5
:104E3800704000F029B800BF14E7032078E303208E
:104E4800D5440D0024E7032038B50B4D296811F02F
:104E580001040FD12846FFF71EF958B1214607482B
:104E6800FFF71CFE2846FFF71BF9054A05490348CA
:104E780000F00AF8014838BD38E703203CE7032072
:104E880078E303204D4A0D000B460146184600F012
:104E980049B90000184B1A68D1075CBF01221A6093
:104EA800164B1A68D2075CBF01221A60144B1A68A5
:104EB800D0075CBF01221A60124B1A68D1075CBF89
:104EC80001221A60104B1A68D2075CBF01221A60CF
:104ED8000E4B1A68D0075CBF01221A600C4B1A6887
:104EE800D1075CBF01221A600A4B1A68D2075CBF5F
:104EF80001221A60704700BF6CE7032068E70320AF
:104F080064E7032060E703205CE7032058E70320F9
:104F180054E7032050E70320244B1A68D0075CBFEE
:104F280001221A60224B1A68D1075CBF01221A605D
:104F3800204B1A68D2075CBF01221A601E4B1A6800
:104F4800D0075CBF01221A601C4B1A68D1075CBFEE
:104F580001221A601A4B1A68D2075CBF01221A6034
:104F6800184B1A68D0075CBF01221A60164B1A68E2
:104F7800D1075CBF01221A60144B1A68D2075CBFC4
:104F880001221A60124B1A68D0075CBF01221A600E
:104F9800104B1A68D1075CBF01221A600E4B1A68C1
:104FA800D2075CBF01221A60704700BF9CE703204C
:104FB80098E7032094E7032090E703208CE7032079
:104FC80088E7032084E7032080E703207CE70320A9
:104FD80078E7032074E7032070E70320244B1A685E
:104FE800D0075CBF01221A60224B1A68D1075CBF48
:104FF80001221A60204B1A68D2075CBF01221A608E
:105008001E4B1A68D0075CBF01221A601C4B1A6835
:10501800D1075CBF01221A601A4B1A68D2075CBF1D
:1050280001221A60184B1A68D0075CBF01221A6067
:10503800164B1A68D1075CBF01221A60144B1A6814
:10504800D2075CBF01221A60124B1A68D0075CBFF6
:1050580001221A60104B1A68D1075CBF01221A603E
:105068000E4B1A68D2075CBF01221A60704700BF56
:10507800CCE70320C8E70320C4E70320C0E70320E8
:10508800BCE70320B8E70320B4E70320B0E7032018
:10509800ACE70320A8E70320A4E70320A0E7032048
:1050A800184B1A68D1075CBF01221A60164B1A68A0
:1050B800D2075CBF01221A60144B1A68D0075CBF84
:1050C80001221A60124B1A68D1075CBF01221A60CC
:1050D800104B1A68D2075CBF01221A600E4B1A687F
:1050E800D0075CBF01221A600C4B1A68D1075CBF5D
:1050F80001221A600A4B1A68D2075CBF01221A60A3
:10510800704700BFECE70320E8E70320E4E703204B
:10511800E0E70320DCE70320D8E70320D4E70320F7
:10512800D0E7032010B5054C13462CB10A460146BA
:105138000220AFF3008010BD204610BD0000000023
:1051480010B5431E0A44914204D011F8014B03F8EC
:10515800014FF8E710BD02440346934202D003F81A
:10516800011BFAE77047000038B5124B1C68A36BA7
:105178000546D3B91820FFF75BF943F20E33A06355
:1051880003804AF6CD33438041F2342383804EF2C4
:105198006D63C3804DF6EC630381052343810B23C4
:1051A800838101220023C0E90423A36B00221D612F
:1051B8005A6138BD74E30320034613F8012B002A13
:1051C800FBD1181A013870471D400D0059400D00D9
:1051D80085400D0089400D0000000000000000001F
:1051E80000000000B7440D00AD440D00A3440D00BD
:1051F80099440D008D440D0081440D0075440D0047
:105208006D440D0063440D0059440D00914C0D0090
:105218000000000000000000D5440D00D7440D0038
:1052280066006C6E00666E00636F6465006465748A
:1052380061696C000D0A00253031307520005D2051
:10524800002564002C200028293A2000205B0063F8
:105258006F6465203D200025690064657461696C90
:1052680073203D2000626175640053657269616C4A
:105278000053657269616C31007479706500706102
:1052880072616D00636D6400696400686E64007328
:1052980074726D0066696C74006C766C006164648D
:1052A80048616E646C65720072656D6F7665486101
:1052B8006E646C657200656E756D48616E646C65D0
:1052C8007273004A534F4E53747265616D4C6F6729
:1052D80048616E646C657200617070006E6F6E6517
:1052E80000747261636500696E666F007761726E43
:1052F800006572726F720070616E696300616C6C38
:10530800005A00252B3033643A2530327500255970
:105318002D256D2D25645425483A254D3A255325CC
:105328007A0061736374696D650000000000000015
:105338000000000023470D0015470D0017470D001A
:105348000000000000000000FD470D0041480D006E
:105358001B480D002D450D0015480D00FF470D0099
:1053680007480D003B480D000F480D00F9470D0098
:1053780000000000000000002F490D0025490D0025
:105388001B490D00D1480D000F490D0003490D00C0
:10539800F7480D00EF480D00E5480D00DB480D000B
:1053A800914C0D00000000000000000079490D003C
:1053B8009D490D00A9490D002D450D0085490D0099
:1053C80091490D008B490D0097490D007B490D004F
:1053D8007F490D0000000000000000004D4A0D004C
:1053E800974A0D006F4A0D004F4A0D00774A0D008D
:1053F8007F4A0D00874A0D008F4A0D00000000000B
:10540800000000002F4B0D00254B0D001B4B0D001D
:10541800114B0D00054B0D00F94A0D00ED4A0D002A
:10542800E54A0D00DB4A0D00D14A0D00914C0D00F4
:105438000000000000000000294C0D00334C0D0056
:105448003D4C0D00474C0D00514C0D005D4C0D00BE
:10545800694C0D00754C0D007D4C0D00874C0D00FE
:10546800914C0D000000000000000000000000004A
:105478000000000000000000000000000000000024
:105488000000000000000000000000000000000014
:105498000000000000000000000000000000000004
:1054A80000000000000000000000000000000000F4
:1054B80000000000000000000000000000000000E4
:1054C8000000000043000000ED400D00C1440D0045
:1054D80015450D00DD450D00ED450D0025460D0077
:1054E80039490D00DD4B0D005D4D0D000D4E0D00D1
:1054F8009D4E0D00214F0D00E54F0D00A9500D00E8
:0855080000000000000000009B
:10551000070000002A530D00000000006C540D002D
:105520008C540D00AC540D00000000000000000081
:105530000000000000000000CC540D00000000003E
:10554000000000000000000000000000000000005B
:10555000000000000000000000000000000000004B
:10556000000000000000000000000000000000003B
:0C557000000000000000000014E3032015
:10557C00FFFFFFFF00000102030405060708090AEC
:10558C000B0C0D0E0F101112131415161718191AE7
:08559C001B1C1D1E1F2028002E
:0455A40078563412EF
:04000003D0004018D1
:00000001FF
