:02000002D0002C
:1040000000400D00A4560D00000006000D00050143
:0840100004017E050000000020
:04401800E4520D0061
:10401C0009480A49884208B505D0094A824202D0AB
:10402C00121A01F00DF90748074A0021121A01F083
:10403C0012F9014808BD00BF1CE3032010560D0007
:10404C0088E3032088E30320F0E7032070B500F039
:10405C003BFC074C074BE41AA40800251E46A5425E
:10406C0004D056F8253098470135F8E770BD00BFED
:10407C0004560D00C8550D0000F016B808B500F038
:10408C0041F8BDE8084000F0EDBB00F011BA00F0BB
:10409C000FBA0078B0FA80F0400970470123037022
:1040AC00704710687047000013B5002301221846B2
:1040BC00082401920F4900936A46ADF8004000F0C5
:1040CC00DFF900F0EFFC4FF4165100F0DFFC00F0CC
:1040DC00BBFD4FF4165100F0B3FD074B01930422C6
:1040EC006B4606490648ADF8004000F0C1F902B035
:1040FC0010BD00BFC0D40100AF400D009CE30320F5
:10410C00F8520D0038B500F09FFD03681B69984705
:10411C00002827DD00F098FD0368154C5B69984773
:10412C00144BC1B21860144B0A29197004D0134AED
:10413C0023681268934210DB114D1249284600F097
:10414C0087FA00F0AFFC296800F003FB0E490D481C
:10415C0000F08DFA0023236004E00133094823604A
:10416C0000F0ADFA0A20BDE8384000F03DBB00BFBE
:10417C00B0E30320B4E30320ACE303201CE30320EF
:10418C009CE303208CE30320EF530D00F8B50D4F97
:10419C000D4C0E4E0E4D00F02FF83946204600F017
:1041AC0044FA20460B4C3246294600F0EBFE3946C9
:1041BC00204600F03AFA324629462046BDE8F8403F
:1041CC0000F0E0BEEF530D008CE3032088E30320E6
:1041DC00A9450D009CE3032008B5024B1B689B68A6
:1041EC00019308BD6802030008B5024B1B68DB682D
:1041FC00019308BD6802030008B5024B1B681B68DD
:10420C00019308BD2C02030008B5024B1B68DB6947
:10421C00019308BD3002030008B5024B1B685B68B4
:10422C00019308BD1802030008B5024B1B685B69BB
:10423C00019308BD1802030008B5024B1B689B686C
:10424C00019308BD4802030008B5024B1B681B69AB
:10425C00019308BD4802030008B5024B1B685B695B
:10426C00019308BD4802030008B5024B1B681B6B89
:10427C00019308BD4802030008B5024B1B685B6C38
:10428C00019308BD4802030008B5024B1B685B692B
:10429C00019308BD6402030008B5024B1B681B6840
:1042AC00019308BD3C02030008B5024B1B68DB6898
:1042BC00019308BD3C02030008B5024B1B681B6947
:1042CC00019308BD3C02030008B5024B1B685B69F7
:1042DC00019308BD3C02030008B5024B1B689B69A7
:1042EC00019308BD3C02030008B5024B1B68DB6957
:1042FC00019308BD3C02030008B5024B1B689B6A86
:10430C00019308BD3C02030008B5024B1B68DB6A35
:10431C00019308BD3C02030008B5024B1B681B68E7
:10432C00019308BD4C02030008B5024B1B685B6887
:10433C00019308BD4C02030008B5024B1B681B69B6
:10434C00019308BD4C02030008B5024B1B685B6966
:10435C00019308BD4C02030008B5024B1B689B6916
:10436C00019308BD4C02030008B5024B1B68DB69C6
:10437C00019308BD4C02030008B5024B1B681B6A75
:10438C00019308BD4C02030008B5024B1B685B6827
:10439C00019308BD2002030008B5024B1B685B6942
:1043AC00019308BD2002030008B5034B1B68D3F82A
:1043BC008830019308BD00002002030008B5034BB0
:1043CC001B68D3F89430019308BD00002002030051
:1043DC0008B5024B1B685B68019308BD40020300E3
:1043EC0008B5024B1B689B68019308BD4002030093
:1043FC0008B5024B1B68DB68019308BD4002030043
:10440C0008B5024B1B681B69019308BD40020300F1
:10441C0008B5024B1B685B69019308BD40020300A1
:10442C0008B5024B1B689B69019308BD4002030051
:10443C0008B5024B1B68DB69019308BD4002030001
:10444C0008B5024B1B681B6A019308BD40020300B0
:10445C0008B5024B1B681B6B019308BD400203009F
:10446C0008B5024B1B685B6B019308BD400203004F
:10447C0008B5024B1B681B68019308BD440203007E
:10448C0008B5024B1B689B6B019308BD44020300EB
:10449C0008B5024B1B68DB6B019308BD440203009B
:1044AC0008B5024B1B681B68019308BD1C02030076
:1044BC0008B5024B1B685B68019308BD1C02030026
:1044CC0008B5024B1B689B68019308BD1C020300D6
:1044DC00002211464068FFF7B3BF00221146406826
:1044EC00FFF7BEBF00224068FFF7B2BF002281F089
:1044FC0001014068FFF79CBF00231A46194640682B
:10450C00FFF78EBF00231A4619464068FFF780BF9D
:10451C00002211464068FFF773BF00221146406825
:10452C00FFF75EBF002202214068FFF761BF002346
:10453C001A464068FFF74CBF024B03225A60024AEE
:10454C001A607047B8E303200C530D00704710B588
:10455C001021044600F01BFD204610BD70B5084B21
:10456C000360044600250E4640F80C5FFFF77CFE06
:10457C0030462671FFF748FEA560204670BD00BF8F
:10458C0040530D00044B00204FF6FF7218705880FA
:10459C009A80FFF7F9BE00BFC0E3032010B50446B4
:1045AC000068FFF785FF204610BD10B50446006873
:1045BC0008B1FFF77DFF00232360A360636010BD8B
:1045CC0038B504460D4600680131FFF779FF10B18C
:1045DC0084E82100012038BD10B50368044613B1EE
:1045EC0043688B4207D22046FFF7EAFF20B1A3684D
:1045FC000BB922681370012010BD70B50E46114620
:10460C0004461546FFF7E8FF18B92046FFF7CDFF23
:10461C0009E02A463146A560206800F011FE2268A8
:10462C00A3680021D154204670BD38B50023044640
:10463C0003604360836003730D4639B1084600F094
:10464C0043FE294602462046FFF7D7FF204638BDD9
:10465C00884210B50B46044607D0096819B19A6810
:10466C00FFF7CBFF01E0FFF7A0FF204610BD38B5E8
:10467C0005460C4641B1084600F026FE214602468E
:10468C002846FFF7BAFF01E0FFF78FFF284638BD39
:10469C0070B504460E4609B9002070BD6AB1836836
:1046AC00D5182946FFF798FF0028F5D02068A36895
:1046BC003146184400F000FEA560012070BD07B51E
:1046CC0000238DF80410012201A98DF80530FFF7A5
:1046DC00DFFF03B05DF804FB024800230360FFF723
:1046EC00CBBD00BFC8E30320F8B506460D468F18B6
:1046FC000024BD420CD0336815F8011B9B68304672
:10470C009847002801DB0444F3E7002C08BF04465B
:10471C002046F8BD70B505460C46084649B100F078
:10472C00D3FD2B68024621462846DB68BDE8704065
:10473C00184770BD03689B68184738B50D210546AE
:10474C00FFF7F8FF0A2104462846FFF7F3FF204441
:10475C0038BD38B50546FFF7DDFF04462846FFF7A0
:10476C00ECFF204438BD30B58BB00B4600218DF8E2
:10477C002410012A98BF0A220DF12304B3FBF2F591
:10478C0005FB123303F0FF03092B94BF303337338F
:10479C00DBB2214604F801392B46002DEED1FFF790
:1047AC00B9FF0BB030BD10B42AB903685DF8044BE7
:1047BC009B68C9B21847D2B25DF8044BFFF7D3BF60
:1047CC00FFF7F1BF014B024A1A607047CCE303209C
:1047DC00BB530D00024B1A68024B1A60704700BFA6
:1047EC0020E30320D0E303200021FFF7D5BD10B553
:1047FC008368044613B1032201469847204610BD36
:10480C0010B50446FFF7F3FF204610BD0348044AD9
:10481C0004490023836000F0B5BB00BFD4E3032040
:10482C0088E303200D480D0008B50C4B33B100F0A4
:10483C0039F903681B699847002809DC084B63B1F8
:10484C0000F002FA03681B699847002803DC08BDD6
:10485C00AFF30080F2E7AFF3008008BD000000006A
:10486C000000000008B5FFF7DFFFFFF7DDFC014B90
:10487C00186008BD4CE7032007B5002300931A46C7
:10488C006FF07701FFF79AFD03B05DF804FB0000B1
:10489C0007B543880A2B08D0502B09D1094B1B684C
:1048AC003BB103B05DF804EB1847FFF7E5FF06E0FA
:1048BC00002300931A466FF07701FFF77FFD03B0DA
:1048CC005DF804FBE4E3032010B5FFF7A5FC0446F8
:1048DC0000F0CAFC074B13B12046AFF30080002157
:1048EC000448FFF7D5FD00210348BDE81040FFF751
:1048FC005BBD00BF000000009D480D00704710B567
:10490C001821044600F043FB204610BDF0B5037D92
:10491C00062B8DB00E4600F104074FF0000402D0B8
:10492C0000F1080518E00CAD394605F8304D2F2381
:10493C002A460A20FFF7A8FC284600F0C5FC33687D
:10494C000246DB682946304698470FE024B12E21F9
:10495C003046FFF7EFFE044415F8011D0A223046DD
:10496C00FFF72EFFBD420444F0D120460DB0F0BD40
:10497C0010B5054B0446112240F8043B002100F011
:10498C006AFC204610BD00BF5C540D000346074A6C
:10499C0010B543F8042B01F1100251F8044B43F805
:1049AC00044B9142F9D10A781A7010BD5C540D0079
:1049BC0010B59DF8084044EA032343EA024242EA58
:1049CC00016104234160037510BD37B50D788B78F8
:1049DC004A78C97800912946FFF7EAFF03B030BD49
:1049EC0041747047704708B50021007CFFF7B4FC98
:1049FC0030EA200028BF4FF0FF3008BD08B5012178
:104A0C00007CFFF7A9FC30EA200028BF4FF0FF30F4
:104A1C0008BD08B5007CFFF797FC20EAE07008BDE4
:104A2C0008B5007CFFF788FC20EAE07008BD007C2C
:104A3C00FFF7A2BC10B51421044600F0A8FA2046DA
:104A4C0010BD38B50446007C0D46FFF77DFC0028F0
:104A5C0001DC607C28B12946207CFFF785FC20EA2C
:104A6C00E07038BD10B50446002363604FF47A73D0
:104A7C00A360054B2360012308462174637411461F
:104A8C00FFF74AFC204610BD70540D000022007C3C
:104A9C00FFF74ABC10B514220446002100F0DBFBE2
:104AAC00204610BD30B50E4D87B001A8FFF7F2FFC0
:104ABC00296811F0010410D12846FFF7EAFA60B119
:104ACC0001AA21460748FFF7CDFF2846FFF7E6FA73
:104ADC00054A0649034800F055FA024807B030BDB4
:104AEC00E8E30320ECE3032088E30320F1490D0005
:104AFC00002211464068FFF783BC00221146406833
:104B0C00FFF79EBC002211464068FFF7A9BC0022AB
:104B1C004068FFF79DBC002281F001014068FFF75F
:104B2C0087BC00231A4619464068FFF779BC00235E
:104B3C001A4619464068FFF76BBC002211464068C4
:104B4C00FFF74EBC002202214068FFF751BC002346
:104B5C001A464068FFF73CBC38B5084C28252A4655
:104B6C000021204600F077FB4FF0FF336360044BCD
:104B7C00258004225A60034A1A6038BD08E40320D9
:104B8C0000E40320A0540D0070474174704708B531
:104B9C00007CFFF7B1FB20EAE07008BD08B5007C93
:104BAC00FFF78AFB20EAE07008BD08B5007CFFF730
:104BBC0093FB30EA200028BF4FF0FF3008BD08B54A
:104BCC00007CFFF781FB30EA200028BF4FF0FF305C
:104BDC0008BD007CFFF788BB10B51421044600F01B
:104BEC00D6F9204610BD70B5457C04460E4625B955
:104BFC00007CFFF781FB002805DD3146207CBDE8F9
:104C0C007040FFF751BB284670BD000010B504463C
:104C1C0008461146002262604FF47A72A260054A7F
:104C2C0022600122207462741A46FFF735FB20467D
:104C3C0010BD00BFD4540D000023007CFFF764BBF3
:104C4C000022FFF7F9BF000038B50C4D296811F0B0
:104C5C00010411D12846FFF71CFA68B1084A094B28
:104C6C0009482146FFF7D2FF2846FFF717FA074AF3
:104C7C000749054800F086F9034838BDC8E403200D
:104C8C00CCE4032044E4032030E4032088E3032035
:104C9C00954B0D00002211464068FFF7D1BB002256
:104CAC0011464068FFF7DCBB00224068FFF7D0BB21
:104CBC00002281F001014068FFF7BABB00231A46BD
:104CCC0001214068FFF7ACBB00231A461946406827
:104CDC00FFF79EBB002211464068FFF791BB0022F4
:104CEC0011464068FFF77CBB002202214068FFF7A9
:104CFC007FBB00231A464068FFF76ABB38B50546F0
:104D0C0088B104684CB1A3681BB10322214620462C
:104D1C0098471021204600F03AF928461421BDE8A6
:104D2C00384000F034B938BD10B103685B681847DF
:104D3C00704710B503680446BBB15868FFF77CFA9E
:104D4C0078B923685A7C12B95868FFF77DFA236842
:104D5C005868FFF781FA20680023236028B1FFF719
:104D6C00CDFF206808B1FFF7C9FF204610BD000039
:104D7C0038B50C4B03600446D0F8CC0108B1FFF7F2
:104D8C0086F9D4F8C45135B12846FFF7D2FF042177
:104D9C00284600F0FCF8A06808B1FFF7C5FF2046D4
:104DAC0038BD00BF04550D0038B50E4C0E4B2360BA
:104DBC000025022304F5E4706360A560C4F8C451B7
:104DCC00C4F8C851FFF758FA084BC4F8CC5184F812
:104DDC00D05123602046064A0649BDE8384000F011
:104DEC00D1B800BF50E5032038550D0004550D0017
:104DFC0088E303207D4D0D0000231A464068FFF721
:104E0C00E7BA002202214068FFF7F2BA00221146ED
:104E1C004068FFF7E5BA002211464068FFF7F0BA88
:104E2C0000231A4619464068FFF7F2BA00231A46C7
:104E3C0019464068FFF7F4BA002281F0010140687E
:104E4C00FFF7F6BA00224068FFF702BB00221146BA
:104E5C004068FFF705BB002211464068FFF7F0BA27
:104E6C002DE9F043002495B016460D460746FFF792
:104E7C007FFD214620220CA8009400F0ECF9402381
:104E8C000C9321466B460CAA3046FFF7ADF904464D
:104E9C00002844D1024601216868FFF7B1FA0221CB
:104EAC00804622466868FFF7ABFA009E8146214691
:104EBC00002E34D0002932D17368022B02D00A2B79
:104ECC0009D02AE0B8F1000F27D0716938460431B7
:104EDC00FFF77BFD20E0B9F1000F1ED074691122A1
:104EEC0001A800F0B8F906238DF8143001AD04F1D7
:104EFC0008031834186859682A4603C20833A342B9
:104F0C001546F7D101A906A807ADFFF73FFD0FCD58
:104F1C003C1D0FC42B6823700121F669C8E700986B
:104F2C00FFF75AF9384615B0BDE8F083024B034A37
:104F3C001A6000225A60704724E7032038550D0090
:104F4C0070B50C4C0C4E0D4D00212046FFF706FBA6
:104F5C0020460B4C3246294600F014F8012120461D
:104F6C00FFF7FCFA324629462046BDE8704000F0B7
:104F7C0009B800BF2CE7032088E3032059450D0036
:104F8C003CE703200B460146184600F04BB9FFF7EF
:104F9C007CB80000184B1A68D1075CBF01221A605C
:104FAC00164B1A68D2075CBF01221A60144B1A68A0
:104FBC00D0075CBF01221A60124B1A68D1075CBF84
:104FCC0001221A60104B1A68D2075CBF01221A60CA
:104FDC000E4B1A68D0075CBF01221A600C4B1A6882
:104FEC00D1075CBF01221A600A4B1A68D2075CBF5A
:104FFC0001221A60704700BF6CE7032068E70320AA
:10500C0064E7032060E703205CE7032058E70320F4
:10501C0054E7032050E70320244B1A68D0075CBFE9
:10502C0001221A60224B1A68D1075CBF01221A6058
:10503C00204B1A68D2075CBF01221A601E4B1A68FB
:10504C00D0075CBF01221A601C4B1A68D1075CBFE9
:10505C0001221A601A4B1A68D2075CBF01221A602F
:10506C00184B1A68D0075CBF01221A60164B1A68DD
:10507C00D1075CBF01221A60144B1A68D2075CBFBF
:10508C0001221A60124B1A68D0075CBF01221A6009
:10509C00104B1A68D1075CBF01221A600E4B1A68BC
:1050AC00D2075CBF01221A60704700BF9CE7032047
:1050BC0098E7032094E7032090E703208CE7032074
:1050CC0088E7032084E7032080E703207CE70320A4
:1050DC0078E7032074E7032070E70320244B1A6859
:1050EC00D0075CBF01221A60224B1A68D1075CBF43
:1050FC0001221A60204B1A68D2075CBF01221A6089
:10510C001E4B1A68D0075CBF01221A601C4B1A6830
:10511C00D1075CBF01221A601A4B1A68D2075CBF18
:10512C0001221A60184B1A68D0075CBF01221A6062
:10513C00164B1A68D1075CBF01221A60144B1A680F
:10514C00D2075CBF01221A60124B1A68D0075CBFF1
:10515C0001221A60104B1A68D1075CBF01221A6039
:10516C000E4B1A68D2075CBF01221A60704700BF51
:10517C00CCE70320C8E70320C4E70320C0E70320E3
:10518C00BCE70320B8E70320B4E70320B0E7032013
:10519C00ACE70320A8E70320A4E70320A0E7032043
:1051AC00184B1A68D1075CBF01221A60164B1A689B
:1051BC00D2075CBF01221A60144B1A68D0075CBF7F
:1051CC0001221A60124B1A68D1075CBF01221A60C7
:1051DC00104B1A68D2075CBF01221A600E4B1A687A
:1051EC00D0075CBF01221A600C4B1A68D1075CBF58
:1051FC0001221A600A4B1A68D2075CBF01221A609E
:10520C00704700BFECE70320E8E70320E4E7032046
:10521C00E0E70320DCE70320D8E70320D4E70320F2
:10522C00D0E7032010B5054C13462CB10A460146B5
:10523C000220AFF3008010BD204610BD000000001E
:10524C0010B5431E0A44914204D011F8014B03F8E7
:10525C00014FF8E710BD02440346934202D003F815
:10526C00011BFAE77047000038B5124B1C68A36BA2
:10527C000546D3B91820FFF713F943F20E33A06398
:10528C0003804AF6CD33438041F2342383804EF2BF
:10529C006D63C3804DF6EC630381052343810B23BF
:1052AC00838101220023C0E90423A36B00221D612A
:1052BC005A6138BD84E30320034611F8012B03F82F
:1052CC00012B002AF9D17047034613F8012B002A51
:1052DC00FBD1181A013870471D400D0059400D00C4
:1052EC0085400D0089400D0000000000726574754A
:1052FC00726E56616C7565000000000000000000C5
:10530C003B450D0031450D0027450D001D450D0099
:10531C0011450D0005450D00F9440D00F1440D003B
:10532C00E7440D00DD440D006D4E0D000000000043
:10533C000000000059450D005B450D00626175646D
:10534C000053657269616C0053657269616C310060
:10535C007479706500706172616D00636D640069D1
:10536C006400686E64007374726D0066696C74001E
:10537C006C766C0061646448616E646C657200727A
:10538C00656D6F766548616E646C657200656E75EF
:10539C006D48616E646C657273004A534F4E537462
:1053AC007265616D4C6F6748616E646C657200610B
:1053BC00707000253031307520005D2000256400B0
:1053CC002C200028293A2000205B00636F646520A4
:1053DC003D200025690064657461696C73203D2073
:1053EC00000D0A0066006C6E00666E00636F6465EB
:1053FC000064657461696C006E6F6E650074726137
:10540C00636500696E666F007761726E006572721B
:10541C006F720070616E696300616C6C005A0025DC
:10542C002B3033643A253032750025592D256D2DDE
:10543C0025645425483A254D3A2553257A00617345
:10544C006374696D6500000000000000000000003E
:10545C0019490D0009490D000B490D000000000011
:10546C0000000000F1490D00414A0D004F4A0D00AB
:10547C00F5460D002D4A0D00F3490D00094A0D00AB
:10548C003B4A0D001F4A0D00ED490D0000000000C5
:10549C00000000005B4B0D00514B0D00474B0D0005
:1054AC00FD4A0D003B4B0D002F4B0D00234B0D0007
:1054BC001B4B0D00114B0D00074B0D006D4E0D00DD
:1054CC000000000000000000954B0D00E54B0D00A6
:1054DC00F34B0D00F5460D00A94B0D00CB4B0D0009
:1054EC00B74B0D00DF4B0D00974B0D009B4B0D0088
:1054FC000000000000000000FF4C0D00F54C0D00FA
:10550C00EB4C0D00E14C0D00D54C0D00C94C0D00C1
:10551C00BD4C0D00B54C0D00AB4C0D00A14C0D005D
:10552C006D4E0D000000000000000000054E0D0047
:10553C000F4E0D00194E0D00234E0D002D4E0D007B
:10554C00394E0D00454E0D00514E0D00594E0D00BB
:10555C00634E0D006D4E0D000000000000000000B9
:10556C00000000000000000000000000000000002F
:10557C00000000000000000000000000000000001F
:10558C00000000000000000000000000000000000F
:10559C0000000000000000000000000000000000FF
:1055AC0000000000000000000000000000000000EF
:1055BC0000000000000000004300000099410D00B5
:1055CC0045450D0091450D00E5460D00D1470D00F8
:1055DC00E1470D0019480D00654B0D00B54D0D0050
:1055EC00394F0D004D4F0D00A14F0D0025500D00F2
:1055FC00E9500D00AD510D0000000000000000004E
:04560C00000000009A
:10561000400000004A540D000000000064550D00D9
:1056200084550D00A4550D0000000000000000008E
:105630000000000000000000C4550D000000000044
:10564000000000000000000000000000000000005A
:10565000000000000000000000000000000000004A
:10566000000000000000000000000000000000003A
:0C567000000000000000000024E3032004
:10567C00FFFFFFFF00000102030405060708090AEB
:10568C000B0C0D0E0F101112131415161718191AE6
:08569C001B1C1D1E1F2028002D
:0456A40078563412EE
:04000003D000401CCD
:00000001FF
