:02000002D0002C
:1040000000400D00285A0D00000006000D000501BB
:0840100004017E050000000020
:0440180040560D0001
:10401C0009480A49884208B505D0094A824202D0AB
:10402C00121A01F0B1FA0748074A0021121A01F0DE
:10403C00B6FA014808BD00BF00E3032090590D00FB
:10404C0070E3032070E30320F0E7032070B500F069
:10405C00FFFC074C074BE41AA40800251E46A5429A
:10406C0004D056F8253098470135F8E770BD00BFED
:10407C0090590D0054590D0000F03AB808B500F0F5
:10408C007BF8BDE8084000F0B1BC00F0B3BA00F01A
:10409C00B1BA0078B0FA80F0400970470123037080
:1040AC00704710687047000038B50E49054600F09F
:1040BC00C4FB044630B10C4B0121188801F0ABF85D
:1040CC00012038BD0949284600F0B7FB30B1064B3A
:1040DC002146188801F09FF8204638BD4FF0FF307C
:1040EC0038BD00BF54560D0004E3032057560D0095
:1040FC0073B500236A461846012408251649009317
:10410C00164EADF80050019400F05CFA00F0BCFDC6
:10411C004FF4165100F0ACFD00F08AFE4FF416512E
:10412C0000F080FE2146308801F064F8214630888A
:10413C0001F071F80A4B019304226B4609490A48B5
:10414C00ADF8005000F02EFA084A0949094800F071
:10415C00AFFC02B070BD00BFC0D4010004E303206B
:10416C00AF400D0084E303205B560D0067560D0035
:10417C00B5400D00914A0D0038B500F059FE0368AA
:10418C001B699847002827DD00F052FE0368154C88
:10419C005B699847144BC1B21860144B0A2919700B
:1041AC0004D0134A23681268934210DB114D124954
:1041BC00284600F0F3FA00F067FD296800F08DFB4B
:1041CC000E490D4800F004FB0223236004E0013388
:1041DC000948236000F024FB0A20BDE8384000F0B9
:1041EC00C7BB00BF98E303209CE3032094E30320A8
:1041FC0000E3032084E3032074E3032057570D00EE
:10420C00F8B50D4F0D4C0E4E0E4D00F02FF83946F3
:10421C00204600F0B0FA20460B4C3246294601F0FD
:10422C0055F83946204600F0A6FA32462946204673
:10423C00BDE8F84001F04AB857570D0074E303206D
:10424C0070E30320F5460D0084E3032008B5024B10
:10425C001B689B68019308BD6802030008B5024BFC
:10426C001B68DB68019308BD6802030008B5024BAC
:10427C001B681B68019308BD2C02030008B5024B98
:10428C001B689B68019308BD2C02030008B5024B08
:10429C001B68DB68019308BD2C02030008B5024BB8
:1042AC001B681B69019308BD2C02030008B5024B67
:1042BC001B68DB69019308BD3002030008B5024B93
:1042CC001B681B6A019308BD3002030008B5024B42
:1042DC001B685B68019308BD1802030008B5024B0C
:1042EC001B685B69019308BD1802030008B5024BFB
:1042FC001B689B68019308BD4802030008B5024B7C
:10430C001B681B69019308BD4802030008B5024BEA
:10431C001B685B69019308BD4802030008B5024B9A
:10432C001B681B6B019308BD4802030008B5024BC8
:10433C001B685B6C019308BD4802030008B5024B77
:10434C001B685B69019308BD6402030008B5024B4E
:10435C001B681B68019308BD3C02030008B5024BA7
:10436C001B68DB68019308BD3C02030008B5024BD7
:10437C001B681B69019308BD3C02030008B5024B86
:10438C001B685B69019308BD3C02030008B5024B36
:10439C001B689B69019308BD3C02030008B5024BE6
:1043AC001B68DB69019308BD3C02030008B5024B96
:1043BC001B681B6A019308BD3C02030008B5024B45
:1043CC001B689B6A019308BD3C02030008B5024BB5
:1043DC001B68DB6A019308BD3C02030008B5024B65
:1043EC001B681B6A019308BD2802030008B5024B29
:1043FC001B685B6A019308BD2802030008B5024BD9
:10440C001B689B6A019308BD2802030008B5024B88
:10441C001B68DB6A019308BD2802030008B5024B38
:10442C001B681B6B019308BD2802030008B5024BE7
:10443C001B685B6B019308BD2802030008B5024B97
:10444C001B681B6C019308BD2802030008B5024BC6
:10445C001B681B68019308BD4C02030008B5024B96
:10446C001B685B68019308BD4C02030008B5024B46
:10447C001B681B69019308BD4C02030008B5024B75
:10448C001B685B69019308BD4C02030008B5024B25
:10449C001B689B69019308BD4C02030008B5024BD5
:1044AC001B68DB69019308BD4C02030008B5024B85
:1044BC001B681B6A019308BD4C02030008B5024B34
:1044CC001B685B68019308BD2002030008B5024B12
:1044DC001B685B69019308BD2002030008B5034B00
:1044EC001B68D3F88830019308BD0000200203003C
:1044FC0008B5034B1B68D3F89430019308BD00003A
:10450C002002030008B5024B1B685B68019308BDD1
:10451C004002030008B5024B1B689B68019308BD61
:10452C004002030008B5024B1B68DB68019308BD11
:10453C004002030008B5024B1B681B69019308BDC0
:10454C004002030008B5024B1B685B69019308BD70
:10455C004002030008B5024B1B689B69019308BD20
:10456C004002030008B5024B1B68DB69019308BDD0
:10457C004002030008B5024B1B681B6A019308BD7F
:10458C004002030008B5024B1B681B6B019308BD6E
:10459C004002030008B5024B1B685B6B019308BD1E
:1045AC004002030008B5024B1B681B68019308BD51
:1045BC004402030008B5024B1B685B68019308BDFD
:1045CC004402030008B5024B1B689B6B019308BDAA
:1045DC004402030008B5024B1B68DB6B019308BD5A
:1045EC004402030008B5024B1B681B68019308BD0D
:1045FC001C02030008B5024B1B685B68019308BDE5
:10460C001C02030008B5024B1B689B68019308BD94
:10461C001C020300002211464068FFF7ABBF0022CA
:10462C0011464068FFF7B6BF00224068FFF7AABFEB
:10463C00002281F001014068FFF794BF00231A4665
:10464C0019464068FFF786BF00231A461946406892
:10465C00FFF778BF002211464068FFF76BBF0022BE
:10466C0011464068FFF756BF002202214068FFF751
:10467C0059BF00231A464068FFF744BF024B032280
:10468C005A60024A1A607047A0E3032074560D006A
:10469C00704710B51021044600F01DFE204610BDD9
:1046AC0070B5084B0360044600250E4640F80C5FBD
:1046BC00FFF734FE30462671FFF7F8FDA560204663
:1046CC0070BD00BFA8560D000079FFF7F7BD0000C4
:1046DC00044B00204FF6FF72187058809A80FFF739
:1046EC00EDBE00BFA8E3032010B504460068FFF739
:1046FC0081FF204610BD10B50446006808B1FFF7D5
:10470C0079FF00232360A360636010BD38B50446B5
:10471C000D4600680131FFF775FF10B184E82100E8
:10472C00012038BD10B50368044613B143688B42B1
:10473C0007D22046FFF7EAFF20B1A3680BB9226825
:10474C001370012010BD70B50E4611460446154677
:10475C00FFF7E8FF18B92046FFF7CDFF09E02A461E
:10476C003146A560206800F00FFF2268A368002185
:10477C00D154204670BD38B5002304460360436015
:10478C00836003730D4639B1084600F04BFF294690
:10479C0002462046FFF7D7FF204638BD884210B5A9
:1047AC000B46044607D0096819B19A68FFF7CBFF8E
:1047BC0001E0FFF7A0FF204610BD10B50023044612
:1047CC000360436083600373FFF7E8FF204610BD6E
:1047DC0038B505460C4641B1084600F023FF21468A
:1047EC0002462846FFF7AFFF01E0FFF784FF28469B
:1047FC0038BD70B504460E4609B9002070BD6AB1CB
:10480C008368D5182946FFF78DFF0028F5D020685E
:10481C00A3683146184400F0FDFEA560012070BD70
:10482C0007B500238DF80410012201A98DF805307D
:10483C00FFF7DFFF03B05DF804FB08B582680B4699
:10484C0012B919B9012008BD11B90368187802E032
:10485C00006800F0D5FEB0FA80F0400908BD0000F9
:10486C00024800230360FFF761BD00BFB0E30320E3
:10487C00F8B506460D468F180024BD420CD033689F
:10488C0015F8011B9B6830469847002801DB04444F
:10489C00F3E7002C08BF04462046F8BD70B505466A
:1048AC000C46084649B100F0BDFE2B680246214675
:1048BC002846DB68BDE87040184770BD03689B68EC
:1048CC00184738B50D210546FFF7F8FF0A210446B5
:1048DC002846FFF7F3FF204438BD38B50546FFF7EF
:1048EC00DDFF04462846FFF7ECFF204438BD30B509
:1048FC008BB00B4600218DF82410012A98BF0A2298
:10490C000DF12304B3FBF2F505FB123303F0FF03A7
:10491C00092B94BF30333733DBB2214604F801390D
:10492C002B46002DEED1FFF7B9FF0BB030BD10B404
:10493C002AB903685DF8044B9B68C9B21847D2B218
:10494C005DF8044BFFF7D3BFFFF7F1BF014B024AF1
:10495C001A607047B4E3032023570D00024B1A680A
:10496C00024B1A60704700BF08E30320B8E3032032
:10497C000021FFF7ABBD10B58368044613B10322C9
:10498C0001469847204610BD10B50446FFF7F3FFCB
:10499C00204610BD0348044A04490023836000F0FC
:1049AC0095BC00BFBCE3032070E3032095490D00C8
:1049BC0008B50C4B33B100F067F903681B699847D5
:1049CC00002809DC084B63B100F032FA03681B695C
:1049DC009847002803DC08BDAFF30080F2E7AFF383
:1049EC00008008BD000000000000000008B5FFF7C3
:1049FC00DFFFFFF773FC014B186008BD34E70320A1
:104A0C0007B5002300931A466FF07701FFF770FD8E
:104A1C0003B05DF804FB000007B543880A2B08D0EF
:104A2C00502B09D1094B1B683BB103B05DF804EB6B
:104A3C001847FFF7E5FF06E0002300931A466FF0D6
:104A4C007701FFF755FD03B05DF804FBCCE30320C1
:104A5C0010B5FFF73BFC044600F0AAFD074B13B161
:104A6C002046AFF3008000210448FFF7B3FD00217E
:104A7C000348BDE81040FFF731BD00BF0000000047
:104A8C00254A0D0010B588B004466846FFF773FE42
:104A9C00694604A8FFF791FE04A8A047044604A8A1
:104AAC00FFF722FE6846FFF71FFE204608B010BD38
:104ABC00F0B5102485B007460E4615460021224657
:104ACC00684600F06CFD002269461046ADF80040C7
:104ADC00029703960195FFF76DFD05B0F0BD704789
:104AEC0010B51821044600F0F6FB204610BDF0B5B9
:104AFC00037D062B8DB00E4600F104074FF0000429
:104B0C0002D000F1080518E00CAD394605F8304D1F
:104B1C002F232A460A20FFF711FC284600F082FDBD
:104B2C0033680246DB682946304698470FE024B1CB
:104B3C002E213046FFF7C2FE044415F8011D0A224F
:104B4C003046FFF701FFBD420444F0D120460DB0C2
:104B5C00F0BD000010B5054B0446112240F8043B93
:104B6C00002100F01CFD204610BD00BFC0570D00F9
:104B7C000346074A10B543F8042B01F1100251F813
:104B8C00044B43F8044B9142F9D10A781A7010BDCA
:104B9C00C0570D0010B59DF8084044EA032343EAC2
:104BAC00024242EA016104234160037510BD37B52E
:104BBC000D788B784A78C97800912946FFF7EAFF7F
:104BCC0003B030BD41747047704708B50021007CBC
:104BDC00FFF75CFC30EA200028BF4FF0FF3008BD27
:104BEC0008B50121007CFFF751FC30EA200028BFFA
:104BFC004FF0FF3008BD08B5007CFFF73FFC20EA02
:104C0C00E07008BD08B5007CFFF730FC20EAE070CE
:104C1C0008BD007CFFF74ABC10B51421044600F017
:104C2C005AFB204610BD38B50446007C0D46FFF7F4
:104C3C0025FC002801DC607C28B12946207CFFF78C
:104C4C002DFC20EAE07038BD10B5044600236360EB
:104C5C004FF47A73A360054B23600123084621743B
:104C6C0063741146FFF7F2FB204610BDD4570D00BC
:104C7C000022007CFFF7F2BB10B514220446002181
:104C8C0000F08DFC204610BD30B50E4D87B001A84C
:104C9C00FFF7F2FF296811F0010410D12846FFF745
:104CAC00F8F960B101AA21460748FFF7CDFF284665
:104CBC00FFF7F4F9054A0649034800F007FB0248E0
:104CCC0007B030BDD0E30320D4E3032070E303200E
:104CDC00D54B0D00002211464068FFF72BBC00227B
:104CEC0011464068FFF746BC002211464068FFF7AA
:104CFC0051BC00224068FFF745BC002281F0010145
:104D0C004068FFF72FBC00231A4619464068FFF78E
:104D1C0021BC00231A4619464068FFF713BC002239
:104D2C0011464068FFF7F6BB002202214068FFF7EE
:104D3C00F9BB00231A464068FFF7E4BB38B5084CB2
:104D4C0028252A460021204600F029FC4FF0FF338D
:104D5C006360044B258004225A60034A1A6038BDF4
:104D6C00F0E30320E8E3032004580D00704741747E
:104D7C00704708B5007CFFF721FB20EAE07008BD06
:104D8C0008B5007CFFF7F2FA20EAE07008BD08B520
:104D9C00007CFFF7FBFA30EA200028BF4FF0FF3011
:104DAC0008BD08B5007CFFF7E9FA30EA200028BFFF
:104DBC004FF0FF3008BD007CFFF7F0BA10B514219E
:104DCC00044600F088FA204610BD70B5457C0446B8
:104DDC000E4625B9007CFFF7F1FA002805DD3146B7
:104DEC00207CBDE87040FFF7B9BA284670BD0000C2
:104DFC0010B5044608461146002262604FF47A72E0
:104E0C00A260054A22600122207462741A46FFF7E0
:104E1C009DFA204610BD00BF38580D000023007CC1
:104E2C00FFF7D4BA0022FFF7F9BF007CFFF7BEBA38
:104E3C0038B50C4D296811F0010411D12846FFF743
:104E4C0028F968B1084A094B09482146FFF7D0FFF9
:104E5C002846FFF723F9074A0749054800F036FAB8
:104E6C00034838BDB0E40320B4E403202CE4032051
:104E7C0018E4032070E30320794D0D007047F8B55A
:104E8C00064615460C468F18BC4206D0336814F8FB
:104E9C00011B9B6830469847F6E72846F8BD002270
:104EAC00007CFFF79BBA0021007CFFF79FBA002122
:104EBC00007CFFF7A3BA0021007CFFF7A7BA002102
:104ECC00007CFFF7ABBA10B51421044600F003FACE
:104EDC00204610BD10B504464FF47A730846A36003
:104EEC000021044B207461602360FFF7A7FA204671
:104EFC0010BD00BF68580D000021007CFFF796BA6A
:104F0C00002211464068FFF735BB0022114640686D
:104F1C00FFF740BB00224068FFF734BB002281F052
:104F2C0001014068FFF71EBB00231A4601214068AF
:104F3C00FFF710BB00231A4619464068FFF702BB67
:104F4C00002211464068FFF7F5BA0022114640686E
:104F5C00FFF7E0BA002202214068FFF7E3BA002312
:104F6C001A464068FFF7CEBA38B5054688B10468D2
:104F7C004CB1A3681BB1032221462046984710214F
:104F8C00204600F0A8F928461421BDE8384000F06E
:104F9C00A2B938BD10B103685B681847704710B5EB
:104FAC0003680446BBB15868FFF7A0F978B92368C9
:104FBC005A7C12B95868FFF7A1F923685868FFF7B3
:104FCC00A5F920680023236028B1FFF7CDFF2068E6
:104FDC0008B1FFF7C9FF204610BD000038B50C4BD7
:104FEC0003600446D0F8CC0108B1FFF750F8D4F8B0
:104FFC00C45135B12846FFF7D2FF0421284600F0F2
:10500C006AF9A06808B1FFF7C5FF204638BD00BF9C
:10501C0090580D0038B50E4C0E4B23600025022322
:10502C0004F5E4706360A560C4F8C451C4F8C851B9
:10503C00FFF77CF9084BC4F8CC5184F8D0512360AD
:10504C002046064A0649BDE8384000F03FB900BF8B
:10505C0038E50320C4580D0090580D0070E3032070
:10506C00E94F0D0000231A464068FFF74BBA0022A7
:10507C0002214068FFF756BA002211464068FFF73C
:10508C0049BA002211464068FFF754BA00231A4669
:10509C0019464068FFF756BA00231A46194640686D
:1050AC00FFF758BA002281F001014068FFF75ABAA5
:1050BC0000224068FFF766BA002211464068FFF7ED
:1050CC0069BA002211464068FFF754BA2DE9F04343
:1050DC00002495B016460D460746FFF73BFD2146CA
:1050EC0020220CA8009400F05AFA40230C9321467D
:1050FC006B460CAA3046FFF7B1F80446002844D1A1
:10510C00024601216868FFF715FA02218046224603
:10511C006868FFF70FFA009E81462146002E34D0B6
:10512C00002932D17368022B02D00A2B09D02AE055
:10513C00B8F1000F27D0716938460431FFF737FDFD
:10514C0020E0B9F1000F1ED07469112201A800F003
:10515C0026FA06238DF8143001AD04F10803183437
:10516C00186859682A4603C20833A3421546F7D17A
:10517C0001A906A807ADFFF7FBFC0FCD3C1D0FC422
:10518C002B6823700121F669C8E70098FFF75EF8D9
:10519C00384615B0BDE8F083024B034A1A60002272
:1051AC005A6070470CE70320C4580D0010B5044634
:1051BC000F48FFF789FA28B1A4F10B03022B01D891
:1051CC00002010BD00F062F8FFF796FE08B1012C2C
:1051DC00F6D9FFF72DFEFFF728FE18B1A4F109034D
:1051EC00012BEDD9232C8CBF0020012010BD00BF5A
:1051FC0014E70320232838B504460D460AD8FF29A6
:10520C0008D0FFF7D3FF28B129462046BDE8384027
:10521C00FFF734B838BD38B504460D46FFF736F8FD
:10522C00FF2810D0062804D84D2323FA00F0C3071A
:10523C0009D42046FFF7BAFF28B129462046BDE81D
:10524C003840FFF72BB838BD70B50C4C0C4E0D4DDB
:10525C0000212046FFF724FA20460B4C3246294603
:10526C0000F034F801212046FFF71AFA324629469D
:10527C002046BDE8704000F029B800BF14E70320B9
:10528C0070E303209D460D0024E7032038B50B4D39
:10529C00296811F001040FD12846FEF7FAFE58B127
:1052AC0021460748FFF716FE2846FEF7F7FE054A8B
:1052BC000549034800F00AF8014838BD38E70320D7
:1052CC003CE7032070E30320894E0D000B4601469A
:1052DC00184600F04BB9FEF7D8BE0000184B1A6800
:1052EC00D1075CBF01221A60164B1A68D2075CBF4B
:1052FC0001221A60144B1A68D0075CBF01221A6095
:10530C00124B1A68D1075CBF01221A60104B1A6845
:10531C00D2075CBF01221A600E4B1A68D0075CBF23
:10532C0001221A600C4B1A68D1075CBF01221A606B
:10533C000A4B1A68D2075CBF01221A60704700BF83
:10534C006CE7032068E7032064E7032060E7032091
:10535C005CE7032058E7032054E7032050E70320C1
:10536C00244B1A68D0075CBF01221A60224B1A68C2
:10537C00D1075CBF01221A60204B1A68D2075CBFB0
:10538C0001221A601E4B1A68D0075CBF01221A60FA
:10539C001C4B1A68D1075CBF01221A601A4B1A68A1
:1053AC00D2075CBF01221A60184B1A68D0075CBF89
:1053BC0001221A60164B1A68D1075CBF01221A60D1
:1053CC00144B1A68D2075CBF01221A60124B1A6880
:1053DC00D0075CBF01221A60104B1A68D1075CBF62
:1053EC0001221A600E4B1A68D2075CBF01221A60A8
:1053FC00704700BF9CE7032098E7032094E7032045
:10540C0090E703208CE7032088E7032084E7032040
:10541C0080E703207CE7032078E7032074E7032070
:10542C0070E70320244B1A68D0075CBF01221A6076
:10543C00224B1A68D1075CBF01221A60204B1A68F4
:10544C00D2075CBF01221A601E4B1A68D0075CBFE2
:10545C0001221A601C4B1A68D1075CBF01221A602A
:10546C001A4B1A68D2075CBF01221A60184B1A68D3
:10547C00D0075CBF01221A60164B1A68D1075CBFBB
:10548C0001221A60144B1A68D2075CBF01221A6001
:10549C00124B1A68D0075CBF01221A60104B1A68B5
:1054AC00D1075CBF01221A600E4B1A68D2075CBF91
:1054BC0001221A60704700BFCCE70320C8E7032025
:1054CC00C4E70320C0E70320BCE70320B8E70320B0
:1054DC00B4E70320B0E70320ACE70320A8E70320E0
:1054EC00A4E70320A0E70320184B1A68D1075CBF80
:1054FC0001221A60164B1A68D2075CBF01221A608F
:10550C00144B1A68D0075CBF01221A60124B1A6840
:10551C00D1075CBF01221A60104B1A68D2075CBF1E
:10552C0001221A600E4B1A68D0075CBF01221A6068
:10553C000C4B1A68D1075CBF01221A600A4B1A681F
:10554C00D2075CBF01221A60704700BFECE7032052
:10555C00E8E70320E4E70320E0E70320DCE703208F
:10556C00D8E70320D4E70320D0E7032010B5054C7F
:10557C0013462CB10A4601460220AFF3008010BD41
:10558C00204610BD0000000010B5431E0A44914295
:10559C0004D011F8014B03F8014FF8E710BD024499
:1055AC000346934202D003F8011BFAE77047000050
:1055BC0038B5124B1C68A36B0546D3B91820FFF7FE
:1055CC0011F843F20E33A06303804AF6CD334380C7
:1055DC0041F2342383804EF26D63C3804DF6EC634D
:1055EC000381052343810B23838101220023C0E91E
:1055FC000423A36B00221D615A6138BD6CE30320A8
:10560C0010F8012B11F8013B012A28BF9A42F7D060
:10561C00D01A7047034611F8012B03F8012B002A0E
:10562C00F9D17047034613F8012B002AFBD1181A45
:10563C00013870471D400D0059400D0085400D008C
:10564C0089400D00000000006F6E006F66660072EE
:10565C00657475726E56616C7565006C65640000DE
:10566C0000000000000000007F460D0075460D0094
:10567C006B460D0061460D0055460D0049460D0068
:10568C003D460D0035460D002B460D0021460D0004
:10569C00D9500D0000000000000000009D460D00D8
:1056AC009F460D00626175640053657269616C0000
:1056BC0053657269616C3100747970650070617248
:1056CC00616D00636D6400696400686E64007374DE
:1056DC00726D0066696C74006C766C006164644871
:1056EC00616E646C65720072656D6F766548616E93
:1056FC00646C657200656E756D48616E646C657284
:10570C0073004A534F4E53747265616D4C6F67480A
:10571C00616E646C6572006170700025303130759B
:10572C0020005D20002564002C200028293A200050
:10573C00205B00636F6465203D2000256900646573
:10574C007461696C73203D20000D0A006C6E00665C
:10575C006E00636F64650064657461696C006E6FE4
:10576C006E6500747261636500696E666F007761C7
:10577C00726E006572726F720070616E69630061A7
:10578C006C6C005A00252B3033643A25303275008E
:10579C0025592D256D2D25645425483A254D3A253E
:1057AC0053257A0061736374696D65000000000015
:1057BC0000000000FB4A0D00EB4A0D00ED4A0D0005
:1057CC000000000000000000D54B0D00254C0D0022
:1057DC00334C0D007D480D00114C0D00D74B0D00C6
:1057EC00ED4B0D001F4C0D00034C0D00D14B0D006B
:1057FC0000000000000000003F4D0D00354D0D0075
:10580C002B4D0D00E14C0D001F4D0D00134D0D00E7
:10581C00074D0D00FF4C0D00F54C0D00EB4C0D0031
:10582C00D9500D000000000000000000794D0D0063
:10583C00C94D0D00D74D0D007D480D008D4D0D004F
:10584C00AF4D0D009B4D0D00C34D0D007B4D0D005C
:10585C007F4D0D000000000000000000894E0D007F
:10586C00D34E0D00AB4E0D008B4E0D00B34E0D0004
:10587C00BB4E0D00C34E0D00CB4E0D0000000000C2
:10588C00000000006B4F0D00614F0D00574F0D00D5
:10589C004D4F0D00414F0D00354F0D00294F0D00A0
:1058AC00214F0D00174F0D000D4F0D00D9500D005D
:1058BC00000000000000000071500D007B500D0036
:1058CC0085500D008F500D0099500D00A5500D0006
:1058DC00B1500D00BD500D00C5500D00CF500D0046
:1058EC00D9500D0000000000000000000000000076
:1058FC00000000000000000000000000000000009C
:10590C00000000000000000000000000000000008B
:10591C00000000000000000000000000000000007B
:10592C00000000000000000000000000000000006B
:10593C00000000000000000000000000000000005B
:10594C0000000000430000000D420D0089460D00D0
:10595C00DD460D006D480D0059490D0069490D00DB
:10596C00A1490D00494D0D0021500D00A5510D0010
:10597C0055520D00E9520D006D530D0031540D00C0
:04598C00F5540D00C1
:105990004000000006000000B0570D0000000000AD
:1059A000F0580D0010590D0030590D000000000096
:1059B00000000000000000000000000050590D0031
:1059C00000000000000000000000000000000000D7
:1059D00000000000000000000000000000000000C7
:1059E00000000000000000000000000000000000B7
:1059F0000000000000000000000000000CE3032095
:105A0000FFFFFFFF00000102030405060708090A63
:105A10000B0C0D0E0F101112131415161718191A5E
:085A20001B1C1D1E1F202800A5
:045A28007856341266
:04000003D000401CCD
:00000001FF
