:02000002D0002C
:1040000000400D0048670D00000006000D0005018E
:0840100004017E050000000020
:0440180030610D0006
:10401C0009480A49884208B505D0094A824202D0AB
:10402C00121A01F07DFF0748074A0021121A01F00D
:10403C0082FF014808BD00BF1CE20320B0660D00E2
:10404C008CE203208CE20320F0E7032070B500F033
:10405C00A1FF074C074BE41AA40800251E46A542F5
:10406C0004D056F8253098470135F8E770BD00BFED
:10407C00A8660D006C660D0000F008B908B500F0DC
:10408C003BF8BDE8084000F053BF00F09FBC00F0C7
:10409C00A5BC00F0A3BC0078B0FA80F040097047D2
:1040AC0001230370704710687047000008B505497C
:1040BC0000F04AFE28B101F01DFC034900F09FFE00
:1040CC00012008BDDE620D0044610D0038B50468A6
:1040DC0005467CB16368013B63605BB9236820468D
:1040EC009B689847A368013BA3601BB923682046D3
:1040FC00DB689847284638BD10B5454B1A68012A2D
:10410C0086B00CD1022243491A6002A800F082FD4D
:10411C0002A8FFF7CBFF02A800F035FD11E0032A3F
:10412C000FD100221A603C4B3C491A683C4B1B785F
:10413C008DF8003002A83C2301F0B4F803A8FFF777
:10414C00C5FF01F0D7FB03681B69984700285ADDAF
:10415C0001F0D0FB0368334C5B699847324B2070FD
:10416C00186001F0F5FA217800F03AFE21782F4C16
:10417C003A2903D02368B3F57A7F05DB2C4800F08D
:10418C00F5FD2C4B186032E00A2937D1294B1B68FE
:10419C000B2B2CD8DFE803F006090C0F1215181B9B
:1041AC001E212427224924481FE0214923481CE0D2
:1041BC001F49234819E01E49224816E01C49224891
:1041CC0013E01B49214810E0194921480DE018491A
:1041DC0020480AE01649204807E015491F4804E02A
:1041EC0013491F4801E012491E4800F026FD1E49E4
:1041FC000F4800F03CFD0023236004E001330C4821
:10420C00236000F082FD052000F044FE06B010BDD6
:10421C00C4E20320DE620D0060E3032046610D0062
:10422C0028E3032090E303204CE3032090E20320D7
:10423C0018E3032094E30320F8E20320A8E303200F
:10424C0080E3032094E2032098E30320B4E20320EC
:10425C002CE30320A4E203203CE3032070E30320BF
:10426C0008E3032050E3032073630D0007B5082314
:10427C00ADF80030044B019304226B4600F076FB42
:10428C0003B05DF804FB00BFB3400D0010B58AB05D
:10429C00002408230694ADF81830012306AA7449AB
:1042AC0007932046234600F081FB01F051FA4FF4AE
:1042BC00165101F041FA01F01DFB4FF4165101F0BB
:1042CC0015FB6C496C48FFF7D1FF6C496C48FFF744
:1042DC00CDFF6C496C48FFF7C9FF6C496C48FFF780
:1042EC00C5FF6C496C48FFF7C1FF6C496C48FFF780
:1042FC00BDFF6C496C48FFF7B9FF6C496C48FFF780
:10430C00B5FF6C496C48FFF7B1FF6C496C48FFF77F
:10431C00ADFF6C496C48FFF7A9FF6C496C48FFF77F
:10432C00A5FF234602226B496B4800F01FFB0222BB
:10433C006A496B48234600F019FB6A4A6A496B4884
:10434C0000F0A0FE0A22214602A800F0A1FC02A95E
:10435C0006A800F081FC664906A800F0E3FC0146C3
:10436C00644800F0BFFC06A800F00DFC02A800F0A9
:10437C000AFC631E0A2B07D8DFE803F00C12181E88
:10438C00242A30363C4248005B495A4800F0AEFCC7
:10439C00384B40E05949574800F0A8FC374B3AE0FD
:1043AC005749544800F0A2FC364B34E0554951486B
:1043BC0000F09CFC354B2EE053494E4800F096FC27
:1043CC00344B28E051494B4800F090FC334B22E031
:1043DC004F49484800F08AFC324B1CE04D49454897
:1043EC0000F084FC314B16E04B49424800F07EFC57
:1043FC00304B10E049493F4800F078FC2F4B0AE065
:10440C0047493C4800F072FC2E4B04E045493948C2
:10441C0000F06CFC2D4B444A42F8243001340C2C37
:10442C0090D10A22214602A800F032FC02A906A86B
:10443C0000F012FC3D492F4C06A800F073FC01461D
:10444C00204600F04FFC06A800F09DFB02A800F0EF
:10445C009AFB374B22681B788DF8003035493C238A
:10446C0006A800F01FFF07A8FFF730FE0AB010BD2A
:10447C00C0D40100F8E2032051610D00A8E3032031
:10448C0059610D0080E3032061610D0094E203206B
:10449C0068610D0098E3032070610D00B4E2032005
:1044AC007B610D002CE3032084610D00A4E203204A
:1044BC0089610D003CE303208F610D0070E3032044
:1044CC0093610D0008E30320A2610D0050E303206B
:1044DC00AB610D001CE20320B3610D00C4E20320AC
:1044EC00BB610D00C4610D00B9400D0065500D009D
:1044FC00CF610D0060E30320D3610D00DC610D0082
:10450C00E5610D00EF610D00FA610D000E620D000A
:10451C0018620D001E620D0025620D002A620D004E
:10452C0044620D004E620D00C8E2032057620D007C
:10453C0028E3032046610D00F8B54B4B4B4E4C4F16
:10454C004C4D4D4C01221A7000F0C4F831463846DF
:10455C0000F060FB3846494F2A46214601F07CFBAF
:10456C003146384600F056FB3846454F2A46214620
:10457C0001F072FB3146384600F04CFB3846414F97
:10458C002A46214601F068FB3146384600F042FBD2
:10459C0038463D4F2A46214601F05EFB31463846EF
:1045AC0000F038FB3846394F2A46214601F054FBBF
:1045BC003146384600F02EFB3846354F2A46214608
:1045CC0001F04AFB3146384600F024FB3846314FA7
:1045DC002A46214601F040FB3146384600F01AFBD2
:1045EC0038462D4F2A46214601F036FB31463846D7
:1045FC0000F010FB3846294F2A46214601F02CFBCF
:10460C003146384600F006FB3846254F2A462146EF
:10461C0001F022FB3146384600F0FCFA3846214FB7
:10462C002A46214601F018FB3146384600F0F2FAD2
:10463C0038461D4F2A46214601F00EFB31463846BE
:10464C001A4E00F0E7FA2A462146384601F004FBE0
:10465C001749304600F0DEFA2A4621463046BDE8BE
:10466C00F84001F0F9BA00BF28E3032073630D0092
:10467C00F8E203208CE20320934B0D00A8E3032007
:10468C0080E3032094E2032098E30320B4E20320A8
:10469C002CE30320A4E203203CE3032070E303207B
:1046AC0008E3032050E3032018E3032060E3032016
:1046BC005E620D0008B5024B1B689B68019308BD38
:1046CC006802030008B5024B1B68DB68019308BD48
:1046DC006802030008B5024B1B681B68019308BDF8
:1046EC002C02030008B5024B1B68DB69019308BD63
:1046FC003002030008B5024B1B685B68019308BDD0
:10470C001802030008B5024B1B685B69019308BDD6
:10471C001802030008B5024B1B689B68019308BD87
:10472C004802030008B5024B1B681B69019308BDC6
:10473C004802030008B5024B1B685B69019308BD76
:10474C004802030008B5024B1B681B6B019308BDA4
:10475C004802030008B5024B1B685B6C019308BD53
:10476C004802030008B5024B1B685B69019308BD46
:10477C006402030008B5024B1B681B68019308BD5B
:10478C003C02030008B5024B1B68DB68019308BDB3
:10479C003C02030008B5024B1B681B69019308BD62
:1047AC003C02030008B5024B1B685B69019308BD12
:1047BC003C02030008B5024B1B689B69019308BDC2
:1047CC003C02030008B5024B1B68DB69019308BD72
:1047DC003C02030008B5024B1B689B6A019308BDA1
:1047EC003C02030008B5024B1B68DB6A019308BD51
:1047FC003C02030008B5024B1B681B68019308BD03
:10480C004C02030008B5024B1B685B68019308BDA2
:10481C004C02030008B5024B1B681B69019308BDD1
:10482C004C02030008B5024B1B685B69019308BD81
:10483C004C02030008B5024B1B689B69019308BD31
:10484C004C02030008B5024B1B68DB69019308BDE1
:10485C004C02030008B5024B1B681B6A019308BD90
:10486C004C02030008B5024B1B685B68019308BD42
:10487C002002030008B5024B1B685B69019308BD5D
:10488C002002030008B5024B1B68DB6C019308BDCA
:10489C002002030008B5024B1B685B6D019308BD39
:1048AC002002030008B5034B1B68D3F88830019332
:1048BC0008BD00002002030008B5034B1B68D3F8A9
:1048CC009430019308BD00002002030008B5024B90
:1048DC001B685B68019308BD4002030008B5024BDE
:1048EC001B689B68019308BD4002030008B5024B8E
:1048FC001B68DB68019308BD4002030008B5024B3E
:10490C001B681B69019308BD4002030008B5024BEC
:10491C001B685B69019308BD4002030008B5024B9C
:10492C001B689B69019308BD4002030008B5024B4C
:10493C001B68DB69019308BD4002030008B5024BFC
:10494C001B681B6A019308BD4002030008B5024BAB
:10495C001B681B6B019308BD4002030008B5024B9A
:10496C001B685B6B019308BD4002030008B5024B4A
:10497C001B681B68019308BD4402030008B5024B79
:10498C001B685B68019308BD4402030008B5024B29
:10499C001B685B69019308BD4402030008B5024B18
:1049AC001B681B6A019308BD4402030008B5024B47
:1049BC001B689B6B019308BD4402030008B5024BB6
:1049CC001B68DB6B019308BD4402030008B5024B66
:1049DC001B681B68019308BD1C02030008B5024B41
:1049EC001B685B68019308BD1C02030008B5024BF1
:1049FC001B689B68019308BD1C02030008B5024BA1
:104A0C001B68DB6A019308BD1C02030008B5024B4E
:104A1C001B681B6B019308BD1C020300002211468E
:104A2C004068FFF78BBF002211464068FFF796BF26
:104A3C0000224068FFF78ABF002281F00101406824
:104A4C00FFF774BF00231A4619464068FFF766BF8C
:104A5C0000231A4619464068FFF758BF002211463A
:104A6C004068FFF74BBF002211464068FFF736BF86
:104A7C00002202214068FFF739BF00231A46406824
:104A8C00FFF724BF024B03225A60024A1A60704798
:104A9C00B8E3032090620D00704710B51021044656
:104AAC0001F0DFF8204610BD70B5084B03600446DA
:104ABC0000250E4640F80C5FFFF744FE3046267189
:104ACC00FFF710FEA560204670BD00BFC4620D004C
:104ADC00044B00204FF6FF72187058809A80FFF735
:104AEC00C1BE00BFC0E3032010B5044601F081FA3B
:104AFC00013823182046984206D20278197800F81B
:104B0C00011B03F80129F6E710BD70B50C46911E88
:104B1C00222920D82546294610B9234430220EE0FC
:104B2C00B0FBF2F602FB1600C1B205F8011B092816
:104B3C0094BF3031573105F8011C3046EBE79942F0
:104B4C0002D201F8012BFAE7002320460B70FFF785
:104B5C00CBFF204670BD002070BD38B5031E0C463F
:104B6C0015460BDAB3F1004F4FF02D0214BF58422B
:104B7C00184601230A702A46194400E00123FFF766
:104B8C00C4FF204638BD10B504460068FFF726FF69
:104B9C00204610BD10B50446006808B1FFF71EFF93
:104BAC0000232360A360636010BD38B504460D4636
:104BBC0000680131FFF71AFF10B184E821000120D1
:104BCC0038BD10B50368044613B143688B4207D255
:104BDC002046FFF7EAFF20B1A3680BB922681370D7
:104BEC00012010BD70B50E46114604461546FFF760
:104BFC00E8FF18B92046FFF7CDFF09E02A463146F9
:104C0C00A560206801F08CF92268A3680021D154BA
:104C1C00204670BD38B500230446036043608360B2
:104C2C0003730D4639B1084601F0E3F929460246F3
:104C3C002046FFF7D7FF204638BD884210B50B46FB
:104C4C00044607D0096819B19A68FFF7CBFF01E059
:104C5C00FFF7A0FF204610BD10B5002304460360EB
:104C6C00436083600373FFF7E8FF204610BD38B53F
:104C7C0005460C4641B1084601F0BBF921460246F7
:104C8C002846FFF7AFFF01E0FFF784FF284638BD49
:104C9C0010B5044600238AB023606360A3602373BD
:104CAC00084601A9FFF759FF01A92046FFF7DFFFCE
:104CBC0020460AB010BD70B504460E4609B9002056
:104CCC0070BD6AB18368D5182946FFF77AFF0028B2
:104CDC00F5D02068A3683146184401F067F9A56047
:104CEC00012070BD8A680968FFF7E5BF38B5054635
:104CFC000C46084641B101F07CF921460246284693
:104D0C00BDE83840FFF7D7BF38BD07B500238DF895
:104D1C000410012201A98DF80530FFF7CCFF03B078
:104D2C005DF804FB38B504460D4641B1084601F068
:104D3C0060F9294602462046FFF7BDFF10B9204610
:104D4C00FFF728FF204638BD08B582680B4612B91C
:104D5C0019B9012008BD11B90368187802E0006880
:104D6C0001F01AF9B0FA80F0400908BD006808B1EA
:104D7C0001F0C4B870470B68036013B15A68013274
:104D8C005A607047024800230360FFF7E3BC00BF82
:104D9C00C8E30320F8B506460D468F180024BD4223
:104DAC000CD0336815F8011B9B68304698470028D7
:104DBC0001DB0444F3E7002C08BF04462046F8BD91
:104DCC0070B505460C46084649B101F012F92B683E
:104DDC00024621462846DB68BDE87040184770BD86
:104DEC0003689B68184738B50D210546FFF7F8FF97
:104DFC000A2104462846FFF7F3FF204438BD38B596
:104E0C000546FFF7DDFF04462846FFF7ECFF20447C
:104E1C0038BD30B58BB00B4600218DF82410012A1B
:104E2C0098BF0A220DF12304B3FBF2F505FB1233F4
:104E3C0003F0FF03092B94BF30333733DBB2214629
:104E4C0004F801392B46002DEED1FFF7B9FF0BB05A
:104E5C0030BD10B42AB903685DF8044B9B68C9B225
:104E6C001847D2B25DF8044BFFF7D3BFFFF7F1BF81
:104E7C00014B024A1A607047CCE303203F630D00DC
:104E8C00024B1A68024B1A60704700BF20E20320E5
:104E9C00D0E303200021FFF7EDBC10B58368044676
:104EAC0013B1032201469847204610BD10B50446A5
:104EBC00FFF7F3FF204610BD13B50B46044603C89D
:104ECC008DE8030093E8030084E803009DE80300E9
:104EDC0083E8030002B010BD0348044A04490023D0
:104EEC00836000F0B9BE00BFD4E303208CE2032042
:104EFC00B94E0D0008B50C4B33B100F029FC03681A
:104F0C001B699847002809DC084B63B100F0F2FCE0
:104F1C0003681B699847002803DC08BDAFF30080C9
:104F2C00F2E7AFF3008008BD0000000000000000B5
:104F3C0008B5FFF7DFFFFFF7E5FB014B186008BD75
:104F4C004CE7032007B5002300931A466FF0770156
:104F5C00FFF7B2FC03B05DF804FB000007B5438813
:104F6C000A2B08D0502B09D1094B1B683BB103B05D
:104F7C005DF804EB1847FFF7E5FF06E0002300930C
:104F8C001A466FF07701FFF797FC03B05DF804FB4E
:104F9C00E4E3032010B5FFF7ADFB044600F0D4FFAB
:104FAC00074B13B12046AFF3008000210448FFF7F4
:104FBC0005FD00210348BDE81040FFF773BC00BF9E
:104FCC0000000000694F0D0070470020704710B5BD
:104FDC001021044600F045FE204610BD08B508B16E
:104FEC00FFF7F5FF08BD0022026010B54FF69C726A
:104FFC008280B1F9044084808A8002680C68046065
:10500C000A6010BD10B504460068FFF7E7FC2046A7
:10501C0010BD38B5C468F4B12378022B03D104F168
:10502C000C00FFF7EFFF656835B12846FFF735FF39
:10503C001021284600F015FEA56835B12846FFF76B
:10504C002CFF1021284600F00CFE20461421BDE850
:10505C00384000F006BE38BD10B588B0044668462E
:10506C00FFF7D8FD694604A8FFF7F6FD04A8A04792
:10507C00044604A8FFF787FD6846FFF784FD204629
:10508C0008B010BDF0B5102485B007460E46154685
:10509C0000212246684600F04EFF00226946104669
:1050AC00ADF80040029703960195FFF767FC05B039
:1050BC00F0BD13B5044691E8050000234B600B606E
:1050CC002060626001A801930093FEF7FFFF204669
:1050DC0002B010BDF7B50C4602AD54F8043B45F8D0
:1050EC00083D06460F4601A82146FFF744FE294617
:1050FC003046FFF7DEFF01A8FEF7E8FF2046FEF77B
:10510C00E5FF3846082100F0ACFD304603B0F0BD99
:10511C0038B500230446036010200D46FEF7B5FF9A
:10512C0028B1012343608360024B0360C56020609B
:10513C00204638BDE0630D00826810B50AB900F056
:10514C0092FDC368BDE81040184708B5006800F12F
:10515C001001FFF7F1FF08BD826810B50AB900F025
:10516C0082FDC368BDE81040184708B5006800F11F
:10517C001001FFF7F1FF08BD38B5002383608B6881
:10518C0004460D462BB102229847EB68E360AB68EE
:10519C00A360204638BD0000F0B589B004686846AD
:1051AC00FFF721FF00238DF808304FF00202D4E8FE
:1051BC004F3F002B03D1C4E8412F0029F7D102D077
:1051CC008DF8083063E014F10C0503D069462846CD
:1051DC00FFF709FFBFF35F8F01236370002004F119
:1051EC000803BFF35F8F53E8006F43E80002002A07
:1051FC00F9D1BFF35F8F002E49D0FFF743FB20B1ED
:10520C0029463046FFF798FF3AE0314602A8FFF7EF
:10521C00B3FFE068B4F9105008B100F0CFFE06906F
:10522C001020ADF81C50FEF730FF0546E8B1002702
:10523C0087601820FEF729FF044688B10146876075
:10524C0002A8FFF739FE049BA268A360059B049299
:10525C0006A9E268E36004F110000592FFF7C3FEB3
:10526C000D4BEB600D4B2C60AB6006A8FFF7CAFE34
:10527C0002A8FFF712FE002229460948FFF70AFB95
:10528C003046FFF70AFE1021304600F0EAFC684673
:10529C00FFF7B8FE09B0F0BD57510D00CD530D000E
:1052AC004D590D002DE9F04F8BB006460F46904638
:1052BC0099469DF850A0FFF769FB07AD834630BBBC
:1052CC004FF62E73059005A92846ADF81830FFF758
:1052DC008AFE1420FEF7D9FE044658B1022303704F
:1052EC0001234370C0F804B0C0F808B029460C3054
:1052FC00FFF779FE3046214640F8044BFFF708FFD4
:10530C002846FFF77FFE05A8FFF77CFE52E000243D
:10531C000C2314206C60AC600793FEF7B6FE0146BC
:10532C0018B1047044704460846004A80391FFF7C2
:10533C00EFFE224B08930820FEF7A7FE044628B187
:10534C00039B40F8043B04A9FFF715FD00955FFA99
:10535C008AF34A46414638460994FFF71FFB20B9A9
:10536C00039B5B7803F0FF0283B1039B059304A9B5
:10537C0006A8FFF700FD05A93046FFF79AFE06A820
:10538C00FEF7A4FE04A8FEF7A1FE13E04FF69C73F3
:10539C0005A903A80592ADF81830FFF7FDFE05A886
:1053AC00FFF730FE05A80999FFF794FE06A8FEF753
:1053BC008DFEDAE730460BB0BDE8F08F3D550D00A1
:1053CC00022AF8B5044606D0032A17D0012A22D1A6
:1053DC000B6803601FE018200E68FEF756FE0546AA
:1053EC0050B13146FFF7C8FE3069B6F9147008B1F8
:1053FC0000F0E4FD2861AF8225600CE0046854B134
:10540C0004F11000FFF7FEFD2046FFF746FD1821C2
:10541C00204600F026FC0020F8BD38B50023836040
:10542C008B6804460D462BB102229847EB68E3606B
:10543C00AB68A360204638BD022A70B5044606D07E
:10544C00032A11D0012A18D10B68036015E014202F
:10545C000E68FEF71AFE054620B13146FFF7DDFF58
:10546C00337C2B74256008E0046834B12046FFF7C8
:10547C0014FD1421204600F0F4FB002070BD000048
:10548C00F0B5002387B00C46BFF35F8F50E8006F78
:10549C0040E80032002AF9D1BFF35F8F002E3FD0D5
:1054AC001846FFF7EFF9074620B121463046FFF7C3
:1054BC0053FE2EE0314601A8FFF7AFFF23788DF89D
:1054CC0014301020FEF7E1FD0546D0B187601420A2
:1054DC00FEF7DBFD044678B18760014601A8FFF7B3
:1054EC00EBFC039BA268A360049B0392E268E3605D
:1054FC009DF81430049223740A4BEB600A4B2C6019
:10550C00AB6001A8FFF7C9FC002229460748FFF74A
:10551C00C1F93046FFF7C1FC1021304600F0A1FB69
:10552C0007B0F0BD77510D0045540D004D590D00DD
:10553C0030B585B004460D4668461146FFF7CAFDE6
:10554C007CB124B228460DB100F038FD029002A9BE
:10555C006846ADF80C40FFF71FFE02A8FFF752FD9E
:10556C001DE000988DF808404FF00102D0E84F3F45
:10557C00A34203D1C0E8412F0029F7D102D08DF806
:10558C0008300CE010F10C014FF0010318BF03734D
:10559C00BFF35F8F043000F8033CFFF771FF01A8E5
:1055AC00FEF794FD05B030BD704710B518210446C8
:1055BC0000F057FB204610BDF0B5037D062B8DB0D7
:1055CC000E4600F104074FF0000402D000F108056C
:1055DC0018E00CAD394605F8304D2F232A460A2029
:1055EC00FFF7C0F8284600F004FD33680246DB687C
:1055FC002946304698470FE024B12E213046FFF75C
:10560C00EFFB044415F8011D0A223046FFF72EFC6F
:10561C00BD420444F0D120460DB0F0BD10B5054B91
:10562C000446112240F8043B002100F084FC204683
:10563C0010BD00BFFC630D000346074A10B543F8CC
:10564C00042B01F1100251F8044B43F8044B914226
:10565C00F9D10A781A7010BDFC630D0010B59DF8D5
:10566C00084044EA032343EA024242EA016104236C
:10567C004160037510BD37B50D788B784A78C978C1
:10568C0000912946FFF7EAFF03B030BD4174704723
:10569C00704708B50021007CFFF7CCF830EA2000F9
:1056AC0028BF4FF0FF3008BD08B50121007CFFF783
:1056BC00C1F830EA200028BF4FF0FF3008BD08B514
:1056CC00007CFFF7AFF820EAE07008BD08B5007C5D
:1056DC00FFF7A0F820EAE07008BD007CFFF7BAB82D
:1056EC0010B51421044600F0BCFA204610BD38B5A4
:1056FC000446007C0D46FFF795F8002801DC607C21
:10570C0028B12946207CFFF79DF820EAE07038BDCF
:10571C0010B50446002363604FF47A73A360054B05
:10572C00236001230846217463741146FFF762F865
:10573C00204610BD10640D000022007CFFF762B8FB
:10574C0010B514220446002100F0F5FB204610BDD4
:10575C0030B50E4D87B001A8FFF7F2FF296811F0A4
:10576C00010410D12846FEF796FC60B101AA21462F
:10577C000748FFF7CDFF2846FEF792FC054A06497D
:10578C00034800F069FA024807B030BDE8E3032093
:10579C00ECE303208CE203209D560D000022114601
:1057AC004068FFF7ABB8002211464068FFF7C6B857
:1057BC00002211464068FFF7D1B800224068FFF77D
:1057CC00C5B8002281F001014068FFF7AFB8002393
:1057DC001A4619464068FFF7A1B800231A46194625
:1057EC004068FFF793B8002211464068FFF776B87F
:1057FC00002202214068FFF779B800231A4640685E
:10580C00FFF764B838B5084C28252A4600212046F5
:10581C0000F091FB4FF0FF336360044B25800422B2
:10582C005A60034A1A6038BD08E4032000E40320E0
:10583C0040640D0070474174704708B5007CFEF75A
:10584C00C9FF20EAE07008BD08B5007CFEF7A2FF96
:10585C0020EAE07008BD08B5007CFEF7ABFF30EA2B
:10586C00200028BF4FF0FF3008BD08B5007CFEF7C4
:10587C0099FF30EA200028BF4FF0FF3008BD007CB4
:10588C00FEF7A0BF10B51421044600F0EAF920463B
:10589C0010BD70B5457C04460E4625B9007CFEF75C
:1058AC0099FF002805DD3146207CBDE87040FEF7ED
:1058BC0069BF284670BD000010B504460846114665
:1058CC00002262604FF47A72A260054A22600122C3
:1058DC00207462741A46FEF74DFF204610BD00BFBF
:1058EC0074640D000023007CFEF77CBF0022FFF7E0
:1058FC00F9BF000038B50C4D296811F0010411D125
:10590C002846FEF7C8FB68B1084A094B09482146EE
:10591C00FFF7D2FF2846FEF7C3FB074A07490548A5
:10592C0000F09AF9034838BDC8E40320CCE4032006
:10593C0044E4032030E403208CE2032041580D00A2
:10594C0010B5836804460BB900F08DF9C36898470D
:10595C00A3681BB1032221462046984720461021FC
:10596C00BDE8104000F07DB9002211464068FEF7FA
:10597C00E5BF002211464068FEF7F0BF00224068E8
:10598C00FEF7E4BF002281F001014068FEF7CEBFB4
:10599C0000231A4601214068FEF7C0BF00231A46B7
:1059AC0019464068FEF7B2BF002211464068FEF768
:1059BC00A5BF002211464068FEF790BF00220221CD
:1059CC004068FEF793BF00231A464068FEF77EBF7F
:1059DC0038B5054688B104684CB1A3681BB10322E5
:1059EC002146204698471021204600F03AF92846D7
:1059FC001421BDE8384000F034B938BD10B103684B
:105A0C005B681847704710B503680446BBB158680B
:105A1C00FEF780FE78B923685A7C12B95868FEF7F5
:105A2C0081FE23685868FEF785FE206800232360FA
:105A3C0028B1FFF7CDFF206808B1FFF7C9FF20465A
:105A4C0010BD000038B50C4B03600446D0F8CC01F7
:105A5C0008B1FEF71EFBD4F8C45135B12846FFF748
:105A6C00D2FF0421284600F0FCF8A06808B1FFF72B
:105A7C00C5FF204638BD00BFA4640D0038B50E4CE0
:105A8C000E4B23600025022304F5E4706360A560CF
:105A9C00C4F8C451C4F8C851FEF75CFE084BC4F8F6
:105AAC00CC5184F8D05123602046064A0649BDE803
:105ABC00384000F0D1B800BF50E50320D8640D0089
:105ACC00A4640D008CE20320515A0D0000231A46E9
:105ADC004068FEF7FBBE002202214068FEF706BFBD
:105AEC00002211464068FEF7F9BE002211464068BC
:105AFC00FEF704BF00231A4619464068FEF706BF9E
:105B0C0000231A4619464068FEF708BF002281F0B0
:105B1C0001014068FEF70ABF00224068FEF716BF7D
:105B2C00002211464068FEF719BF0022114640685A
:105B3C00FEF704BF2DE9F043002495B016460D4640
:105B4C000746FFF76BFD214620220CA8009400F0BD
:105B5C00F2F940230C9321466B460CAA3046FEF713
:105B6C00B1FD0446002844D1024601216868FEF7C5
:105B7C00C5FE0221804622466868FEF7BFFE009EE5
:105B8C0081462146002E34D0002932D17368022B75
:105B9C0002D00A2B09D02AE0B8F1000F27D0716986
:105BAC0038460431FFF767FD20E0B9F1000F1ED035
:105BBC007469112201A800F0BEF906238DF8143087
:105BCC0001AD04F108031834186859682A4603C259
:105BDC000833A3421546F7D101A906A807ADFFF774
:105BEC002BFD0FCD3C1D0FC42B6823700121F669D2
:105BFC00C8E70098FEF75EFD384615B0BDE8F083A7
:105C0C00024B034A1A6000225A60704724E70320B3
:105C1C00D8640D0070B50C4C0C4E0D4D0021204677
:105C2C00FEF742FF20460B4C3246294600F014F892
:105C3C0001212046FEF738FF324629462046BDE8B2
:105C4C00704000F009B800BF2CE703208CE2032061
:105C5C00A54A0D003CE703200B460146184600F010
:105C6C0051B9FEF714BA08B5FEF7C8FE184B1A68FE
:105C7C00D1075CBF01221A60164B1A68D2075CBFB1
:105C8C0001221A60144B1A68D0075CBF01221A60FB
:105C9C00124B1A68D1075CBF01221A60104B1A68AC
:105CAC00D2075CBF01221A600E4B1A68D0075CBF8A
:105CBC0001221A600C4B1A68D1075CBF01221A60D2
:105CCC000A4B1A68D2075CBF01221A60704700BFEA
:105CDC006CE7032068E7032064E7032060E70320F8
:105CEC005CE7032058E7032054E7032050E7032028
:105CFC00244B1A68D0075CBF01221A60224B1A6829
:105D0C00D1075CBF01221A60204B1A68D2075CBF16
:105D1C0001221A601E4B1A68D0075CBF01221A6060
:105D2C001C4B1A68D1075CBF01221A601A4B1A6807
:105D3C00D2075CBF01221A60184B1A68D0075CBFEF
:105D4C0001221A60164B1A68D1075CBF01221A6037
:105D5C00144B1A68D2075CBF01221A60124B1A68E6
:105D6C00D0075CBF01221A60104B1A68D1075CBFC8
:105D7C0001221A600E4B1A68D2075CBF01221A600E
:105D8C00704700BF9CE7032098E7032094E70320AB
:105D9C0090E703208CE7032088E7032084E70320A7
:105DAC0080E703207CE7032078E7032074E70320D7
:105DBC0070E70320244B1A68D0075CBF01221A60DD
:105DCC00224B1A68D1075CBF01221A60204B1A685B
:105DDC00D2075CBF01221A601E4B1A68D0075CBF49
:105DEC0001221A601C4B1A68D1075CBF01221A6091
:105DFC001A4B1A68D2075CBF01221A60184B1A683A
:105E0C00D0075CBF01221A60164B1A68D1075CBF21
:105E1C0001221A60144B1A68D2075CBF01221A6067
:105E2C00124B1A68D0075CBF01221A60104B1A681B
:105E3C00D1075CBF01221A600E4B1A68D2075CBFF7
:105E4C0001221A60704700BFCCE70320C8E703208B
:105E5C00C4E70320C0E70320BCE70320B8E7032016
:105E6C00B4E70320B0E70320ACE70320A8E7032046
:105E7C00A4E70320A0E70320184B1A68D1075CBFE6
:105E8C0001221A60164B1A68D2075CBF01221A60F5
:105E9C00144B1A68D0075CBF01221A60124B1A68A7
:105EAC00D1075CBF01221A60104B1A68D2075CBF85
:105EBC0001221A600E4B1A68D0075CBF01221A60CF
:105ECC000C4B1A68D1075CBF01221A600A4B1A6886
:105EDC00D2075CBF01221A60704700BFECE70320B9
:105EEC00E8E70320E4E70320E0E70320DCE70320F6
:105EFC00D8E70320D4E70320D0E703200A220021AF
:105F0C0000F006B910B5054C13462CB10A460146F3
:105F1C000220AFF3008010BD204610BD0000000031
:105F2C0010B5431E0A44914204D011F8014B03F8FA
:105F3C00014FF8E710BD02440346934202D003F828
:105F4C00011BFAE77047000038B5124B1C68A36BB5
:105F5C000546D3B91820FEF739FD43F20E33A06382
:105F6C0003804AF6CD33438041F2342383804EF2D2
:105F7C006D63C3804DF6EC630381052343810B23D2
:105F8C00838101220023C0E90423A36B00221D613D
:105F9C005A6138BD88E2032010F8012B11F8013B3F
:105FAC00012A28BF9A42F7D0D01A7047034611F83D
:105FBC00012B03F8012B002AF9D17047024B014643
:105FCC00186800F003B800BF88E2032070B50646DD
:105FDC0008460C4600F00DF8451C29463046FEF7E5
:105FEC0015FD064618B12A462146FFF799FF3046A3
:105FFC0070BD034613F8012B002AFBD1181A013887
:10600C00704700002DE9F04780464048D0F80090DA
:10601C000F463D4615F8014B09EB0400407800F0A3
:10602C00080000F0FF0608B12F46F2E72D2C03D133
:10603C00BD1C7C78012603E02B2C04BF7C78BD1C96
:10604C0013B1102B0AD15BE0302C57D1287800F01B
:10605C00DF0058284DD16C7810230235002E14BF68
:10606C004FF0004C6FF0004C0027BCFBF3FA3846A5
:10607C0003FB1ACC09EB040E9EF801E01EF0040F92
:10608C0001D0303C0BE01EF0030E1BD0BEF1010F13
:10609C000CBF4FF0370E4FF0570ECEEB0404A3425B
:1060AC0010DDB7F1FF3F0AD0504506D801D1644549
:1060BC0003DC03FB0040012701E04FF0FF3715F82C
:1060CC00014BD7E77B1C0CD1002E4FF0220314BFE1
:1060DC004FF000406FF00040C8F800302AB9BDE81E
:1060EC00F08706B1404272B107B1691E1160BDE87C
:1060FC00F0873024002BB1D10823AFE70A23ADE79A
:10610C00302CA3D0AAE7BDE8F08700BF24E203201F
:10611C0013460A46014602480068FFF773BF00BFEA
:10612C0088E203201D400D0059400D0085400D00F4
:10613C0089400D00000000002A007477696C696FBB
:10614C005F736D7300766F6C746167650062617468
:10615C0074657279006770734C6174006770734C6E
:10616C006F6E670067707353617473566973006167
:10617C006C74697475646500726F6C6C0070697412
:10618C00636800796177006D697373696F6E43752D
:10619C007272656E74006169727370656564006813
:1061AC00656164696E6700696E666F534D53007369
:1061BC0074617465534D53006765744D61766C69F9
:1061CC006E6B00202D2000566F6C746167650A00A1
:1061DC00426174746572790A004C617469747564F7
:1061EC00650A004C6F6E6769747564650A005361CB
:1061FC0074656C6C697465732056697369626C653F
:10620C000A00416C7469747564650A00526F6C6C99
:10621C000A0050697463680A005961770A004D6975
:10622C007373696F6E2043757272656E742053655B
:10623C007175656E63650A0041697273706565649A
:10624C000A0048656164696E670A00202D20416C64
:10625C006C0054797065206F6E65206F66207468D1
:10626C006520636F726573706F6E64696E67206E04
:10627C00756D626572732E0A00000000000000004C
:10628C0000000000874A0D007D4A0D00734A0D0086
:10629C00694A0D005D4A0D00514A0D00454A0D003A
:1062AC003D4A0D00334A0D00294A0D00415B0D009B
:1062BC000000000000000000A54A0D00A74A0D00D8
:1062CC00626175640053657269616C005365726933
:1062DC00616C31007479706500706172616D00637E
:1062EC006D6400696400686E64007374726D00669E
:1062FC00696C74006C766C0061646448616E646CEB
:10630C0065720072656D6F766548616E646C65725E
:10631C0000656E756D48616E646C657273004A53EE
:10632C004F4E53747265616D4C6F6748616E646C4F
:10633C0065720061707000253031307520005D2071
:10634C00002564002C200028293A2000205B0063E3
:10635C006F6465203D200025690064657461696C7B
:10636C0073203D20000D0A0066006C6E00666E0006
:10637C00636F64650064657461696C006E6F6E6553
:10638C0000747261636500696E666F007761726E8E
:10639C00006572726F720070616E696300616C6C83
:1063AC00005A00252B3033643A25303275002559BC
:1063BC002D256D2D25645425483A254D3A25532518
:1063CC007A0061736374696D650000000000000061
:1063DC0000000000D54F0D00DB4F0D001F500D00CD
:1063EC00E94F0D00D74F0D00000000000000000029
:1063FC00C5550D00B5550D00B7550D00000000003A
:10640C00000000009D560D00ED560D00FB560D00D2
:10641C00A14D0D00D9560D009F560D00B5560D001F
:10642C00E7560D00CB560D0099560D0000000000EC
:10643C000000000007580D00FD570D00F3570D002C
:10644C00A9570D00E7570D00DB570D00CF570D0076
:10645C00C7570D00BD570D00B3570D00415B0D0024
:10646C00000000000000000041580D0091580D0084
:10647C009F580D00A14D0D0055580D0077580D007B
:10648C0063580D008B580D0043580D0047580D00F4
:10649C000000000000000000D3590D00C9590D0088
:1064AC00BF590D00B5590D00A9590D009D590D008E
:1064BC0091590D0089590D007F590D0075590D002A
:1064CC00415B0D000000000000000000D95A0D00D7
:1064DC00E35A0D00ED5A0D00F75A0D00015B0D004B
:1064EC000D5B0D00195B0D00255B0D002D5B0D0088
:1064FC00375B0D00415B0D00002020202020202068
:10650C002020282828282820202020202020202057
:10651C002020202020202020208810101010101067
:10652C0010101010101010101004040404040404B3
:10653C00040404101010101010104141414141414D
:10654C00010101010101010101010101010101012F
:10655C00010101011010101010104242424242423F
:10656C0002020202020202020202020202020202FF
:10657C0002020202101010102000000000000000A7
:10658C0000000000000000000000000000000000FF
:10659C0000000000000000000000000000000000EF
:1065AC0000000000000000000000000000000000DF
:1065BC0000000000000000000000000000000000CF
:1065CC0000000000000000000000000000000000BF
:1065DC0000000000000000000000000000000000AF
:1065EC00000000000000000000000000000000009F
:1065FC00000000000000000000000000000000008F
:10660C00000000000000000000000000000000007E
:10661C00000000000000000000000000000000006E
:10662C00000000000000000000000000000000005E
:10663C00000000000000000000000000000000004E
:10664C00000000000000000000000000000000003E
:10665C0000000000000000000000000043000000EB
:10666C0045450D00914A0D00DD4A0D00914D0D0080
:10667C007D4E0D008D4E0D00E54E0D0011580D0098
:10668C00895A0D000D5C0D00215C0D00795C0D002C
:10669C00FD5C0D00C15D0D00855E0D00000000006D
:0466AC0000000000EA
:1066B0000C000000CE630D0004650D00000000001A
:1066C00008660D0028660D0048660D0000000000F9
:1066D00000000000000000000000000068660D00DF
:1066E00000000000000000000000000000000000AA
:1066F000000000000000000000000000000000009A
:106700000000000000000000000000000000000089
:1067100000000000000000000000000028E203204C
:10672000FFFFFFFF00000102030405060708090A36
:106730000B0C0D0E0F101112131415161718191A31
:086740001B1C1D1E1F20280078
:046748007856341239
:04000003D000401CCD
:00000001FF
