:02000002D0002C
:1040000000400D00885C0D00000006000D00050159
:0840100004017E050000000020
:0440180068570D00D8
:10401C0009480A49884208B505D0094A824202D0AB
:10402C00121A01F0B5FA0748074A0021121A01F0DA
:10403C00BAFA014808BD00BF64E20320F05B0D0032
:10404C00D4E20320D4E20320F0E7032070B500F0A3
:10405C00B1FD074C074BE41AA40800251E46A542E7
:10406C0004D056F8253098470135F8E770BD00BFED
:10407C00F05B0D00B45B0D0000F0C6B808B500F0A5
:10408C0023F8BDE8084000F063BD00F065BB00F00C
:10409C0063BB0078B0FA80F04009704701230370CD
:1040AC00704710687047000008B5054900F073FCB4
:1040BC0028B100F06DFF034900F0C1FC012008BDE0
:1040CC0042580D007C570D0010B500F061FF0368DD
:1040DC001B69984700285BDD00F05AFF03682F4CE2
:1040EC005B6998472E4B2070186000F07FFE21789A
:1040FC0000F096FC21782B4C3A2904D02A4A2368EC
:10410C001268934205DB294800F057FC284B1860D5
:10411C0032E00A2937D1264B1B680B2B2CD8DFE851
:10412C0003F006090C0F1215181B1E2124271F491A
:10413C0020481FE01D4920481CE01C491F4819E07D
:10414C001A491F4816E019491E4813E017491E4822
:10415C0010E016491D480DE014491D480AE01349AA
:10416C001C4807E011491C4804E010491B4801E0B9
:10417C000E491B4800F0C0FB1A490C4800F0D6FB56
:10418C000023236004E001330848236000F0F6FBB1
:10419C000520BDE8104000F09DBC00BF90E303205B
:1041AC005CE30320D8E2032064E203202CE3032029
:1041BC0094E303200CE30320A8E3032080E3032013
:1041CC00DCE2032098E30320FCE203203CE3032021
:1041DC00ECE203204CE3032070E303201CE30320F8
:1041EC0060E30320D7580D0007B50823ADF8003065
:1041FC00044B019304226B4600F086FA03B05DF881
:10420C0004FB00BFAF400D0007B50023082200934C
:10421C00ADF8002001221846019224496A4600F0AC
:10422C0083FA00F0E3FD4FF4165100F0D3FD00F0DB
:10423C00AFFE4FF4165100F0A7FE1D491D48FFF7C5
:10424C00D3FF1D491D48FFF7CFFF1D491D48FFF740
:10425C00CBFF1D491D48FFF7C7FF1D491D48FFF740
:10426C00C3FF1D491D48FFF7BFFF1D491D48FFF740
:10427C00BBFF1D491D48FFF7B7FF1D491D48FFF740
:10428C00B3FF1D491D48FFF7AFFF1D491D48FFF740
:10429C00ABFF1D491D48FFF7A7FF1D4A1D491E48CE
:1042AC0000F0B8FC03B05DF804FB00BFC0D4010003
:1042BC000CE303207E570D00A8E3032086570D0066
:1042CC0080E303208E570D00DCE2032095570D0090
:1042DC0098E303209D570D00FCE20320A8570D0026
:1042EC003CE30320B1570D00ECE20320B6570D0060
:1042FC004CE30320BC570D0070E30320C0570D00A6
:10430C001CE30320CF570D0060E30320D8570D00AA
:10431C00E0570D00B5400D00F54B0D00F8B5444EBF
:10432C00444F454D454C00F0B3F83146384600F04B
:10433C00D0FA3846424F2A46214600F0C7FF314694
:10434C00384600F0C6FA38463E4F2A46214600F061
:10435C00BDFF3146384600F0BCFA38463A4F2A4683
:10436C00214600F0B3FF3146384600F0B2FA384629
:10437C00364F2A46214600F0A9FF3146384600F058
:10438C00A8FA3846324F2A46214600F09FFF3146A4
:10439C00384600F09EFA38462E4F2A46214600F049
:1043AC0095FF3146384600F094FA38462A4F2A4693
:1043BC00214600F08BFF3146384600F08AFA384629
:1043CC00264F2A46214600F081FF3146384600F040
:1043DC0080FA3846224F2A46214600F077FF3146B4
:1043EC00384600F076FA38461E4F2A46214600F031
:1043FC006DFF3146384600F06CFA38461A4F2A46A3
:10440C00214600F063FF3146384600F062FA384628
:10441C00164F2A46214600F059FF3146384600F027
:10442C0058FA2A4621463846BDE8F84000F04EBFFF
:10443C00D7580D002CE30320D4E2032051480D0083
:10444C000CE30320A8E3032080E30320DCE2032039
:10445C0098E30320FCE203203CE30320ECE203207E
:10446C004CE3032070E303201CE3032060E30320F0
:10447C0008B5024B1B689B68019308BD68020300DA
:10448C0008B5024B1B68DB68019308BD680203008A
:10449C0008B5024B1B681B68019308BD2C02030076
:1044AC0008B5024B1B68DB69019308BD30020300A1
:1044BC0008B5024B1B685B68019308BD180203002A
:1044CC0008B5024B1B685B69019308BD1802030019
:1044DC0008B5024B1B689B68019308BD480203009A
:1044EC0008B5024B1B681B69019308BD4802030009
:1044FC0008B5024B1B685B69019308BD48020300B9
:10450C0008B5024B1B681B6B019308BD48020300E6
:10451C0008B5024B1B685B6C019308BD4802030095
:10452C0008B5024B1B685B69019308BD640203006C
:10453C0008B5024B1B681B68019308BD3C020300C5
:10454C0008B5024B1B68DB68019308BD3C020300F5
:10455C0008B5024B1B681B69019308BD3C020300A4
:10456C0008B5024B1B685B69019308BD3C02030054
:10457C0008B5024B1B689B69019308BD3C02030004
:10458C0008B5024B1B68DB69019308BD3C020300B4
:10459C0008B5024B1B689B6A019308BD3C020300E3
:1045AC0008B5024B1B68DB6A019308BD3C02030093
:1045BC0008B5024B1B681B68019308BD4C02030035
:1045CC0008B5024B1B685B68019308BD4C020300E5
:1045DC0008B5024B1B681B69019308BD4C02030014
:1045EC0008B5024B1B685B69019308BD4C020300C4
:1045FC0008B5024B1B689B69019308BD4C02030074
:10460C0008B5024B1B68DB69019308BD4C02030023
:10461C0008B5024B1B681B6A019308BD4C020300D2
:10462C0008B5024B1B685B68019308BD20020300B0
:10463C0008B5024B1B685B69019308BD200203009F
:10464C0008B5034B1B68D3F88830019308BD0000F4
:10465C002002030008B5034B1B68D3F89430019378
:10466C0008BD00002002030008B5024B1B685B6804
:10467C00019308BD4002030008B5024B1B689B6800
:10468C00019308BD4002030008B5024B1B68DB68B0
:10469C00019308BD4002030008B5024B1B681B695F
:1046AC00019308BD4002030008B5024B1B685B690F
:1046BC00019308BD4002030008B5024B1B689B69BF
:1046CC00019308BD4002030008B5024B1B68DB696F
:1046DC00019308BD4002030008B5024B1B681B6A1E
:1046EC00019308BD4002030008B5024B1B681B6B0D
:1046FC00019308BD4002030008B5024B1B685B6BBD
:10470C00019308BD4002030008B5024B1B681B68EF
:10471C00019308BD4402030008B5024B1B685B689B
:10472C00019308BD4402030008B5024B1B689B6B48
:10473C00019308BD4402030008B5024B1B68DB6BF8
:10474C00019308BD4402030008B5024B1B681B68AB
:10475C00019308BD1C02030008B5024B1B685B6883
:10476C00019308BD1C02030008B5024B1B689B6833
:10477C00019308BD1C020300002211464068FFF79C
:10478C00ABBF002211464068FFF7B6BF002240685D
:10479C00FFF7AABF002281F001014068FFF794BF28
:1047AC0000231A4619464068FFF786BF00231A46B5
:1047BC0019464068FFF778BF002211464068FFF7A2
:1047CC006BBF002211464068FFF756BF0022022142
:1047DC004068FFF759BF00231A464068FFF744BFF3
:1047EC00024B03225A60024A1A607047B8E3032056
:1047FC00F4570D00704710B51021044600F06BFD06
:10480C00204610BD70B5084B0360044600250E46CB
:10481C0040F80C5FFFF774FE30462671FFF740FE40
:10482C00A560204670BD00BF28580D00044B002029
:10483C004FF6FF72187058809A80FFF7F1BE00BFD8
:10484C00C0E3032010B504460068FFF785FF20463F
:10485C0010BD10B50446006808B1FFF77DFF0023BA
:10486C002360A360636010BD38B504460D46006834
:10487C000131FFF779FF10B184E82100012038BD28
:10488C0010B50368044613B143688B4207D2204627
:10489C00FFF7EAFF20B1A3680BB92268137001205F
:1048AC0010BD70B50E46114604461546FFF7E8FFDD
:1048BC0018B92046FFF7CDFF09E02A463146A5601E
:1048CC00206800F065FE2268A3680021D1542046C0
:1048DC0070BD38B5002304460360436083600373E6
:1048EC000D4639B1084600F0A1FE29460246204685
:1048FC00FFF7D7FF204638BD884210B50B4604465B
:10490C0007D0096819B19A68FFF7CBFF01E0FFF7F0
:10491C00A0FF204610BD10B5002304460360436081
:10492C0083600373FFF7E8FF204610BD38B50546DA
:10493C000C4641B1084600F079FE21460246284655
:10494C00FFF7AFFF01E0FFF784FF284638BD70B5D5
:10495C0004460E4609B9002070BD6AB18368D518AB
:10496C002946FFF78DFF0028F5D02068A368314653
:10497C00184400F053FEA560012070BD07B500235C
:10498C008DF80410012201A98DF80530FFF7DFFF27
:10499C0003B05DF804FB08B582680B4612B919B96F
:1049AC00012008BD11B90368187802E0006800F016
:1049BC002BFEB0FA80F0400908BD006808B100F089
:1049CC00D5BD7047024800230360FFF7A1BD00BFAF
:1049DC00C8E30320F8B506460D468F180024BD42E7
:1049EC000CD0336815F8011B9B683046984700289B
:1049FC0001DB0444F3E7002C08BF04462046F8BD55
:104A0C0070B505460C46084649B100F00FFE2B6800
:104A1C00024621462846DB68BDE87040184770BD49
:104A2C0003689B68184738B50D210546FFF7F8FF5A
:104A3C000A2104462846FFF7F3FF204438BD38B559
:104A4C000546FFF7DDFF04462846FFF7ECFF204440
:104A5C0038BD30B58BB00B4600218DF82410012ADF
:104A6C0098BF0A220DF12304B3FBF2F505FB1233B8
:104A7C0003F0FF03092B94BF30333733DBB22146ED
:104A8C0004F801392B46002DEED1FFF7B9FF0BB01E
:104A9C0030BD10B42AB903685DF8044B9B68C9B2E9
:104AAC001847D2B25DF8044BFFF7D3BFFFF7F1BF45
:104ABC00014B024A1A607047CCE30320A3580D0047
:104ACC00024B1A68024B1A60704700BF68E2032061
:104ADC00D0E303200021FFF7ABBD10B5836804467B
:104AEC0013B1032201469847204610BD10B5044669
:104AFC00FFF7F3FF204610BD0348044A0449002386
:104B0C00836000F0E3BB00BFD4E30320D4E20320B6
:104B1C00F94A0D0008B50C4B33B100F067F9036886
:104B2C001B699847002809DC084B63B100F030FA88
:104B3C0003681B699847002803DC08BDAFF30080AD
:104B4C00F2E7AFF3008008BD000000000000000099
:104B5C0008B5FFF7DFFFFFF7B3FC014B186008BD8A
:104B6C004CE7032007B5002300931A466FF077013A
:104B7C00FFF770FD03B05DF804FB000007B5438838
:104B8C000A2B08D0502B09D1094B1B683BB103B041
:104B9C005DF804EB1847FFF7E5FF06E000230093F0
:104BAC001A466FF07701FFF755FD03B05DF804FB73
:104BBC00E4E3032010B5FFF77BFC044600F0FCFC9B
:104BCC00074B13B12046AFF3008000210448FFF7D8
:104BDC00B3FD00210348BDE81040FFF731BD00BF15
:104BEC0000000000894B0D0010B588B004466846E3
:104BFC00FFF76FFE694604A8FFF78DFE04A8A047D7
:104C0C00044604A8FFF71EFE6846FFF71BFE20466D
:104C1C0008B010BDF0B5102485B007460E461546F9
:104C2C0000212246684600F0BEFC00226946104670
:104C3C00ADF80040029703960195FFF76DFD05B0A6
:104C4C00F0BD704710B51821044600F044FB204617
:104C5C0010BDF0B5037D062B8DB00E4600F1040798
:104C6C004FF0000402D000F1080518E00CAD3946F5
:104C7C0005F8304D2F232A460A20FFF751FC284611
:104C8C0000F0D4FC33680246DB682946304698476E
:104C9C000FE024B12E213046FFF7C2FE044415F874
:104CAC00011D0A223046FFF701FFBD420444F0D13A
:104CBC0020460DB0F0BD000010B5054B0446112286
:104CCC0040F8043B002100F06EFC204610BD00BFF4
:104CDC0044590D000346074A10B543F8042B01F163
:104CEC00100251F8044B43F8044B9142F9D10A7865
:104CFC001A7010BD44590D0010B59DF8084044EAD7
:104D0C00032343EA024242EA016104234160037532
:104D1C0010BD37B50D788B784A78C9780091294643
:104D2C00FFF7EAFF03B030BD41747047704708B518
:104D3C000021007CFFF75CFC30EA200028BF4FF01C
:104D4C00FF3008BD08B50121007CFFF751FC30EAAB
:104D5C00200028BF4FF0FF3008BD08B5007CFFF7DE
:104D6C003FFC20EAE07008BD08B5007CFFF730FC82
:104D7C0020EAE07008BD007CFFF74ABC10B5142196
:104D8C00044600F0A8FA204610BD38B50446007C55
:104D9C000D46FFF725FC002801DC607C28B1294674
:104DAC00207CFFF72DFC20EAE07038BD10B50446DE
:104DBC00002363604FF47A73A360054B23600123D7
:104DCC000846217463741146FFF7F2FB204610BDB0
:104DDC0058590D000022007CFFF7F2BB10B51422CD
:104DEC000446002100F0DFFB204610BD30B50E4D0F
:104DFC0087B001A8FFF7F2FF296811F0010410D168
:104E0C002846FFF746F960B101AA21460748FFF78B
:104E1C00CDFF2846FFF742F9054A0649034800F042
:104E2C0055FA024807B030BDE8E30320ECE3032059
:104E3C00D4E20320394D0D00002211464068FFF7E3
:104E4C002BBC002211464068FFF746BC00221146DD
:104E5C004068FFF751BC00224068FFF745BC0022B8
:104E6C0081F001014068FFF72FBC00231A46194658
:104E7C004068FFF721BC00231A4619464068FFF72B
:104E8C0013BC002211464068FFF7F6BB002202213A
:104E9C004068FFF7F9BB00231A464068FFF7E4BBF4
:104EAC0038B5084C28252A460021204600F07BFB0B
:104EBC004FF0FF336360044B258004225A60034A91
:104ECC001A6038BD08E4032000E4032088590D0063
:104EDC0070474174704708B5007CFFF759FB20EA16
:104EEC00E07008BD08B5007CFFF732FB20EAE070EB
:104EFC0008BD08B5007CFFF73BFB30EA200028BF5B
:104F0C004FF0FF3008BD08B5007CFFF729FB30EAF5
:104F1C00200028BF4FF0FF3008BD007CFFF730BBEE
:104F2C0010B51421044600F0D6F9204610BD70B51A
:104F3C00457C04460E4625B9007CFFF729FB00286A
:104F4C0005DD3146207CBDE87040FFF7F9BA2846F4
:104F5C0070BD000010B50446084611460022626080
:104F6C004FF47A72A260054A2260012220746274A6
:104F7C001A46FFF7DDFA204610BD00BFBC590D00E4
:104F8C000023007CFFF70CBB0022FFF7F9BF0000E9
:104F9C0038B50C4D296811F0010411D12846FFF7E2
:104FAC0078F868B1084A094B09482146FFF7D2FF47
:104FBC002846FFF773F8074A0749054800F086F9B9
:104FCC00034838BDC8E40320CCE4032044E40320A8
:104FDC0030E40320D4E20320DD4E0D000022114604
:104FEC004068FFF779BB002211464068FFF784BB8D
:104FFC0000224068FFF778BB002281F00101406875
:10500C00FFF762BB00231A4601214068FFF754BB2F
:10501C0000231A4619464068FFF746BB002211468A
:10502C004068FFF739BB002211464068FFF724BBEC
:10503C00002202214068FFF727BB00231A46406874
:10504C00FFF712BB38B5054688B104684CB1A368AC
:10505C001BB103222146204698471021204600F020
:10506C003AF928461421BDE8384000F034B938BD6F
:10507C0010B103685B681847704710B503680446A5
:10508C00BBB15868FFF724FA78B923685A7C12B977
:10509C005868FFF725FA23685868FFF729FA206843
:1050AC000023236028B1FFF7CDFF206808B1FFF77C
:1050BC00C9FF204610BD000038B50C4B03600446F8
:1050CC00D0F8CC0108B1FEF7E2FFD4F8C45135B1E9
:1050DC002846FFF7D2FF0421284600F0FCF8A06810
:1050EC0008B1FFF7C5FF204638BD00BFEC590D00D5
:1050FC0038B50E4C0E4B23600025022304F5E470EA
:10510C006360A560C4F8C451C4F8C851FFF700FA35
:10511C00084BC4F8CC5184F8D05123602046064A81
:10512C000649BDE8384000F0D1B800BF50E5032077
:10513C00205A0D00EC590D00D4E20320C5500D008F
:10514C0000231A464068FFF78FBA002202214068FC
:10515C00FFF79ABA002211464068FFF78DBA002279
:10516C0011464068FFF798BA00231A461946406862
:10517C00FFF79ABA00231A4619464068FFF79CBA03
:10518C00002281F001014068FFF79EBA00224068BE
:10519C00FFF7AABA002211464068FFF7ADBA002209
:1051AC0011464068FFF798BA2DE9F043002495B0FA
:1051BC0016460D460746FFF77FFD214620220CA818
:1051CC00009400F0F0F940230C9321466B460CAA96
:1051DC003046FFF755F90446002844D10246012118
:1051EC006868FFF759FA0221804622466868FFF783
:1051FC0053FA009E81462146002E34D0002932D12C
:10520C007368022B02D00A2B09D02AE0B8F1000FE8
:10521C0027D0716938460431FFF77BFD20E0B9F1E6
:10522C00000F1ED07469112201A800F0BCF90623EE
:10523C008DF8143001AD04F108031834186859685E
:10524C002A4603C20833A3421546F7D101A906A882
:10525C0007ADFFF73FFD0FCD3C1D0FC42B6823702E
:10526C000121F669C8E70098FFF702F9384615B036
:10527C00BDE8F083024B034A1A6000225A60704763
:10528C0024E70320205A0D0070B50C4C0C4E0D4D2C
:10529C0000212046FFF7B6FA20460B4C3246294631
:1052AC0000F014F801212046FFF7ACFA32462946EB
:1052BC002046BDE8704000F009B800BF2CE7032081
:1052CC00D4E2032001480D003CE703200B460146C5
:1052DC00184600F04FB9FEF7D8BE0000184B1A68FC
:1052EC00D1075CBF01221A60164B1A68D2075CBF4B
:1052FC0001221A60144B1A68D0075CBF01221A6095
:10530C00124B1A68D1075CBF01221A60104B1A6845
:10531C00D2075CBF01221A600E4B1A68D0075CBF23
:10532C0001221A600C4B1A68D1075CBF01221A606B
:10533C000A4B1A68D2075CBF01221A60704700BF83
:10534C006CE7032068E7032064E7032060E7032091
:10535C005CE7032058E7032054E7032050E70320C1
:10536C00244B1A68D0075CBF01221A60224B1A68C2
:10537C00D1075CBF01221A60204B1A68D2075CBFB0
:10538C0001221A601E4B1A68D0075CBF01221A60FA
:10539C001C4B1A68D1075CBF01221A601A4B1A68A1
:1053AC00D2075CBF01221A60184B1A68D0075CBF89
:1053BC0001221A60164B1A68D1075CBF01221A60D1
:1053CC00144B1A68D2075CBF01221A60124B1A6880
:1053DC00D0075CBF01221A60104B1A68D1075CBF62
:1053EC0001221A600E4B1A68D2075CBF01221A60A8
:1053FC00704700BF9CE7032098E7032094E7032045
:10540C0090E703208CE7032088E7032084E7032040
:10541C0080E703207CE7032078E7032074E7032070
:10542C0070E70320244B1A68D0075CBF01221A6076
:10543C00224B1A68D1075CBF01221A60204B1A68F4
:10544C00D2075CBF01221A601E4B1A68D0075CBFE2
:10545C0001221A601C4B1A68D1075CBF01221A602A
:10546C001A4B1A68D2075CBF01221A60184B1A68D3
:10547C00D0075CBF01221A60164B1A68D1075CBFBB
:10548C0001221A60144B1A68D2075CBF01221A6001
:10549C00124B1A68D0075CBF01221A60104B1A68B5
:1054AC00D1075CBF01221A600E4B1A68D2075CBF91
:1054BC0001221A60704700BFCCE70320C8E7032025
:1054CC00C4E70320C0E70320BCE70320B8E70320B0
:1054DC00B4E70320B0E70320ACE70320A8E70320E0
:1054EC00A4E70320A0E70320184B1A68D1075CBF80
:1054FC0001221A60164B1A68D2075CBF01221A608F
:10550C00144B1A68D0075CBF01221A60124B1A6840
:10551C00D1075CBF01221A60104B1A68D2075CBF1E
:10552C0001221A600E4B1A68D0075CBF01221A6068
:10553C000C4B1A68D1075CBF01221A600A4B1A681F
:10554C00D2075CBF01221A60704700BFECE7032052
:10555C00E8E70320E4E70320E0E70320DCE703208F
:10556C00D8E70320D4E70320D0E703200A22002148
:10557C0000F0EAB810B5054C13462CB10A460146AA
:10558C000220AFF3008010BD204610BD00000000CB
:10559C0010B5431E0A44914204D011F8014B03F894
:1055AC00014FF8E710BD02440346934202D003F8C2
:1055BC00011BFAE77047000038B5124B1C68A36B4F
:1055CC000546D3B91820FFF7BFF843F20E33A0639A
:1055DC0003804AF6CD33438041F2342383804EF26C
:1055EC006D63C3804DF6EC630381052343810B236C
:1055FC00838101220023C0E90423A36B00221D61D7
:10560C005A6138BDD0E2032010F8012B11F8013B90
:10561C00012A28BF9A42F7D0D01A7047034611F8D6
:10562C00012B03F8012B002AF9D17047034613F81C
:10563C00012B002AFBD1181A013870472DE9F047CD
:10564C0080464048D0F800900F463D4615F8014B77
:10565C0009EB0400407800F0080000F0FF0608B1E8
:10566C002F46F2E72D2C03D1BD1C7C78012603E0DC
:10567C002B2C04BF7C78BD1C13B1102B0AD15BE022
:10568C00302C57D1287800F0DF0058284DD16C7899
:10569C0010230235002E14BF4FF0004C6FF0004C5D
:1056AC000027BCFBF3FA384603FB1ACC09EB040EBB
:1056BC009EF801E01EF0040F01D0303C0BE01EF010
:1056CC00030E1BD0BEF1010F0CBF4FF0370E4FF085
:1056DC00570ECEEB0404A34210DDB7F1FF3F0AD006
:1056EC00504506D801D1644503DC03FB004001277B
:1056FC0001E04FF0FF3715F8014BD7E77B1C0CD1BD
:10570C00002E4FF0220314BF4FF000406FF000400A
:10571C00C8F800302AB9BDE8F08706B1404272B132
:10572C0007B1691E1160BDE8F0873024002BB1D1A0
:10573C000823AFE70A23ADE7302CA3D0AAE7BDE8D6
:10574C00F08700BF6CE2032013460A46014602486C
:10575C000068FFF773BF00BFD0E203201D400D00AF
:10576C0059400D0085400D0089400D0000000000DF
:10577C002A00766F6C74616765006261747465727F
:10578C0079006770734C6174006770734C6F6E674F
:10579C00006770735361747356697300616C74693C
:1057AC007475646500726F6C6C007069746368006A
:1057BC00796177006D697373696F6E437572726589
:1057CC006E7400616972737065656400686561640C
:1057DC00696E67006765744D61766C696E6B00006D
:1057EC000000000000000000E3470D00D9470D0049
:1057FC00CF470D00C5470D00B9470D00AD470D0053
:10580C00A1470D0099470D008F470D0085470D00EE
:10581C00B5510D00000000000000000001480D0013
:10582C0003480D00626175640053657269616C0018
:10583C0053657269616C31007479706500706172C6
:10584C00616D00636D6400696400686E640073745C
:10585C00726D0066696C74006C766C0061646448EF
:10586C00616E646C65720072656D6F766548616E11
:10587C00646C657200656E756D48616E646C657202
:10588C0073004A534F4E53747265616D4C6F674889
:10589C00616E646C6572006170700025303130751A
:1058AC0020005D20002564002C200028293A2000CF
:1058BC00205B00636F6465203D20002569006465F2
:1058CC007461696C73203D20000D0A0066006C6EDB
:1058DC0000666E00636F64650064657461696C00DA
:1058EC006E6F6E6500747261636500696E666F0041
:1058FC007761726E006572726F720070616E6963AF
:10590C0000616C6C005A00252B3033643A25303220
:10591C00750025592D256D2D25645425483A254DA6
:10592C003A2553257A0061736374696D6500000034
:10593C0000000000000000005F4C0D004F4C0D00FB
:10594C00514C0D000000000000000000394D0D000E
:10595C00894D0D00974D0D00E1490D00754D0D0061
:10596C003B4D0D00514D0D00834D0D00674D0D004D
:10597C00354D0D000000000000000000A34E0D008E
:10598C00994E0D008F4E0D00454E0D00834E0D00AF
:10599C00774E0D006B4E0D00634E0D00594E0D00F1
:1059AC004F4E0D00B5510D0000000000000000002E
:1059BC00DD4E0D002D4F0D003B4F0D00E1490D004C
:1059CC00F14E0D00134F0D00FF4E0D00274F0D0033
:1059DC00DF4E0D00E34E0D00000000000000000043
:1059EC0047500D003D500D0033500D0029500D0057
:1059FC001D500D0011500D0005500D00FD4F0D00F8
:105A0C00F34F0D00E94F0D00B5510D0000000000E3
:105A1C00000000004D510D0057510D0061510D005B
:105A2C006B510D0075510D0081510D008D510D0004
:105A3C0099510D00A1510D00AB510D00B5510D0048
:105A4C000020202020202020202028282828282042
:105A5C00202020202020202020202020202020203A
:105A6C0020881010101010101010101010101010A2
:105A7C001004040404040404040404101010101092
:105A8C00101041414141414101010101010101015C
:105A9C0001010101010101010101010110101010AE
:105AAC00101042424242424202020202020202022E
:105ABC000202020202020202020202021010101082
:105ACC0020000000000000000000000000000000AA
:105ADC0000000000000000000000000000000000BA
:105AEC0000000000000000000000000000000000AA
:105AFC00000000000000000000000000000000009A
:105B0C000000000000000000000000000000000089
:105B1C000000000000000000000000000000000079
:105B2C000000000000000000000000000000000069
:105B3C000000000000000000000000000000000059
:105B4C000000000000000000000000000000000049
:105B5C000000000000000000000000000000000039
:105B6C000000000000000000000000000000000029
:105B7C000000000000000000000000000000000019
:105B8C000000000000000000000000000000000009
:105B9C0000000000000000000000000000000000F9
:105BAC00000000004300000029430D00ED470D00EC
:105BBC0039480D00D1490D00BD4A0D00CD4A0D00EC
:105BCC00054B0D00AD4E0D00FD500D0081520D002A
:105BDC0095520D00E9520D006D530D0031540D001E
:045BEC00F5540D005F
:105BF000E803000032590D004C5A0D00000000006F
:105C0000505B0D00705B0D00905B0D00000000000C
:105C1000000000000000000000000000B05B0D006C
:105C20000000000000000000000000000000000074
:105C30000000000000000000000000000000000064
:105C40000000000000000000000000000000000054
:105C500000000000000000000000000070E20320CF
:105C6000FFFFFFFF00000102030405060708090A01
:105C70000B0C0D0E0F101112131415161718191AFC
:085C80001B1C1D1E1F20280043
:045C88007856341204
:04000003D000401CCD
:00000001FF
