:02000002D0002C
:1040000000400D00C8590D00000006000D0005011C
:0840100004017E050000000020
:04401800E8540D005B
:10401C0009480A49884208B505D0094A824202D0AB
:10402C00121A01F07FF90748074A0021121A01F011
:10403C0084F9014808BD00BFD4E2032030590D00BB
:10404C0044E3032044E30320F0E7032070B500F0C1
:10405C00A9FC074C074BE41AA40800251E46A542F0
:10406C0004D056F8253098470135F8E770BD00BFED
:10407C002C590D00F0580D0000F026B808B500F0D2
:10408C0069F8BDE8084000F05BBC00F08FBA00F0A6
:10409C008DBA0078B0FA80F04009704701230370A4
:1040AC00704710687047000007B50823ADF8003062
:1040BC00044B019304226B4600F058FA03B05DF8F0
:1040CC0004FB00BFAF400D0007B50023082200938E
:1040DC00ADF8002001221846019213496A4600F0FF
:1040EC004DFA00F04DFD4FF4165100F03DFD00F07F
:1040FC0019FE4FF4165100F011FE0C490C48FFF755
:10410C00D3FF0C490C48FFF7CFFF0C490C48FFF7C5
:10411C00CBFF0C490C48FFF7C7FF0C490C48FFF7C5
:10412C00C3FF03B05DF804FBC0D401006CE30320B3
:10413C00FC540D0080E3032003550D004CE30320D9
:10414C000A550D00A8E3032012550D0098E3032037
:10415C001B550D0010B500F0E5FD03681B69984771
:10416C00002843DD00F0DEFD0368234C5B699847B3
:10417C00224B2070186000F003FD217800F05EFBEC
:10418C0021781F4C3A2904D01E4A236812689342A6
:10419C0005DB1D4800F01EFB1C4B18601AE00A29B9
:1041AC001FD11A4B1B68042B14D8DFE803F003064D
:1041BC00090C0F00144916480AE01349154807E08A
:1041CC001149154804E01049144801E00E491448FF
:1041DC0000F0BCFA13490C4800F0C7FA0023236026
:1041EC0004E001330848236000F0E7FA0A20BDE838
:1041FC00104000F067BB00BF90E303207CE303207A
:10420C0048E30320D4E203205CE3032094E303207F
:10421C006CE3032080E303204CE30320A8E303209A
:10422C0098E3032013560D00F8B5214E214F224D73
:10423C00224C00F05FF83146384600F074FA3846EC
:10424C001F4F2A46214600F00BFF3146384600F03E
:10425C006AFA38461B4F2A46214600F001FF3146C8
:10426C00384600F060FA3846174F2A46214600F0CF
:10427C00F7FE3146384600F056FA3846134F2A46B8
:10428C00214600F0EDFE3146384600F04CFA384637
:10429C000F4F2A46214600F0E3FE3146384600F027
:1042AC0042FA2A4621463846BDE8F84000F0D8BE0E
:1042BC0013560D005CE3032044E30320A5460D00D8
:1042CC006CE3032080E303204CE30320A8E30320EA
:1042DC0098E3032008B5024B1B689B68019308BD4B
:1042EC006802030008B5024B1B68DB68019308BD2C
:1042FC006802030008B5024B1B681B68019308BDDC
:10430C002C02030008B5024B1B68DB69019308BD46
:10431C003002030008B5024B1B685B68019308BDB3
:10432C001802030008B5024B1B685B69019308BDBA
:10433C001802030008B5024B1B689B68019308BD6B
:10434C004802030008B5024B1B681B69019308BDAA
:10435C004802030008B5024B1B685B69019308BD5A
:10436C004802030008B5024B1B681B6B019308BD88
:10437C004802030008B5024B1B685B6C019308BD37
:10438C004802030008B5024B1B685B69019308BD2A
:10439C006402030008B5024B1B681B68019308BD3F
:1043AC003C02030008B5024B1B68DB68019308BD97
:1043BC003C02030008B5024B1B681B69019308BD46
:1043CC003C02030008B5024B1B685B69019308BDF6
:1043DC003C02030008B5024B1B689B69019308BDA6
:1043EC003C02030008B5024B1B68DB69019308BD56
:1043FC003C02030008B5024B1B689B6A019308BD85
:10440C003C02030008B5024B1B68DB6A019308BD34
:10441C003C02030008B5024B1B681B68019308BDE6
:10442C004C02030008B5024B1B685B68019308BD86
:10443C004C02030008B5024B1B681B69019308BDB5
:10444C004C02030008B5024B1B685B69019308BD65
:10445C004C02030008B5024B1B689B69019308BD15
:10446C004C02030008B5024B1B68DB69019308BDC5
:10447C004C02030008B5024B1B681B6A019308BD74
:10448C004C02030008B5024B1B685B68019308BD26
:10449C002002030008B5024B1B685B69019308BD41
:1044AC002002030008B5034B1B68D3F88830019336
:1044BC0008BD00002002030008B5034B1B68D3F8AD
:1044CC009430019308BD00002002030008B5024B94
:1044DC001B685B68019308BD4002030008B5024BE2
:1044EC001B689B68019308BD4002030008B5024B92
:1044FC001B68DB68019308BD4002030008B5024B42
:10450C001B681B69019308BD4002030008B5024BF0
:10451C001B685B69019308BD4002030008B5024BA0
:10452C001B689B69019308BD4002030008B5024B50
:10453C001B68DB69019308BD4002030008B5024B00
:10454C001B681B6A019308BD4002030008B5024BAF
:10455C001B681B6B019308BD4002030008B5024B9E
:10456C001B685B6B019308BD4002030008B5024B4E
:10457C001B681B68019308BD4402030008B5024B7D
:10458C001B689B6B019308BD4402030008B5024BEA
:10459C001B68DB6B019308BD4402030008B5024B9A
:1045AC001B681B68019308BD1C02030008B5024B75
:1045BC001B685B68019308BD1C02030008B5024B25
:1045CC001B689B68019308BD1C0203000022114666
:1045DC004068FFF7B3BF002211464068FFF7BEBF2B
:1045EC0000224068FFF7B2BF002281F00101406851
:1045FC00FFF79CBF00231A4619464068FFF78EBF91
:10460C0000231A4619464068FFF780BF0022114666
:10461C004068FFF773BF002211464068FFF75EBF8A
:10462C00002202214068FFF761BF00231A46406850
:10463C00FFF74CBF024B03225A60024A1A607047C4
:10464C00B8E3032030550D00704710B51021044617
:10465C0000F00BFD204610BD70B5084B03600446FE
:10466C0000250E4640F80C5FFFF77CFE30462671A5
:10467C00FFF748FEA560204670BD00BF64550D00D5
:10468C00044B00204FF6FF72187058809A80FFF789
:10469C00F9BE00BFC0E3032010B504460068FFF765
:1046AC0085FF204610BD10B50446006808B1FFF721
:1046BC007DFF00232360A360636010BD38B5044602
:1046CC000D4600680131FFF779FF10B184E8210035
:1046DC00012038BD10B50368044613B143688B4202
:1046EC0007D22046FFF7EAFF20B1A3680BB9226876
:1046FC001370012010BD70B50E46114604461546C8
:10470C00FFF7E8FF18B92046FFF7CDFF09E02A466E
:10471C003146A560206800F005FE2268A3680021E0
:10472C00D154204670BD38B5002304460360436065
:10473C00836003730D4639B1084600F037FE2946F5
:10474C0002462046FFF7D7FF204638BD884210B5F9
:10475C000B46044607D0096819B19A68FFF7CBFFDE
:10476C0001E0FFF7A0FF204610BD38B505460C460A
:10477C0041B1084600F01AFE214602462846FFF7D2
:10478C00BAFF01E0FFF78FFF284638BD70B504462D
:10479C000E4609B9002070BD6AB18368D518294648
:1047AC00FFF798FF0028F5D02068A368314618441D
:1047BC0000F0F4FDA560012070BD07B500238DF855
:1047CC000410012201A98DF80530FFF7DFFF03B0BB
:1047DC005DF804FB006808B100F092BD7047000062
:1047EC00024800230360FFF7C5BD00BFC8E30320E8
:1047FC00F8B506460D468F180024BD420CD0336820
:10480C0015F8011B9B6830469847002801DB0444CF
:10481C00F3E7002C08BF04462046F8BD70B50546EA
:10482C000C46084649B100F0C1FD2B6802462146F2
:10483C002846DB68BDE87040184770BD03689B686C
:10484C00184730B58BB00B4600218DF82410012A87
:10485C0098BF0A220DF12304B3FBF2F505FB1233CA
:10486C0003F0FF03092B94BF30333733DBB22146FF
:10487C0004F801392B46002DEED1FFF7CFFF0BB01A
:10488C0030BD10B42AB903685DF8044B9B68C9B2FB
:10489C001847D2B25DF8044BFFF7D3BFFFF7F1BF57
:1048AC00014B024A1A607047CCE30320DF550D0020
:1048BC00024B1A68024B1A60704700BFD8E2032003
:1048CC00D0E303200021FFF7E5BD10B58368044653
:1048DC0013B1032201469847204610BD10B504467B
:1048EC00FFF7F3FF204610BD0348044A0449002398
:1048FC00836000F0B5BB00BFD4E3032044E3032086
:10490C00E9480D0008B50C4B33B100F039F90368D8
:10491C001B699847002809DC084B63B100F002FAC8
:10492C0003681B699847002803DC08BDAFF30080BF
:10493C00F2E7AFF3008008BD0000000000000000AB
:10494C0008B5FFF7DFFFFFF7EDFC014B186008BD62
:10495C004CE7032007B5002300931A466FF077014C
:10496C00FFF7AAFD03B05DF804FB000007B5438810
:10497C000A2B08D0502B09D1094B1B683BB103B053
:10498C005DF804EB1847FFF7E5FF06E00023009302
:10499C001A466FF07701FFF78FFD03B05DF804FB4B
:1049AC00E4E3032010B5FFF7B5FC044600F0CEFCA1
:1049BC00074B13B12046AFF3008000210448FFF7EA
:1049CC00E5FD00210348BDE81040FFF76BBD00BFBB
:1049DC000000000079490D00704710B518210446FD
:1049EC0000F043FB204610BDF0B5037D062B8DB0C7
:1049FC000E4600F104074FF0000402D000F1080548
:104A0C0018E00CAD394605F8304D2F232A460A2004
:104A1C00FFF7B8FC284600F0C9FC33680246DB6897
:104A2C002946304698470FE024B12E213046FFF737
:104A3C0005FF044415F8011D0A223046FFF72EFF2E
:104A4C00BD420444F0D120460DB0F0BD10B5054B6D
:104A5C000446112240F8043B002100F06EFC204675
:104A6C0010BD00BF80560D000346074A10B543F831
:104A7C00042B01F1100251F8044B43F8044B914202
:104A8C00F9D10A781A7010BD80560D0010B59DF83A
:104A9C00084044EA032343EA024242EA0161042348
:104AAC004160037510BD37B50D788B784A78C9789D
:104ABC0000912946FFF7EAFF03B030BD41747047FF
:104ACC00704708B50021007CFFF7C4FC30EA2000D9
:104ADC0028BF4FF0FF3008BD08B50121007CFFF75F
:104AEC00B9FC30EA200028BF4FF0FF3008BD08B5F4
:104AFC00007CFFF7A7FC20EAE07008BD08B5007C3D
:104B0C00FFF798FC20EAE07008BD007CFFF7B2BC10
:104B1C0010B51421044600F0A8FA204610BD38B593
:104B2C000446007C0D46FFF78DFC002801DC607C00
:104B3C0028B12946207CFFF795FC20EAE07038BDAF
:104B4C0010B50446002363604FF47A73A360054BE1
:104B5C00236001230846217463741146FFF75AFC45
:104B6C00204610BD94560D000022007CFFF75ABC65
:104B7C0010B514220446002100F0DFFB204610BDC6
:104B8C0030B50E4D87B001A8FFF7F2FF296811F080
:104B9C00010410D12846FFF77CFA60B101AA214626
:104BAC000748FFF7CDFF2846FFF778FA054A064974
:104BBC00034800F055FA024807B030BDE8E3032083
:104BCC00ECE3032044E30320CD4A0D000022114600
:104BDC004068FFF793BC002211464068FFF7AEBC5B
:104BEC00002211464068FFF7B9BC00224068FFF76D
:104BFC00ADBC002281F001014068FFF797BC002397
:104C0C001A4619464068FFF789BC00231A46194614
:104C1C004068FFF77BBC002211464068FFF75EBC82
:104C2C00002202214068FFF761BC00231A4640684D
:104C3C00FFF74CBC38B5084C28252A4600212046E5
:104C4C0000F07BFB4FF0FF336360044B25800422A4
:104C5C005A60034A1A6038BD08E4032000E40320BC
:104C6C00C4560D0070474174704708B5007CFFF7BF
:104C7C00C1FB20EAE07008BD08B5007CFFF79AFB89
:104C8C0020EAE07008BD08B5007CFFF7A3FB30EA12
:104C9C00200028BF4FF0FF3008BD08B5007CFFF79F
:104CAC0091FB30EA200028BF4FF0FF3008BD007C9C
:104CBC00FFF798BB10B51421044600F0D6F9204636
:104CCC0010BD70B5457C04460E4625B9007CFFF737
:104CDC0091FB002805DD3146207CBDE87040FFF7D4
:104CEC0061BB284670BD000010B50446084611464D
:104CFC00002262604FF47A72A260054A226001229F
:104D0C00207462741A46FFF745FB204610BD00BFA5
:104D1C00F8560D000023007CFFF774BB0022FFF750
:104D2C00F9BF000038B50C4D296811F0010411D100
:104D3C002846FFF7AEF968B1084A094B09482146E5
:104D4C00FFF7D2FF2846FFF7A9F9074A074905489C
:104D5C0000F086F9034838BDC8E40320CCE40320F6
:104D6C0044E4032030E4032044E30320714C0D00A1
:104D7C00002211464068FFF7E1BB00221146406853
:104D8C00FFF7ECBB00224068FFF7E0BB002281F08C
:104D9C0001014068FFF7CABB00231A460121406895
:104DAC00FFF7BCBB00231A4619464068FFF7AEBBA1
:104DBC00002211464068FFF7A1BB00221146406853
:104DCC00FFF78CBB002202214068FFF78FBB00234A
:104DDC001A464068FFF77ABB38B5054688B10468B7
:104DEC004CB1A3681BB103222146204698471021E1
:104DFC00204600F03AF928461421BDE8384000F06E
:104E0C0034B938BD10B103685B681847704710B5EA
:104E1C0003680446BBB15868FFF78CFA78B923686D
:104E2C005A7C12B95868FFF78DFA23685868FFF757
:104E3C0091FA20680023236028B1FFF7CDFF20688A
:104E4C0008B1FFF7C9FF204610BD000038B50C4B68
:104E5C0003600446D0F8CC0108B1FFF718F9D4F878
:104E6C00C45135B12846FFF7D2FF0421284600F083
:104E7C00FCF8A06808B1FFF7C5FF204638BD00BF9D
:104E8C0028570D0038B50E4C0E4B2360002502231D
:104E9C0004F5E4706360A560C4F8C451C4F8C8514B
:104EAC00FFF768FA084BC4F8CC5184F8D051236052
:104EBC002046064A0649BDE8384000F0D1B800BF8C
:104ECC0050E503205C570D0028570D0044E30320E8
:104EDC00594E0D0000231A464068FFF7F7BA00221E
:104EEC0002214068FFF702BB002211464068FFF721
:104EFC00F5BA002211464068FFF700BB00231A46A2
:104F0C0019464068FFF702BB00231A461946406851
:104F1C00FFF704BB002281F001014068FFF706BBDC
:104F2C0000224068FFF712BB002211464068FFF7D1
:104F3C0015BB002211464068FFF700BB2DE9F0437A
:104F4C00002495B016460D460746FFF77FFD214617
:104F5C0020220CA8009400F0F0F940230C93214679
:104F6C006B460CAA3046FFF7BDF90446002844D125
:104F7C00024601216868FFF7C1FA022180462246E9
:104F8C006868FFF7BBFA009E81462146002E34D09C
:104F9C00002932D17368022B02D00A2B09D02AE0E7
:104FAC00B8F1000F27D0716938460431FFF77BFD4B
:104FBC0020E0B9F1000F1ED07469112201A800F095
:104FCC00BCF906238DF8143001AD04F10803183434
:104FDC00186859682A4603C20833A3421546F7D10C
:104FEC0001A906A807ADFFF73FFD0FCD3C1D0FC46F
:104FFC002B6823700121F669C8E70098FFF76AF95E
:10500C00384615B0BDE8F083024B034A1A60002203
:10501C005A60704724E703205C570D0070B50C4CA8
:10502C000C4E0D4D00212046FFF716FB20460B4C75
:10503C003246294600F014F801212046FFF70CFBFC
:10504C00324629462046BDE8704000F009B800BF42
:10505C002CE7032044E3032055460D003CE70320D6
:10506C000B460146184600F04FB9FFF70EB800008A
:10507C00184B1A68D1075CBF01221A60164B1A68CC
:10508C00D2075CBF01221A60144B1A68D0075CBFB0
:10509C0001221A60124B1A68D1075CBF01221A60F8
:1050AC00104B1A68D2075CBF01221A600E4B1A68AB
:1050BC00D0075CBF01221A600C4B1A68D1075CBF89
:1050CC0001221A600A4B1A68D2075CBF01221A60CF
:1050DC00704700BF6CE7032068E7032064E70320F8
:1050EC0060E703205CE7032058E7032054E7032024
:1050FC0050E70320244B1A68D0075CBF01221A60CA
:10510C00224B1A68D1075CBF01221A60204B1A6827
:10511C00D2075CBF01221A601E4B1A68D0075CBF15
:10512C0001221A601C4B1A68D1075CBF01221A605D
:10513C001A4B1A68D2075CBF01221A60184B1A6806
:10514C00D0075CBF01221A60164B1A68D1075CBFEE
:10515C0001221A60144B1A68D2075CBF01221A6034
:10516C00124B1A68D0075CBF01221A60104B1A68E8
:10517C00D1075CBF01221A600E4B1A68D2075CBFC4
:10518C0001221A60704700BF9CE7032098E70320B8
:10519C0094E7032090E703208CE7032088E70320A3
:1051AC0084E7032080E703207CE7032078E70320D3
:1051BC0074E7032070E70320244B1A68D0075CBF08
:1051CC0001221A60224B1A68D1075CBF01221A60B7
:1051DC00204B1A68D2075CBF01221A601E4B1A685A
:1051EC00D0075CBF01221A601C4B1A68D1075CBF48
:1051FC0001221A601A4B1A68D2075CBF01221A608E
:10520C00184B1A68D0075CBF01221A60164B1A683B
:10521C00D1075CBF01221A60144B1A68D2075CBF1D
:10522C0001221A60124B1A68D0075CBF01221A6067
:10523C00104B1A68D1075CBF01221A600E4B1A681A
:10524C00D2075CBF01221A60704700BFCCE7032075
:10525C00C8E70320C4E70320C0E70320BCE7032012
:10526C00B8E70320B4E70320B0E70320ACE7032042
:10527C00A8E70320A4E70320A0E70320184B1A6833
:10528C00D1075CBF01221A60164B1A68D2075CBFAB
:10529C0001221A60144B1A68D0075CBF01221A60F5
:1052AC00124B1A68D1075CBF01221A60104B1A68A6
:1052BC00D2075CBF01221A600E4B1A68D0075CBF84
:1052CC0001221A600C4B1A68D1075CBF01221A60CC
:1052DC000A4B1A68D2075CBF01221A60704700BFE4
:1052EC00ECE70320E8E70320E4E70320E0E70320F2
:1052FC00DCE70320D8E70320D4E70320D0E7032022
:10530C000A22002100F0E0B810B5054C13462CB170
:10531C000A4601460220AFF3008010BD204610BDA6
:10532C000000000010B5431E0A44914204D011F84D
:10533C00014B03F8014FF8E710BD024403469342BA
:10534C0002D003F8011BFAE77047000038B5124B86
:10535C001C68A36B0546D3B91820FFF71FF943F25D
:10536C000E33A06303804AF6CD33438041F23423DD
:10537C0083804EF26D63C3804DF6EC63038105238D
:10538C0043810B23838101220023C0E90423A36BF7
:10539C0000221D615A6138BD40E30320034611F819
:1053AC00012B03F8012B002AF9D17047034613F89F
:1053BC00012B002AFBD1181A013870472DE9F04750
:1053CC0080464048D0F800900F463D4615F8014BFA
:1053DC0009EB0400407800F0080000F0FF0608B16B
:1053EC002F46F2E72D2C03D1BD1C7C78012603E05F
:1053FC002B2C04BF7C78BD1C13B1102B0AD15BE0A5
:10540C00302C57D1287800F0DF0058284DD16C781B
:10541C0010230235002E14BF4FF0004C6FF0004CDF
:10542C000027BCFBF3FA384603FB1ACC09EB040E3D
:10543C009EF801E01EF0040F01D0303C0BE01EF092
:10544C00030E1BD0BEF1010F0CBF4FF0370E4FF007
:10545C00570ECEEB0404A34210DDB7F1FF3F0AD088
:10546C00504506D801D1644503DC03FB00400127FD
:10547C0001E04FF0FF3715F8014BD7E77B1C0CD13F
:10548C00002E4FF0220314BF4FF000406FF000408D
:10549C00C8F800302AB9BDE8F08706B1404272B1B5
:1054AC0007B1691E1160BDE8F0873024002BB1D123
:1054BC000823AFE70A23ADE7302CA3D0AAE7BDE859
:1054CC00F08700BFDCE2032013460A46014602487F
:1054DC000068FFF773BF00BF40E303201D400D00C1
:1054EC0059400D0085400D0089400D000000000062
:1054FC00677073466978006770734C6174006770ED
:10550C00734C6F6E670067707353706565640067EA
:10551C0070735361747356697300000000000000CF
:10552C000000000037460D002D460D0023460D00EF
:10553C0019460D000D460D0001460D00F5450D00F8
:10554C00ED450D00E3450D00D9450D00494F0D000B
:10555C00000000000000000055460D0057460D00ED
:10556C00626175640053657269616C0053657269A0
:10557C00616C31007479706500706172616D0063EB
:10558C006D6400696400686E64007374726D00660B
:10559C00696C74006C766C0061646448616E646C58
:1055AC0065720072656D6F766548616E646C6572CC
:1055BC0000656E756D48616E646C657273004A535C
:1055CC004F4E53747265616D4C6F6748616E646CBD
:1055DC0065720061707000253031307520005D20DF
:1055EC00002564002C200028293A2000205B006351
:1055FC006F6465203D200025690064657461696CE9
:10560C0073203D20000D0A0066006C6E00666E0073
:10561C00636F64650064657461696C006E6F6E65C0
:10562C0000747261636500696E666F007761726EFB
:10563C00006572726F720070616E696300616C6CF0
:10564C00005A00252B3033643A2530327500255929
:10565C002D256D2D25645425483A254D3A25532585
:10566C007A0061736374696D6500000000000000CE
:10567C0000000000F5490D00E5490D00E7490D005B
:10568C000000000000000000CD4A0D001D4B0D0075
:10569C002B4B0D00FD470D00094B0D00CF4A0D00A3
:1056AC00E54A0D00174B0D00FB4A0D00C94A0D00D1
:1056BC000000000000000000374C0D002D4C0D00C8
:1056CC00234C0D00D94B0D00174C0D000B4C0D004D
:1056DC00FF4B0D00F74B0D00ED4B0D00E34B0D0098
:1056EC00494F0D000000000000000000714C0D003F
:1056FC00C14C0D00CF4C0D00FD470D00854C0D002D
:10570C00A74C0D00934C0D00BB4C0D00734C0D00C1
:10571C00774C0D000000000000000000DB4D0D0078
:10572C00D14D0D00C74D0D00BD4D0D00B14D0D00FF
:10573C00A54D0D00994D0D00914D0D00874D0D009F
:10574C007D4D0D00494F0D000000000000000000D1
:10575C00E14E0D00EB4E0D00F54E0D00FF4E0D0011
:10576C00094F0D00154F0D00214F0D002D4F0D0051
:10577C00354F0D003F4F0D00494F0D0000202020EC
:10578C0020202020202028282828282020202020E5
:10579C0020202020202020202020202020881010B5
:1057AC001010101010101010101010101004040411
:1057BC0004040404040404101010101010104141CF
:1057CC0041414141010101010101010101010101BD
:1057DC0001010101010101011010101010104242D1
:1057EC00424242420202020202020202020202028D
:1057FC00020202020202020210101010200000002D
:10580C00000000000000000000000000000000008C
:10581C00000000000000000000000000000000007C
:10582C00000000000000000000000000000000006C
:10583C00000000000000000000000000000000005C
:10584C00000000000000000000000000000000004C
:10585C00000000000000000000000000000000003C
:10586C00000000000000000000000000000000002C
:10587C00000000000000000000000000000000001C
:10588C00000000000000000000000000000000000C
:10589C0000000000000000000000000000000000FC
:1058AC0000000000000000000000000000000000EC
:1058BC0000000000000000000000000000000000DC
:1058CC0000000000000000000000000000000000CC
:1058DC0000000000000000000000000000000000BC
:1058EC004300000035420D0041460D008D460D0071
:1058FC00ED470D00AD480D00BD480D00F5480D00FD
:10590C00414C0D00914E0D0015500D0029500D000D
:10591C007D500D0001510D00C5510D0089520D0037
:04592C000000000077
:10593000E80300006E560D0088570D0000000000BF
:105940008C580D00AC580D00CC580D000000000024
:10595000000000000000000000000000EC580D00F6
:105960000000000000000000000000000000000037
:105970000000000000000000000000000000000027
:105980000000000000000000000000000000000017
:10599000000000000000000000000000E0E2032022
:1059A000FFFFFFFF00000102030405060708090AC4
:1059B0000B0C0D0E0F101112131415161718191ABF
:0859C0001B1C1D1E1F20280006
:0459C80078563412C7
:04000003D000401CCD
:00000001FF
