:02000002D0002C
:1040000000400D00E8590D00000006000D000501FC
:0840100004017E050000000020
:0440180000560D0041
:10401C0009480A49884208B505D0094A824202D0AB
:10402C00121A01F091FA0748074A0021121A01F0FE
:10403C0096FA014808BD00BF14E3032050590D0047
:10404C0084E3032084E30320F0E7032070B500F041
:10405C00DFFC074C074BE41AA40800251E46A542BA
:10406C0004D056F8253098470135F8E770BD00BFED
:10407C0050590D0014590D0000F038B808B500F077
:10408C0073F8BDE8084000F091BC00F093BA00F062
:10409C0091BA0078B0FA80F04009704701230370A0
:1040AC007047000038B50E49054600F0A6FB0446E3
:1040BC0030B10C4B0121188801F08DF8012038BD6E
:1040CC000949284600F099FB30B1064B2146188867
:1040DC0001F081F8204638BD4FF0FF3038BD00BFED
:1040EC0014560D0018E3032017560D0073B5082362
:1040FC0000246A46012500941449ADF8003020468E
:10410C002346134E019500F03DFA00F09DFD4FF44F
:10411C00165100F08DFD00F06BFE4FF4165100F0BF
:10412C0061FE2946308801F045F82946308801F0B7
:10413C0052F8234602220749074800F013FA074AAF
:10414C000749084800F094FC02B070BDC0D40100CF
:10415C0018E303209CE303201B560D0028560D008A
:10416C00B1400D00514A0D0038B500F041FE036816
:10417C001B699847002826DD00F03AFE0368124CB4
:10418C005B699847114BC1B20A29186004D0104AD8
:10419C002368126893420CDB0E4D00F055FD296824
:1041AC0000F07BFB0C49284600F0F2FA0023236058
:1041BC0004E001330748236000F012FB0A20BDE83D
:1041CC00384000F0B5BB38BD98E303209CE30320D6
:1041DC0014E3032088E3032017570D0010B5074C98
:1041EC0000F024F80649204600F0A5FA2046054ABE
:1041FC000549BDE8104001F049B800BF88E3032031
:10420C0017570D0084E30320B5460D0008B5024B8B
:10421C001B689B68019308BD6802030008B5024B3C
:10422C001B68DB68019308BD6802030008B5024BEC
:10423C001B681B68019308BD2C02030008B5024BD8
:10424C001B689B68019308BD2C02030008B5024B48
:10425C001B68DB68019308BD2C02030008B5024BF8
:10426C001B681B69019308BD2C02030008B5024BA7
:10427C001B68DB69019308BD3002030008B5024BD3
:10428C001B681B6A019308BD3002030008B5024B82
:10429C001B685B68019308BD1802030008B5024B4C
:1042AC001B685B69019308BD1802030008B5024B3B
:1042BC001B689B68019308BD4802030008B5024BBC
:1042CC001B681B69019308BD4802030008B5024B2B
:1042DC001B685B69019308BD4802030008B5024BDB
:1042EC001B681B6B019308BD4802030008B5024B09
:1042FC001B685B6C019308BD4802030008B5024BB8
:10430C001B685B69019308BD6402030008B5024B8E
:10431C001B681B68019308BD3C02030008B5024BE7
:10432C001B68DB68019308BD3C02030008B5024B17
:10433C001B681B69019308BD3C02030008B5024BC6
:10434C001B685B69019308BD3C02030008B5024B76
:10435C001B689B69019308BD3C02030008B5024B26
:10436C001B68DB69019308BD3C02030008B5024BD6
:10437C001B681B6A019308BD3C02030008B5024B85
:10438C001B689B6A019308BD3C02030008B5024BF5
:10439C001B68DB6A019308BD3C02030008B5024BA5
:1043AC001B681B6A019308BD2802030008B5024B69
:1043BC001B685B6A019308BD2802030008B5024B19
:1043CC001B689B6A019308BD2802030008B5024BC9
:1043DC001B68DB6A019308BD2802030008B5024B79
:1043EC001B681B6B019308BD2802030008B5024B28
:1043FC001B685B6B019308BD2802030008B5024BD8
:10440C001B681B6C019308BD2802030008B5024B06
:10441C001B681B68019308BD4C02030008B5024BD6
:10442C001B685B68019308BD4C02030008B5024B86
:10443C001B681B69019308BD4C02030008B5024BB5
:10444C001B685B69019308BD4C02030008B5024B65
:10445C001B689B69019308BD4C02030008B5024B15
:10446C001B68DB69019308BD4C02030008B5024BC5
:10447C001B681B6A019308BD4C02030008B5024B74
:10448C001B685B68019308BD2002030008B5024B52
:10449C001B685B69019308BD2002030008B5034B40
:1044AC001B68D3F88830019308BD0000200203007C
:1044BC0008B5034B1B68D3F89430019308BD00007A
:1044CC002002030008B5024B1B685B68019308BD12
:1044DC004002030008B5024B1B689B68019308BDA2
:1044EC004002030008B5024B1B68DB68019308BD52
:1044FC004002030008B5024B1B681B69019308BD01
:10450C004002030008B5024B1B685B69019308BDB0
:10451C004002030008B5024B1B689B69019308BD60
:10452C004002030008B5024B1B68DB69019308BD10
:10453C004002030008B5024B1B681B6A019308BDBF
:10454C004002030008B5024B1B681B6B019308BDAE
:10455C004002030008B5024B1B685B6B019308BD5E
:10456C004002030008B5024B1B681B68019308BD91
:10457C004402030008B5024B1B685B68019308BD3D
:10458C004402030008B5024B1B689B6B019308BDEA
:10459C004402030008B5024B1B68DB6B019308BD9A
:1045AC004402030008B5024B1B681B68019308BD4D
:1045BC001C02030008B5024B1B685B68019308BD25
:1045CC001C02030008B5024B1B689B68019308BDD5
:1045DC001C020300002211464068FFF7ABBF00220B
:1045EC0011464068FFF7B6BF00224068FFF7AABF2C
:1045FC00002281F001014068FFF794BF00231A46A6
:10460C0019464068FFF786BF00231A4619464068D2
:10461C00FFF778BF002211464068FFF76BBF0022FE
:10462C0011464068FFF756BF002202214068FFF791
:10463C0059BF00231A464068FFF744BF024B0322C0
:10464C005A60024A1A607047A0E3032034560D00EA
:10465C00704710B51021044600F01DFE204610BD19
:10466C0070B5084B0360044600250E4640F80C5FFD
:10467C00FFF734FE30462671FFF7F8FDA5602046A3
:10468C0070BD00BF68560D000079FFF7F7BD000044
:10469C00044B00204FF6FF72187058809A80FFF779
:1046AC00EDBE00BFA8E3032010B504460068FFF779
:1046BC0081FF204610BD10B50446006808B1FFF715
:1046CC0079FF00232360A360636010BD38B50446F6
:1046DC000D4600680131FFF775FF10B184E8210029
:1046EC00012038BD10B50368044613B143688B42F2
:1046FC0007D22046FFF7EAFF20B1A3680BB9226866
:10470C001370012010BD70B50E46114604461546B7
:10471C00FFF7E8FF18B92046FFF7CDFF09E02A465E
:10472C003146A560206800F00FFF2268A3680021C5
:10473C00D154204670BD38B5002304460360436055
:10474C00836003730D4639B1084600F04BFF2946D0
:10475C0002462046FFF7D7FF204638BD884210B5E9
:10476C000B46044607D0096819B19A68FFF7CBFFCE
:10477C0001E0FFF7A0FF204610BD10B50023044652
:10478C000360436083600373FFF7E8FF204610BDAE
:10479C0038B505460C4641B1084600F023FF2146CA
:1047AC0002462846FFF7AFFF01E0FFF784FF2846DB
:1047BC0038BD70B504460E4609B9002070BD6AB10B
:1047CC008368D5182946FFF78DFF0028F5D020689F
:1047DC00A3683146184400F0FDFEA560012070BDB1
:1047EC0007B500238DF80410012201A98DF80530BE
:1047FC00FFF7DFFF03B05DF804FB08B582680B46DA
:10480C0012B919B9012008BD11B90368187802E072
:10481C00006800F0D5FEB0FA80F0400908BD000039
:10482C00024800230360FFF761BD00BFB0E3032023
:10483C00F8B506460D468F180024BD420CD03368DF
:10484C0015F8011B9B6830469847002801DB04448F
:10485C00F3E7002C08BF04462046F8BD70B50546AA
:10486C000C46084649B100F0BDFE2B6802462146B5
:10487C002846DB68BDE87040184770BD03689B682C
:10488C00184738B50D210546FFF7F8FF0A210446F5
:10489C002846FFF7F3FF204438BD38B50546FFF72F
:1048AC00DDFF04462846FFF7ECFF204438BD30B549
:1048BC008BB00B4600218DF82410012A98BF0A22D8
:1048CC000DF12304B3FBF2F505FB123303F0FF03E8
:1048DC00092B94BF30333733DBB2214604F801394E
:1048EC002B46002DEED1FFF7B9FF0BB030BD10B445
:1048FC002AB903685DF8044B9B68C9B21847D2B259
:10490C005DF8044BFFF7D3BFFFF7F1BF014B024A31
:10491C001A607047B4E30320E3560D00024B1A688B
:10492C00024B1A60704700BF1CE30320B8E303205E
:10493C000021FFF7ABBD10B58368044613B1032209
:10494C0001469847204610BD10B50446FFF7F3FF0B
:10495C00204610BD0348044A04490023836000F03C
:10496C0095BC00BFBCE3032084E3032055490D0034
:10497C0008B50C4B33B100F067F903681B69984715
:10498C00002809DC084B63B100F032FA03681B699C
:10499C009847002803DC08BDAFF30080F2E7AFF3C3
:1049AC00008008BD000000000000000008B5FFF703
:1049BC00DFFFFFF773FC014B186008BD34E70320E1
:1049CC0007B5002300931A466FF07701FFF770FDCF
:1049DC0003B05DF804FB000007B543880A2B08D030
:1049EC00502B09D1094B1B683BB103B05DF804EBAC
:1049FC001847FFF7E5FF06E0002300931A466FF017
:104A0C007701FFF755FD03B05DF804FBCCE3032001
:104A1C0010B5FFF73BFC044600F0AAFD074B13B1A1
:104A2C002046AFF3008000210448FFF7B3FD0021BE
:104A3C000348BDE81040FFF731BD00BF0000000087
:104A4C00E5490D0010B588B004466846FFF773FEC3
:104A5C00694604A8FFF791FE04A8A047044604A8E1
:104A6C00FFF722FE6846FFF71FFE204608B010BD78
:104A7C00F0B5102485B007460E4615460021224697
:104A8C00684600F06CFD002269461046ADF8004007
:104A9C00029703960195FFF76DFD05B0F0BD7047C9
:104AAC0010B51821044600F0F6FB204610BDF0B5F9
:104ABC00037D062B8DB00E4600F104074FF0000469
:104ACC0002D000F1080518E00CAD394605F8304D60
:104ADC002F232A460A20FFF711FC284600F082FDFE
:104AEC0033680246DB682946304698470FE024B10C
:104AFC002E213046FFF7C2FE044415F8011D0A2290
:104B0C003046FFF701FFBD420444F0D120460DB002
:104B1C00F0BD000010B5054B0446112240F8043BD3
:104B2C00002100F01CFD204610BD00BF80570D0079
:104B3C000346074A10B543F8042B01F1100251F853
:104B4C00044B43F8044B9142F9D10A781A7010BD0A
:104B5C0080570D0010B59DF8084044EA032343EA42
:104B6C00024242EA016104234160037510BD37B56E
:104B7C000D788B784A78C97800912946FFF7EAFFBF
:104B8C0003B030BD41747047704708B50021007CFC
:104B9C00FFF75CFC30EA200028BF4FF0FF3008BD67
:104BAC0008B50121007CFFF751FC30EA200028BF3A
:104BBC004FF0FF3008BD08B5007CFFF73FFC20EA42
:104BCC00E07008BD08B5007CFFF730FC20EAE0700F
:104BDC0008BD007CFFF74ABC10B51421044600F058
:104BEC005AFB204610BD38B50446007C0D46FFF735
:104BFC0025FC002801DC607C28B12946207CFFF7CD
:104C0C002DFC20EAE07038BD10B50446002363602B
:104C1C004FF47A73A360054B23600123084621747B
:104C2C0063741146FFF7F2FB204610BD94570D003C
:104C3C000022007CFFF7F2BB10B5142204460021C1
:104C4C0000F08DFC204610BD30B50E4D87B001A88C
:104C5C00FFF7F2FF296811F0010410D12846FFF785
:104C6C0018FA60B101AA21460748FFF7CDFF284684
:104C7C00FFF714FA054A0649034800F007FB0248FF
:104C8C0007B030BDD0E30320D4E3032084E303203A
:104C9C00954B0D00002211464068FFF72BBC0022FB
:104CAC0011464068FFF746BC002211464068FFF7EA
:104CBC0051BC00224068FFF745BC002281F0010185
:104CCC004068FFF72FBC00231A4619464068FFF7CF
:104CDC0021BC00231A4619464068FFF713BC00227A
:104CEC0011464068FFF7F6BB002202214068FFF72F
:104CFC00F9BB00231A464068FFF7E4BB38B5084CF3
:104D0C0028252A460021204600F029FC4FF0FF33CD
:104D1C006360044B258004225A60034A1A6038BD34
:104D2C00F0E30320E8E30320C4570D0070474174FF
:104D3C00704708B5007CFFF721FB20EAE07008BD46
:104D4C0008B5007CFFF7F2FA20EAE07008BD08B560
:104D5C00007CFFF7FBFA30EA200028BF4FF0FF3051
:104D6C0008BD08B5007CFFF7E9FA30EA200028BF3F
:104D7C004FF0FF3008BD007CFFF7F0BA10B51421DE
:104D8C00044600F088FA204610BD70B5457C0446F8
:104D9C000E4625B9007CFFF7F1FA002805DD3146F7
:104DAC00207CBDE87040FFF7B9BA284670BD000002
:104DBC0010B5044608461146002262604FF47A7220
:104DCC00A260054A22600122207462741A46FFF721
:104DDC009DFA204610BD00BFF8570D000023007C43
:104DEC00FFF7D4BA0022FFF7F9BF007CFFF7BEBA79
:104DFC0038B50C4D296811F0010411D12846FFF784
:104E0C0048F968B1084A094B09482146FFF7D0FF19
:104E1C002846FFF743F9074A0749054800F036FAD8
:104E2C00034838BDB0E40320B4E403202CE4032091
:104E3C0018E4032084E30320394D0D007047F8B5C6
:104E4C00064615460C468F18BC4206D0336814F83B
:104E5C00011B9B6830469847F6E72846F8BD0022B0
:104E6C00007CFFF79BBA0021007CFFF79FBA002162
:104E7C00007CFFF7A3BA0021007CFFF7A7BA002142
:104E8C00007CFFF7ABBA10B51421044600F003FA0E
:104E9C00204610BD10B504464FF47A730846A36043
:104EAC000021044B207461602360FFF7A7FA2046B1
:104EBC0010BD00BF28580D000021007CFFF796BAEA
:104ECC00002211464068FFF735BB002211464068AE
:104EDC00FFF740BB00224068FFF734BB002281F093
:104EEC0001014068FFF71EBB00231A4601214068F0
:104EFC00FFF710BB00231A4619464068FFF702BBA8
:104F0C00002211464068FFF7F5BA002211464068AE
:104F1C00FFF7E0BA002202214068FFF7E3BA002352
:104F2C001A464068FFF7CEBA38B5054688B1046812
:104F3C004CB1A3681BB1032221462046984710218F
:104F4C00204600F0A8F928461421BDE8384000F0AE
:104F5C00A2B938BD10B103685B681847704710B52B
:104F6C0003680446BBB15868FFF7A0F978B9236809
:104F7C005A7C12B95868FFF7A1F923685868FFF7F3
:104F8C00A5F920680023236028B1FFF7CDFF206826
:104F9C0008B1FFF7C9FF204610BD000038B50C4B17
:104FAC0003600446D0F8CC0108B1FFF770F8D4F8D0
:104FBC00C45135B12846FFF7D2FF0421284600F032
:104FCC006AF9A06808B1FFF7C5FF204638BD00BFDD
:104FDC0050580D0038B50E4C0E4B236000250223A3
:104FEC0004F5E4706360A560C4F8C451C4F8C851FA
:104FFC00FFF77CF9084BC4F8CC5184F8D0512360EE
:10500C002046064A0649BDE8384000F03FB900BFCB
:10501C0038E5032084580D0050580D0084E303201C
:10502C00A94F0D0000231A464068FFF74BBA002227
:10503C0002214068FFF756BA002211464068FFF77C
:10504C0049BA002211464068FFF754BA00231A46A9
:10505C0019464068FFF756BA00231A4619464068AD
:10506C00FFF758BA002281F001014068FFF75ABAE5
:10507C0000224068FFF766BA002211464068FFF72D
:10508C0069BA002211464068FFF754BA2DE9F04383
:10509C00002495B016460D460746FFF73BFD21460A
:1050AC0020220CA8009400F05AFA40230C932146BD
:1050BC006B460CAA3046FFF7B1F80446002844D1E1
:1050CC00024601216868FFF715FA02218046224644
:1050DC006868FFF70FFA009E81462146002E34D0F7
:1050EC00002932D17368022B02D00A2B09D02AE096
:1050FC00B8F1000F27D0716938460431FFF737FD3E
:10510C0020E0B9F1000F1ED07469112201A800F043
:10511C0026FA06238DF8143001AD04F10803183477
:10512C00186859682A4603C20833A3421546F7D1BA
:10513C0001A906A807ADFFF7FBFC0FCD3C1D0FC462
:10514C002B6823700121F669C8E70098FFF75EF819
:10515C00384615B0BDE8F083024B034A1A600022B2
:10516C005A6070470CE7032084580D0010B50446B4
:10517C000F48FFF789FA28B1A4F10B03022B01D8D1
:10518C00002010BD00F062F8FFF796FE08B1012C6C
:10519C00F6D9FFF72DFEFFF728FE18B1A4F109038D
:1051AC00012BEDD9232C8CBF0020012010BD00BF9A
:1051BC0014E70320232838B504460D460AD8FF29E6
:1051CC0008D0FFF7D3FF28B129462046BDE8384068
:1051DC00FFF734B838BD38B504460D46FFF736F83E
:1051EC00FF2810D0062804D84D2323FA00F0C3075B
:1051FC0009D42046FFF7BAFF28B129462046BDE85E
:10520C003840FFF72BB838BD70B50C4C0C4E0D4D1B
:10521C0000212046FFF724FA20460B4C3246294643
:10522C0000F034F801212046FFF71AFA32462946DD
:10523C002046BDE8704000F029B800BF14E70320F9
:10524C0084E303205D460D0024E7032038B50B4DA5
:10525C00296811F001040FD12846FEF71AFF58B146
:10526C0021460748FFF716FE2846FEF717FF054AAA
:10527C000549034800F00AF8014838BD38E7032017
:10528C003CE7032084E30320494E0D000B46014606
:10529C00184600F04BB9FEF7F8BE0000184B1A6820
:1052AC00D1075CBF01221A60164B1A68D2075CBF8B
:1052BC0001221A60144B1A68D0075CBF01221A60D5
:1052CC00124B1A68D1075CBF01221A60104B1A6886
:1052DC00D2075CBF01221A600E4B1A68D0075CBF64
:1052EC0001221A600C4B1A68D1075CBF01221A60AC
:1052FC000A4B1A68D2075CBF01221A60704700BFC4
:10530C006CE7032068E7032064E7032060E70320D1
:10531C005CE7032058E7032054E7032050E7032001
:10532C00244B1A68D0075CBF01221A60224B1A6802
:10533C00D1075CBF01221A60204B1A68D2075CBFF0
:10534C0001221A601E4B1A68D0075CBF01221A603A
:10535C001C4B1A68D1075CBF01221A601A4B1A68E1
:10536C00D2075CBF01221A60184B1A68D0075CBFC9
:10537C0001221A60164B1A68D1075CBF01221A6011
:10538C00144B1A68D2075CBF01221A60124B1A68C0
:10539C00D0075CBF01221A60104B1A68D1075CBFA2
:1053AC0001221A600E4B1A68D2075CBF01221A60E8
:1053BC00704700BF9CE7032098E7032094E7032085
:1053CC0090E703208CE7032088E7032084E7032081
:1053DC0080E703207CE7032078E7032074E70320B1
:1053EC0070E70320244B1A68D0075CBF01221A60B7
:1053FC00224B1A68D1075CBF01221A60204B1A6835
:10540C00D2075CBF01221A601E4B1A68D0075CBF22
:10541C0001221A601C4B1A68D1075CBF01221A606A
:10542C001A4B1A68D2075CBF01221A60184B1A6813
:10543C00D0075CBF01221A60164B1A68D1075CBFFB
:10544C0001221A60144B1A68D2075CBF01221A6041
:10545C00124B1A68D0075CBF01221A60104B1A68F5
:10546C00D1075CBF01221A600E4B1A68D2075CBFD1
:10547C0001221A60704700BFCCE70320C8E7032065
:10548C00C4E70320C0E70320BCE70320B8E70320F0
:10549C00B4E70320B0E70320ACE70320A8E7032020
:1054AC00A4E70320A0E70320184B1A68D1075CBFC0
:1054BC0001221A60164B1A68D2075CBF01221A60CF
:1054CC00144B1A68D0075CBF01221A60124B1A6881
:1054DC00D1075CBF01221A60104B1A68D2075CBF5F
:1054EC0001221A600E4B1A68D0075CBF01221A60A9
:1054FC000C4B1A68D1075CBF01221A600A4B1A6860
:10550C00D2075CBF01221A60704700BFECE7032092
:10551C00E8E70320E4E70320E0E70320DCE70320CF
:10552C00D8E70320D4E70320D0E7032010B5054CBF
:10553C0013462CB10A4601460220AFF3008010BD81
:10554C00204610BD0000000010B5431E0A449142D5
:10555C0004D011F8014B03F8014FF8E710BD0244D9
:10556C000346934202D003F8011BFAE77047000090
:10557C0038B5124B1C68A36B0546D3B91820FFF73E
:10558C0011F843F20E33A06303804AF6CD33438007
:10559C0041F2342383804EF26D63C3804DF6EC638D
:1055AC000381052343810B23838101220023C0E95E
:1055BC000423A36B00221D615A6138BD80E30320D4
:1055CC0010F8012B11F8013B012A28BF9A42F7D0A1
:1055DC00D01A7047034611F8012B03F8012B002A4F
:1055EC00F9D17047034613F8012B002AFBD1181A86
:1055FC00013870471D400D0059400D0085400D00CD
:10560C0089400D00000000006F6E006F6666006937
:10561C006E636F6D696E6742797465006C656400CA
:10562C0000000000000000003F460D0035460D0054
:10563C002B460D0021460D0015460D0009460D00A8
:10564C00FD450D00F5450D00EB450D00E1450D0048
:10565C0099500D0000000000000000005D460D0098
:10566C005F460D00626175640053657269616C0080
:10567C0053657269616C3100747970650070617288
:10568C00616D00636D6400696400686E640073741E
:10569C00726D0066696C74006C766C0061646448B1
:1056AC00616E646C65720072656D6F766548616ED3
:1056BC00646C657200656E756D48616E646C6572C4
:1056CC0073004A534F4E53747265616D4C6F67484B
:1056DC00616E646C657200617070002530313075DC
:1056EC0020005D20002564002C200028293A200091
:1056FC00205B00636F6465203D20002569006465B4
:10570C007461696C73203D20000D0A006C6E00669C
:10571C006E00636F64650064657461696C006E6F24
:10572C006E6500747261636500696E666F00776107
:10573C00726E006572726F720070616E69630061E7
:10574C006C6C005A00252B3033643A2530327500CE
:10575C0025592D256D2D25645425483A254D3A257E
:10576C0053257A0061736374696D65000000000055
:10577C0000000000BB4A0D00AB4A0D00AD4A0D0005
:10578C000000000000000000954B0D00E54B0D00E3
:10579C00F34B0D003D480D00D14B0D00974B0D0008
:1057AC00AD4B0D00DF4B0D00C34B0D00914B0D00AD
:1057BC000000000000000000FF4C0D00F54C0D0037
:1057CC00EB4C0D00A14C0D00DF4C0D00D34C0D002B
:1057DC00C74C0D00BF4C0D00B54C0D00AB4C0D0073
:1057EC0099500D000000000000000000394D0D0024
:1057FC00894D0D00974D0D003D480D004D4D0D0090
:10580C006F4D0D005B4D0D00834D0D003B4D0D009C
:10581C003F4D0D000000000000000000494E0D003F
:10582C00934E0D006B4E0D004B4E0D00734E0D0044
:10583C007B4E0D00834E0D008B4E0D0000000000C2
:10584C00000000002B4F0D00214F0D00174F0D00D5
:10585C000D4F0D00014F0D00F54E0D00E94E0D00E2
:10586C00E14E0D00D74E0D00CD4E0D0099500D00A0
:10587C00000000000000000031500D003B500D00F6
:10588C0045500D004F500D0059500D0065500D0046
:10589C0071500D007D500D0085500D008F500D0086
:1058AC0099500D00000000000000000000000000F6
:1058BC0000000000000000000000000000000000DC
:1058CC0000000000000000000000000000000000CC
:1058DC0000000000000000000000000000000000BC
:1058EC0000000000000000000000000000000000AC
:1058FC00000000000000000000000000000000009C
:10590C000000000043000000E9410D0049460D0075
:10591C009D460D002D480D0019490D0029490D001B
:10592C0061490D00094D0D00E14F0D0065510D0051
:10593C0015520D00A9520D002D530D00F1530D0001
:04594C00B5540D0041
:10595000400000000600000070570D00000000002D
:10596000B0580D00D0580D00F0580D000000000098
:1059700000000000000000000000000010590D00B1
:105980000000000000000000000000000000000017
:105990000000000000000000000000000000000007
:1059A00000000000000000000000000000000000F7
:1059B00000000000000000000000000020E30320C1
:1059C000FFFFFFFF00000102030405060708090AA4
:1059D0000B0C0D0E0F101112131415161718191A9F
:0859E0001B1C1D1E1F202800E6
:0459E80078563412A7
:04000003D000401CCD
:00000001FF
