:02000002D0002C
:1040000000400D00A8590D00000006000D0005013C
:0840100004017E050000000020
:04401800B0550D0092
:10401C0009480A49884208B505D0094A824202D0AB
:10402C00121A01F071FA0748074A0021121A01F01E
:10403C0076FA014808BD00BF28E3032010590D0093
:10404C0098E3032098E30320F0E7032070B500F019
:10405C00ADFC074C074BE41AA40800251E46A542EC
:10406C0004D056F8253098470135F8E770BD00BFED
:10407C0004590D00C8580D0000F038B808B500F010
:10408C006DF8BDE8084000F05FBC00F05FBA00F0CE
:10409C005DBA0078B0FA80F04009704701230370D4
:1040AC007047000038B50E49054600F045FB044644
:1040BC0030B10C4B0121188801F055F8012038BDA6
:1040CC000949284600F038FB30B1064B21461888C8
:1040DC0001F049F8204638BD4FF0FF3038BD00BF25
:1040EC00C4550D002CE30320C7550D0073B50823F0
:1040FC0000246A46012500941149ADF80030114E98
:10410C0001952346204600F009FA00F06BFD4FF4B0
:10411C00165100F05BFD2946308801F013F8294652
:10412C00308801F020F8234602220749074800F0A6
:10413C00E5F9074A0749084800F068FC02B070BD71
:10414C00C0D401002CE303209CE30320CB550D00CD
:10415C00D7550D00B1400D00ED490D0010B5094BC0
:10416C00094C188801F018F8206000F03BFD23681A
:10417C00064A012100F05EFB6420BDE8104000F00F
:10418C00A5BB00BF28E303209CE30320DB550D00F7
:10419C0000F010B808B5024B1B689B68019308BD72
:1041AC006802030008B5024B1B68DB68019308BD6D
:1041BC006802030008B5024B1B681B68019308BD1D
:1041CC002C02030008B5024B1B685B68019308BD09
:1041DC002C02030008B5024B1B689B68019308BDB9
:1041EC002C02030008B5024B1B68DB68019308BD69
:1041FC002C02030008B5024B1B681B69019308BD18
:10420C002C02030008B5024B1B681B6B019308BD05
:10421C002C02030008B5024B1B68DB69019308BD37
:10422C003002030008B5024B1B681B6A019308BDE2
:10423C003002030008B5024B1B685B68019308BD94
:10424C001802030008B5024B1B685B69019308BD9B
:10425C001802030008B5024B1B689B68019308BD4C
:10426C004802030008B5024B1B681B69019308BD8B
:10427C004802030008B5024B1B685B69019308BD3B
:10428C004802030008B5024B1B681B6B019308BD69
:10429C004802030008B5024B1B685B6C019308BD18
:1042AC004802030008B5024B1B685B69019308BD0B
:1042BC006402030008B5024B1B681B68019308BD20
:1042CC003C02030008B5024B1B68DB68019308BD78
:1042DC003C02030008B5024B1B681B69019308BD27
:1042EC003C02030008B5024B1B685B69019308BDD7
:1042FC003C02030008B5024B1B689B69019308BD87
:10430C003C02030008B5024B1B68DB69019308BD36
:10431C003C02030008B5024B1B681B6A019308BDE5
:10432C003C02030008B5024B1B689B6A019308BD55
:10433C003C02030008B5024B1B681B6A019308BDC5
:10434C002802030008B5024B1B685B6A019308BD89
:10435C002802030008B5024B1B689B6A019308BD39
:10436C002802030008B5024B1B68DB6A019308BDE9
:10437C002802030008B5024B1B681B6B019308BD98
:10438C002802030008B5024B1B685B6B019308BD48
:10439C002802030008B5024B1B681B6C019308BD77
:1043AC002802030008B5024B1B681B68019308BD6B
:1043BC004C02030008B5024B1B685B68019308BDF7
:1043CC004C02030008B5024B1B681B69019308BD26
:1043DC004C02030008B5024B1B685B69019308BDD6
:1043EC004C02030008B5024B1B689B69019308BD86
:1043FC004C02030008B5024B1B68DB69019308BD36
:10440C004C02030008B5024B1B681B6A019308BDE4
:10441C004C02030008B5024B1B685B68019308BD96
:10442C002002030008B5024B1B685B69019308BDB1
:10443C002002030008B5034B1B68D3F888300193A6
:10444C0008BD00002002030008B5034B1B68D3F81D
:10445C009430019308BD00002002030008B5024B04
:10446C001B685B68019308BD4002030008B5024B52
:10447C001B689B68019308BD4002030008B5024B02
:10448C001B68DB68019308BD4002030008B5024BB2
:10449C001B681B69019308BD4002030008B5024B61
:1044AC001B685B69019308BD4002030008B5024B11
:1044BC001B689B69019308BD4002030008B5024BC1
:1044CC001B68DB69019308BD4002030008B5024B71
:1044DC001B681B6A019308BD4002030008B5024B20
:1044EC001B681B6B019308BD4002030008B5024B0F
:1044FC001B685B6B019308BD4002030008B5024BBF
:10450C001B681B68019308BD4402030008B5024BED
:10451C001B685B68019308BD4402030008B5024B9D
:10452C001B689B6B019308BD4402030008B5024B4A
:10453C001B68DB6B019308BD4402030008B5024BFA
:10454C001B681B68019308BD1C02030008B5024BD5
:10455C001B685B68019308BD1C02030008B5024B85
:10456C001B689B68019308BD1C02030008B5024B35
:10457C001B685B6A019308BD1C02030000221146F4
:10458C004068FFF7A3BF002211464068FFF7AEBF9B
:10459C0000224068FFF7A2BF002281F001014068B1
:1045AC00FFF78CBF00231A4619464068FFF77EBF01
:1045BC0000231A4619464068FFF770BF00221146C7
:1045CC004068FFF763BF002211464068FFF74EBFFB
:1045DC00002202214068FFF751BF00231A464068B1
:1045EC00FFF73CBF024B03225A60024A1A60704725
:1045FC00A0E30320E8550D00704710B510210446C8
:10460C0000F029FE204610BD70B5084B036004462F
:10461C0000250E4640F80C5FFFF734FE304626713D
:10462C00FFF7F8FDA560204670BD00BF1C560D00BD
:10463C000079FFF7F7BD0000044B00204FF6FF7226
:10464C00187058809A80FFF7E5BE00BFA8E30320DE
:10465C0010B504460068FFF779FF204610BD10B571
:10466C000446006808B1FFF771FF00232360A360C4
:10467C00636010BD38B504460D4600680131FFF784
:10468C006DFF10B184E82100012038BD10B503681E
:10469C00044613B143688B4207D22046FFF7EAFF6A
:1046AC0020B1A3680BB922681370012010BD70B53E
:1046BC000E46114604461546FFF7E8FF18B920468A
:1046CC00FFF7CDFF09E02A463146A560206800F0CF
:1046DC001BFF2268A3680021D154204670BD38B559
:1046EC000023044603604360836003730D4639B1B5
:1046FC00084600F04FFF294602462046FFF7D7FF39
:10470C00204638BD884210B50B46044607D00968D0
:10471C0019B19A68FFF7CBFF01E0FFF7A0FF204625
:10472C0010BD10B50023044603604360836003731F
:10473C00FFF7E8FF204610BD08B582680B4612B99A
:10474C0019B9012008BD11B90368187802E0006896
:10475C0000F016FFB0FA80F0400908BD02480023B3
:10476C000360FFF797BD00BFB0E30320F8B5064622
:10477C000D468F180024BD420CD0336815F8011B70
:10478C009B6830469847002801DB0444F3E7002C73
:10479C0008BF04462046F8BD70B505460C460846D1
:1047AC0049B100F0F7FE2B68024621462846DB682B
:1047BC00BDE87040184770BD03689B68184738B552
:1047CC000D210546FFF7F8FF0A2104462846FFF79E
:1047DC00F3FF204438BD30B58BB00B4600218DF86B
:1047EC002410012A98BF0A220DF12304B3FBF2F521
:1047FC0005FB123303F0FF03092B94BF303337331F
:10480C00DBB2214604F801392B46002DEED1FFF71F
:10481C00C3FF0BB030BD10B42AB903685DF8044B6C
:10482C009B68C9B21847D2B25DF8044BFFF7D3BFEF
:10483C00FFF7F1BF0CB42DE9F04387B000AF07F1DF
:10484C003804054654F8049B3C600E4623464A4601
:10485C001421381DFFF78AFE132805D8391D284668
:10486C00FFF79AFF044613E000F1080323F0070357
:10487C00E846ADEB030D411C23464A4668463C60B6
:10488C00FFF774FE69462846FFF786FF0446C546C7
:10489C001EB12846FFF793FF044420461C37BD4643
:1048AC00BDE8F04302B07047014B024A1A607047F2
:1048BC00B4E3032097560D00024B1A68024B1A60A2
:1048CC00704700BF30E30320B8E303200021FFF75B
:1048DC00A9BD10B58368044613B10322014698475D
:1048EC00204610BD10B50446FFF7F3FF204610BD5F
:1048FC000348044A04490023836000F0A7BC00BFAE
:10490C00BCE3032098E30320F1480D0008B50C4BE1
:10491C0033B100F067F903681B699847002809DC7C
:10492C00084B63B100F02CFA03681B699847002808
:10493C0003DC08BDAFF30080F2E7AFF3008008BDE5
:10494C00000000000000000008B5FFF7DFFFFFF7D4
:10495C0079FC014B186008BD34E7032007B5002330
:10496C0000931A466FF07701FFF76EFD03B05DF808
:10497C0004FB000007B543880A2B08D0502B09D143
:10498C00094B1B683BB103B05DF804EB1847FFF70C
:10499C00E5FF06E0002300931A466FF07701FFF75E
:1049AC0053FD03B05DF804FBCCE3032010B5FFF717
:1049BC0041FC044600F0BCFD074B13B12046AFF39D
:1049CC00008000210448FFF7B1FD00210348BDE839
:1049DC001040FFF72FBD00BF0000000081490D0003
:1049EC0010B588B004466846FFF779FE694604A8FE
:1049FC00FFF797FE04A8A047044604A8FFF728FE7B
:104A0C006846FFF725FE204608B010BDF0B510240F
:104A1C0085B007460E46154600212246684600F032
:104A2C007EFD002269461046ADF8004002970396C1
:104A3C000195FFF76BFD05B0F0BD704710B518215F
:104A4C00044600F008FC204610BDF0B5037D062B93
:104A5C008DB00E4600F104074FF0000402D000F1B7
:104A6C00080518E00CAD394605F8304D2F232A46C1
:104A7C000A20FFF717FC284600F08CFD336802462D
:104A8C00DB682946304698470FE024B12E2130468A
:104A9C00FFF792FE044415F8011D0A223046FFF779
:104AAC00C7FEBD420444F0D120460DB0F0BD00005D
:104ABC0010B5054B0446112240F8043B002100F0D0
:104ACC002EFD204610BD00BF34570D000346074A8B
:104ADC0010B543F8042B01F1100251F8044B43F8C4
:104AEC00044B9142F9D10A781A7010BD34570D005D
:104AFC0010B59DF8084044EA032343EA024242EA17
:104B0C00016104234160037510BD37B50D788B78B6
:104B1C004A78C97800912946FFF7EAFF03B030BD07
:104B2C0041747047704708B50021007CFFF75AFCB0
:104B3C0030EA200028BF4FF0FF3008BD08B5012136
:104B4C00007CFFF74FFC30EA200028BF4FF0FF300D
:104B5C0008BD08B5007CFFF73DFC20EAE07008BDFD
:104B6C0008B5007CFFF72EFC20EAE07008BD007C45
:104B7C00FFF748BC10B51421044600F06CFB20462E
:104B8C0010BD38B50446007C0D46FFF723FC002809
:104B9C0001DC607C28B12946207CFFF72BFC20EA45
:104BAC00E07038BD10B50446002363604FF47A738F
:104BBC00A360054B236001230846217463741146DE
:104BCC00FFF7F0FB204610BD48570D000022007C7B
:104BDC00FFF7F0BB10B514220446002100F09FFC37
:104BEC00204610BD30B50E4D87B001A8FFF7F2FF7F
:104BFC00296811F0010410D12846FFF74AFA60B178
:104C0C0001AA21460748FFF7CDFF2846FFF746FAD1
:104C1C00054A0649034800F019FB024807B030BDAD
:104C2C00D0E30320D4E3032098E30320314B0D00A1
:104C3C00002211464068FFF729BC0022114640684B
:104C4C00FFF744BC002211464068FFF74FBC00221E
:104C5C004068FFF743BC002281F001014068FFF778
:104C6C002DBC00231A4619464068FFF71FBC0023D1
:104C7C001A4619464068FFF711BC002211464068DD
:104C8C00FFF7F4BB002202214068FFF7F7BB0023BB
:104C9C001A464068FFF7E2BB38B5084C28252A466F
:104CAC000021204600F03BFC4FF0FF336360044BC7
:104CBC00258004225A60034A1A6038BDF0E30320B1
:104CCC00E8E3032078570D0070474174704708B52E
:104CDC00007CFFF727FB20EAE07008BD08B5007CDC
:104CEC00FFF7F8FA20EAE07008BD08B5007CFFF782
:104CFC0001FB30EA200028BF4FF0FF3008BD08B59B
:104D0C00007CFFF7EFFA30EA200028BF4FF0FF30AD
:104D1C0008BD007CFFF7F6BA10B51421044600F06C
:104D2C009AFA204610BD70B5457C04460E4625B94E
:104D3C00007CFFF7F7FA002805DD3146207CBDE842
:104D4C007040FFF7BFBA284670BD000010B504468E
:104D5C0008461146002262604FF47A72A260054A3E
:104D6C0022600122207462741A46FFF7A3FA2046CF
:104D7C0010BD00BFAC570D00007CFFF7CBBA000094
:104D8C0038B50C4D296811F0010411D12846FFF7F4
:104D9C0080F968B1084A094B09482146FFF7D6FF4C
:104DAC002846FFF77BF9074A0749054800F04EFAF9
:104DBC00034838BDB0E40320B4E403202CE4032002
:104DCC0018E4032098E30320D54C0D007047F8B588
:104DDC00064615460C468F18BC4206D0336814F8AC
:104DEC00011B9B6830469847F6E72846F8BD002221
:104DFC00007CFFF79FBA0021007CFFF7A3BA0021CB
:104E0C00007CFFF7A7BA0021007CFFF7ABBA0021AA
:104E1C00007CFFF7AFBA10B51421044600F01BFA62
:104E2C00204610BD10B504464FF47A730846A360B3
:104E3C000021044B207461602360FFF7ABFA20461D
:104E4C0010BD00BFDC570D000021007CFFF79ABAA3
:104E5C00002211464068FFF739BB0022114640681A
:104E6C00FFF744BB00224068FFF738BB002281F0FB
:104E7C0001014068FFF722BB00231A46012140685C
:104E8C00FFF714BB00231A4619464068FFF706BB10
:104E9C00002211464068FFF7F9BA0022114640681B
:104EAC00FFF7E4BA002202214068FFF7E7BA0023BB
:104EBC001A464068FFF7D2BA38B5054688B104687F
:104ECC004CB1A3681BB10322214620469847102100
:104EDC00204600F0C0F928461421BDE8384000F007
:104EEC00BAB938BD10B103685B681847704710B584
:104EFC0003680446BBB15868FFF7ACF978B923686E
:104F0C005A7C12B95868FFF7ADF923685868FFF757
:104F1C00B1F920680023236028B1FFF7CDFF20688A
:104F2C0008B1FFF7C9FF204610BD000038B50C4B87
:104F3C0003600446D0F8CC0108B1FFF7A8F8D4F808
:104F4C00C45135B12846FFF7D2FF0421284600F0A2
:104F5C0082F9A06808B1FFF7C5FF204638BD00BF35
:104F6C0004580D0038B50E4C0E4B2360002502235F
:104F7C0004F5E4706360A560C4F8C451C4F8C8516A
:104F8C00FFF788F9084BC4F8CC5184F8D051236052
:104F9C002046064A0649BDE8384000F057B900BF24
:104FAC0038E5032038580D0004580D0098E3032011
:104FBC00394F0D0000231A464068FFF74FBA002204
:104FCC0002214068FFF75ABA002211464068FFF7E9
:104FDC004DBA002211464068FFF758BA00231A4612
:104FEC0019464068FFF75ABA00231A46194640681A
:104FFC00FFF75CBA002281F001014068FFF75EBA4E
:10500C0000224068FFF76ABA002211464068FFF799
:10501C006DBA002211464068FFF758BA2DE9F043EB
:10502C00002495B016460D460746FFF741FD214674
:10503C0020220CA8009400F072FA40230C93214615
:10504C006B460CAA3046FFF7ADF80446002844D155
:10505C00024601216868FFF719FA022180462246B0
:10506C006868FFF713FA009E81462146002E34D063
:10507C00002932D17368022B02D00A2B09D02AE006
:10508C00B8F1000F27D0716938460431FFF73DFDA8
:10509C0020E0B9F1000F1ED07469112201A800F0B4
:1050AC003EFA06238DF8143001AD04F108031834D0
:1050BC00186859682A4603C20833A3421546F7D12B
:1050CC0001A906A807ADFFF701FD0FCD3C1D0FC4CC
:1050DC002B6823700121F669C8E70098FFF75AF88E
:1050EC00384615B0BDE8F083024B034A1A60002223
:1050FC005A6070470CE7032038580D0010B5044671
:10510C000F48FFF795FA28B1A4F10B03022B01D835
:10511C00002010BD00F07AF8FFF796FE08B1012CC4
:10512C00F6D9FFF72DFEFFF727FE18B1A4F10903FE
:10513C00012BEDD9232C8CBF0020012010BD00BF0A
:10514C0014E70320232838B504460D460AD8FF2956
:10515C0008D0FFF7D3FF28B129462046BDE83840D8
:10516C00FFF738B838BD38B504460D46FFF73AF8A6
:10517C00FF2810D0062804D84D2323FA00F0C307CB
:10518C0009D42046FFF7BAFF28B129462046BDE8CE
:10519C003840FFF72FB838BD0D2810B504469CBF1A
:1051AC000E34A4B22046FFF7A9FF50B103212046CC
:1051BC00FFF708F8032804D12046BDE81040FFF79C
:1051CC0021B8002010BD000070B50C4C0C4E0D4DDC
:1051DC0000212046FFF718FA20460B4C3246294690
:1051EC0000F034F801212046FFF70EFA324629462A
:1051FC002046BDE8704000F029B800BF14E703203A
:10520C0098E3032005460D0024E7032038B50B4D29
:10521C00296811F001040FD12846FEF73AFF58B166
:10522C0021460748FFF7FEFD2846FEF737FF054AE3
:10523C000549034800F00AF8014838BD38E7032057
:10524C003CE7032098E30320D94D0D000B460146A3
:10525C00184600F04BB9FEF718BF0000184B1A683F
:10526C00D1075CBF01221A60164B1A68D2075CBFCB
:10527C0001221A60144B1A68D0075CBF01221A6015
:10528C00124B1A68D1075CBF01221A60104B1A68C6
:10529C00D2075CBF01221A600E4B1A68D0075CBFA4
:1052AC0001221A600C4B1A68D1075CBF01221A60EC
:1052BC000A4B1A68D2075CBF01221A60704700BF04
:1052CC006CE7032068E7032064E7032060E7032012
:1052DC005CE7032058E7032054E7032050E7032042
:1052EC00244B1A68D0075CBF01221A60224B1A6843
:1052FC00D1075CBF01221A60204B1A68D2075CBF31
:10530C0001221A601E4B1A68D0075CBF01221A607A
:10531C001C4B1A68D1075CBF01221A601A4B1A6821
:10532C00D2075CBF01221A60184B1A68D0075CBF09
:10533C0001221A60164B1A68D1075CBF01221A6051
:10534C00144B1A68D2075CBF01221A60124B1A6800
:10535C00D0075CBF01221A60104B1A68D1075CBFE2
:10536C0001221A600E4B1A68D2075CBF01221A6028
:10537C00704700BF9CE7032098E7032094E70320C5
:10538C0090E703208CE7032088E7032084E70320C1
:10539C0080E703207CE7032078E7032074E70320F1
:1053AC0070E70320244B1A68D0075CBF01221A60F7
:1053BC00224B1A68D1075CBF01221A60204B1A6875
:1053CC00D2075CBF01221A601E4B1A68D0075CBF63
:1053DC0001221A601C4B1A68D1075CBF01221A60AB
:1053EC001A4B1A68D2075CBF01221A60184B1A6854
:1053FC00D0075CBF01221A60164B1A68D1075CBF3C
:10540C0001221A60144B1A68D2075CBF01221A6081
:10541C00124B1A68D0075CBF01221A60104B1A6835
:10542C00D1075CBF01221A600E4B1A68D2075CBF11
:10543C0001221A60704700BFCCE70320C8E70320A5
:10544C00C4E70320C0E70320BCE70320B8E7032030
:10545C00B4E70320B0E70320ACE70320A8E7032060
:10546C00A4E70320A0E70320184B1A68D1075CBF00
:10547C0001221A60164B1A68D2075CBF01221A600F
:10548C00144B1A68D0075CBF01221A60124B1A68C1
:10549C00D1075CBF01221A60104B1A68D2075CBF9F
:1054AC0001221A600E4B1A68D0075CBF01221A60E9
:1054BC000C4B1A68D1075CBF01221A600A4B1A68A0
:1054CC00D2075CBF01221A60704700BFECE70320D3
:1054DC00E8E70320E4E70320E0E70320DCE7032010
:1054EC00D8E70320D4E70320D0E7032010B5054C00
:1054FC0013462CB10A4601460220AFF3008010BDC2
:10550C00204610BD0000000010B5431E0A44914215
:10551C0004D011F8014B03F8014FF8E710BD024419
:10552C000346934202D003F8011BFAE770470000D0
:10553C0038B5124B1C68A36B0546D3B91820FEF77F
:10554C00FDFF43F20E33A06303804AF6CD33438054
:10555C0041F2342383804EF26D63C3804DF6EC63CD
:10556C000381052343810B23838101220023C0E99E
:10557C000423A36B00221D615A6138BD94E3032000
:10558C0010F8012B11F8013B012A28BF9A42F7D0E1
:10559C00D01A7047034613F8012B002AFBD1181AB6
:1055AC00013870471D400D0059400D0085400D001D
:1055BC0089400D00000000006F6E006F6666006190
:1055CC006E616C6F6776616C7565006C6564002547
:1055DC00640000000000000000000000E7450D0022
:1055EC00DD450D00D3450D00C9450D00BD450D0031
:1055FC00B1450D00A5450D009D450D0093450D00D1
:10560C0089450D0029500D0000000000000000002D
:10561C0005460D0007460D00626175640053657206
:10562C0069616C0053657269616C310074797065E5
:10563C0000706172616D00636D6400696400686E76
:10564C0064007374726D0066696C74006C766C0027
:10565C0061646448616E646C65720072656D6F762E
:10566C006548616E646C657200656E756D48616E3F
:10567C00646C657273004A534F4E53747265616D5E
:10568C004C6F6748616E646C6572006170700025C8
:10569C003031307520005D20002C200028293A2064
:1056AC0000205B00636F6465203D20002569006469
:1056BC00657461696C73203D20000D0A006C6E00EE
:1056CC00666E00636F64650064657461696C006E7E
:1056DC006F6E6500747261636500696E666F00774A
:1056EC0061726E006572726F720070616E69630038
:1056FC00616C6C005A00252B3033643A25303275BE
:10570C000025592D256D2D25645425483A254D3AF3
:10571C002553257A0061736374696D650000000080
:10572C000000000000000000574A0D00474A0D0021
:10573C00494A0D000000000000000000314B0D0034
:10574C00814B0D008F4B0D0079470D006D4B0D00FB
:10575C00334B0D00494B0D007B4B0D005F4B0D0087
:10576C002D4B0D0000000000000000009B4C0D00B4
:10577C00914C0D00874C0D003D4C0D007B4C0D00E9
:10578C006F4C0D00634C0D005B4C0D00514C0D002B
:10579C00474C0D0029500D000000000000000000D7
:1057AC00D54C0D00254D0D00334D0D0079470D00E6
:1057BC00E94C0D000B4D0D00F74C0D001F4D0D006D
:1057CC00D74C0D00DB4C0D00000000000000000069
:1057DC00D94D0D00234E0D00FB4D0D00DB4D0D0082
:1057EC00034E0D000B4E0D00134E0D001B4E0D0005
:1057FC000000000000000000BB4E0D00B14E0D007B
:10580C00A74E0D009D4E0D00914E0D00854E0D00C6
:10581C00794E0D00714E0D00674E0D005D4E0D0062
:10582C0029500D000000000000000000C14F0D00C9
:10583C00CB4F0D00D54F0D00DF4F0D00E94F0D0084
:10584C00F54F0D0001500D000D500D0015500D00C1
:10585C001F500D0029500D0000000000000000003A
:10586C00000000000000000000000000000000002C
:10587C00000000000000000000000000000000001C
:10588C00000000000000000000000000000000000C
:10589C0000000000000000000000000000000000FC
:1058AC0000000000000000000000000000000000EC
:1058BC000000000000000000430000009D410D00AE
:1058CC00F1450D0045460D0069470D00B5480D002A
:1058DC00C5480D00FD480D00A54C0D00714F0D0085
:1058EC00F5500D00D5510D0069520D00ED520D0013
:1058FC00B1530D0075540D000000000000000000B5
:04590C000000000097
:10591000130000000600000021570D0000000000E9
:1059200064580D0084580D00A4580D0000000000BC
:10593000000000000000000000000000C4580D003E
:105940000000000000000000000000000000000057
:105950000000000000000000000000000000000047
:105960000000000000000000000000000000000037
:1059700000000000000000000000000034E30320ED
:10598000FFFFFFFF00000102030405060708090AE4
:105990000B0C0D0E0F101112131415161718191ADF
:0859A0001B1C1D1E1F20280026
:0459A80078563412E7
:04000003D000401CCD
:00000001FF
