:02000002D0002C
:1040000000400D00F8590D00000006000D000501EC
:0840100004017E050000000020
:04401800F8550D004A
:10401C0009480A49884208B505D0094A824202D0AB
:10402C00121A01F08DFA0748074A0021121A01F002
:10403C0092FA014808BD00BF1CE3032060590D0033
:10404C008CE303208CE30320F0E7032070B500F031
:10405C00DBFC074C074BE41AA40800251E46A542BE
:10406C0004D056F8253098470135F8E770BD00BFED
:10407C0054590D0018590D0000F078B808B500F02F
:10408C00C3F8BDE8084000F08DBC00F0A3BA00F006
:10409C00A1BA0078B0FA80F0400970470123037090
:1040AC0070471068704700007FB51B4900F0A4FBF7
:1040BC0018B31A491A4E684600F04DFB00F094FEF6
:1040CC0003685B6998470025C4B200F08DFE036855
:1040DC001B699847002813DD0A2C11D033689D42C8
:1040EC000EDA2146684600F07AFB00F07DFE03688C
:1040FC005B6998470135C4B2E7E74FF0FF3008E041
:10410C0000F09EFD009900F0C6FB684600F0DCFA5A
:10411C00012004B070BD00BF0C560D001B570D00E4
:10412C001CE3032038B50E49054600F065FB044638
:10413C0030B10C4B0121188801F049F8012038BD31
:10414C000949284600F058FB30B1064B2146188827
:10415C0001F03DF8204638BD4FF0FF3038BD00BFB0
:10416C000F560D0020E3032012560D0073B50023EB
:10417C006A46184601240825194900930194194EE2
:10418C00ADF8005000F00EFA00F05AFD4FF4165145
:10419C0000F04AFD00F028FE4FF4165100F01EFE10
:1041AC002146308801F002F8214630880E4C01F08F
:1041BC000EF80E4B019304226B460D490D48ADF8D9
:1041CC00005000F0DFF90C4A0C49204600F04CFC82
:1041DC000B4A0C49204600F047FC02B070BD00BFF2
:1041EC00C0D4010020E30320494A0D00AF400D006C
:1041FC0090E3032016560D0022560D0031410D00A0
:10420C0026560D00B5400D007047000010B5074C48
:10421C0000F024F80649204600F09DFA2046054A95
:10422C000549BDE8104001F02DB800BF90E3032014
:10423C001B570D008CE30320D5460D0008B5024B2F
:10424C001B689B68019308BD6802030008B5024B0C
:10425C001B68DB68019308BD6802030008B5024BBC
:10426C001B681B68019308BD2C02030008B5024BA8
:10427C001B689B68019308BD2C02030008B5024B18
:10428C001B68DB68019308BD2C02030008B5024BC8
:10429C001B681B69019308BD2C02030008B5024B77
:1042AC001B68DB69019308BD3002030008B5024BA3
:1042BC001B681B6A019308BD3002030008B5024B52
:1042CC001B685B68019308BD1802030008B5024B1C
:1042DC001B685B69019308BD1802030008B5024B0B
:1042EC001B689B68019308BD4802030008B5024B8C
:1042FC001B681B69019308BD4802030008B5024BFB
:10430C001B685B69019308BD4802030008B5024BAA
:10431C001B681B6B019308BD4802030008B5024BD8
:10432C001B685B6C019308BD4802030008B5024B87
:10433C001B685B69019308BD6402030008B5024B5E
:10434C001B681B68019308BD3C02030008B5024BB7
:10435C001B68DB68019308BD3C02030008B5024BE7
:10436C001B681B69019308BD3C02030008B5024B96
:10437C001B685B69019308BD3C02030008B5024B46
:10438C001B689B69019308BD3C02030008B5024BF6
:10439C001B68DB69019308BD3C02030008B5024BA6
:1043AC001B681B6A019308BD3C02030008B5024B55
:1043BC001B689B6A019308BD3C02030008B5024BC5
:1043CC001B68DB6A019308BD3C02030008B5024B75
:1043DC001B681B6A019308BD2802030008B5024B39
:1043EC001B685B6A019308BD2802030008B5024BE9
:1043FC001B689B6A019308BD2802030008B5024B99
:10440C001B68DB6A019308BD2802030008B5024B48
:10441C001B681B6B019308BD2802030008B5024BF7
:10442C001B685B6B019308BD2802030008B5024BA7
:10443C001B681B6C019308BD2802030008B5024BD6
:10444C001B681B68019308BD4C02030008B5024BA6
:10445C001B685B68019308BD4C02030008B5024B56
:10446C001B681B69019308BD4C02030008B5024B85
:10447C001B685B69019308BD4C02030008B5024B35
:10448C001B689B69019308BD4C02030008B5024BE5
:10449C001B68DB69019308BD4C02030008B5024B95
:1044AC001B681B6A019308BD4C02030008B5024B44
:1044BC001B685B68019308BD2002030008B5034B21
:1044CC001B68D3F88830019308BD0000200203005C
:1044DC0008B5034B1B68D3F89430019308BD00005A
:1044EC002002030008B5024B1B685B68019308BDF2
:1044FC004002030008B5024B1B689B68019308BD82
:10450C004002030008B5024B1B68DB68019308BD31
:10451C004002030008B5024B1B681B69019308BDE0
:10452C004002030008B5024B1B685B69019308BD90
:10453C004002030008B5024B1B689B69019308BD40
:10454C004002030008B5024B1B68DB69019308BDF0
:10455C004002030008B5024B1B681B6A019308BD9F
:10456C004002030008B5024B1B681B6B019308BD8E
:10457C004002030008B5024B1B685B6B019308BD3E
:10458C004002030008B5024B1B681B68019308BD71
:10459C004402030008B5024B1B685B68019308BD1D
:1045AC004402030008B5024B1B689B6B019308BDCA
:1045BC004402030008B5024B1B68DB6B019308BD7A
:1045CC004402030008B5024B1B681B68019308BD2D
:1045DC001C02030008B5024B1B685B68019308BD05
:1045EC001C02030008B5024B1B689B68019308BDB5
:1045FC001C020300002211464068FFF7ABBF0022EB
:10460C0011464068FFF7B6BF00224068FFF7AABF0B
:10461C00002281F001014068FFF794BF00231A4685
:10462C0019464068FFF786BF00231A4619464068B2
:10463C00FFF778BF002211464068FFF76BBF0022DE
:10464C0011464068FFF756BF002202214068FFF771
:10465C0059BF00231A464068FFF744BF024B0322A0
:10466C005A60024A1A607047A0E3032038560D00C6
:10467C00704710B51021044600F009FE204610BD0D
:10468C0070B5084B0360044600250E4640F80C5FDD
:10469C00FFF73CFE30462671FFF700FEA560204672
:1046AC0070BD00BF6C560D000079FFF7FFBD000018
:1046BC00044B00204FF6FF72187058809A80FFF759
:1046CC00F5BE00BFA8E3032010B504460068FFF751
:1046DC0081FF204610BD10B50446006808B1FFF7F5
:1046EC0079FF00232360A360636010BD38B50446D6
:1046FC000D4600680131FFF775FF10B184E8210009
:10470C00012038BD10B50368044613B143688B42D1
:10471C0007D22046FFF7EAFF20B1A3680BB9226845
:10472C001370012010BD70B50E4611460446154697
:10473C00FFF7E8FF18B92046FFF7CDFF09E02A463E
:10474C003146A560206800F0FBFE2268A3680021BA
:10475C00D154204670BD38B5002304460360436035
:10476C00836003730D4639B1084600F037FF2946C4
:10477C0002462046FFF7D7FF204638BD884210B5C9
:10478C000B46044607D0096819B19A68FFF7CBFFAE
:10479C0001E0FFF7A0FF204610BD10B50023044632
:1047AC000360436083600373FFF7E8FF204610BD8E
:1047BC0070B504460E4609B9002070BD6AB1836815
:1047CC00D5182946FFF79EFF0028F5D02068A3686E
:1047DC003146184400F0FAFEA560012070BD07B503
:1047EC0000238DF80410012201A98DF80530FFF784
:1047FC00DFFF03B05DF804FB08B582680B4612B905
:10480C0019B9012008BD11B90368187802E00068D5
:10481C0000F0D2FEB0FA80F0400908BD0248002337
:10482C000360FFF77BBD00BFB0E30320F8B506467D
:10483C000D468F180024BD420CD0336815F8011BAF
:10484C009B6830469847002801DB0444F3E7002CB2
:10485C0008BF04462046F8BD70B505460C46084610
:10486C0049B100F0BBFE2B68024621462846DB68A6
:10487C00BDE87040184770BD03689B68184738B591
:10488C000D210546FFF7F8FF0A2104462846FFF7DD
:10489C00F3FF204438BD38B50546FFF7DDFF04466D
:1048AC002846FFF7ECFF204438BD30B58BB00B46E3
:1048BC0000218DF82410012A98BF0A220DF123043F
:1048CC00B3FBF2F505FB123303F0FF03092B94BF86
:1048DC0030333733DBB2214604F801392B46002D37
:1048EC00EED1FFF7B9FF0BB030BD10B42AB9036895
:1048FC005DF8044B9B68C9B21847D2B25DF8044B03
:10490C00FFF7D3BFFFF7F1BF014B024A1A607047A4
:10491C00B4E30320E7560D00024B1A68024B1A60F1
:10492C00704700BF24E30320B8E3032010B583686D
:10493C00044613B1032201469847204610BD10B51A
:10494C000446FFF7F3FF204610BD00000348044A5D
:10495C0004490023836000F095BC00BFBCE3032036
:10496C008CE303204B490D0008B50C4B33B100F020
:10497C0067F903681B699847002809DC084B63B189
:10498C0000F032FA03681B699847002803DC08BD65
:10499C00AFF30080F2E7AFF3008008BD0000000029
:1049AC000000000008B5FFF7DFFFFFF78FFC014B9D
:1049BC00186008BD34E7032007B5002300931A469E
:1049CC006FF07701FFF784FD03B05DF804FB000086
:1049DC0007B543880A2B08D0502B09D1094B1B680B
:1049EC003BB103B05DF804EB1847FFF7E5FF06E0B9
:1049FC00002300931A466FF07701FFF769FD03B0AF
:104A0C005DF804FBCCE3032010B5FFF757FC04461C
:104A1C0000F0AAFD074B13B12046AFF30080002134
:104A2C000448FFF7C7FD00210348BDE81040FFF71D
:104A3C0045BD00BF00000000DD490D0010B588B079
:104A4C0004466846FFF787FE694604A8FFF7A5FEF3
:104A5C0004A8A047044604A8FFF736FE6846FFF7F3
:104A6C0033FE204608B010BDF0B5102485B00746C3
:104A7C000E46154600212246684600F06CFD0022C9
:104A8C0069461046ADF80040029703960195FFF772
:104A9C0081FD05B0F0BD704710B51821044600F03B
:104AAC00F6FB204610BDF0B5037D062B8DB00E46EF
:104ABC0000F104074FF0000402D000F1080518E0E3
:104ACC000CAD394605F8304D2F232A460A20FFF746
:104ADC002DFC284600F082FD33680246DB6829462F
:104AEC00304698470FE024B12E213046FFF7C4FE24
:104AFC00044415F8011D0A223046FFF703FFBD429E
:104B0C000444F0D120460DB0F0BD000010B5054BAB
:104B1C000446112240F8043B002100F01CFD204605
:104B2C0010BD00BF84570D000346074A10B543F86B
:104B3C00042B01F1100251F8044B43F8044B914241
:104B4C00F9D10A781A7010BD84570D0010B59DF874
:104B5C00084044EA032343EA024242EA0161042387
:104B6C004160037510BD37B50D788B784A78C978DC
:104B7C0000912946FFF7EAFF03B030BD417470473E
:104B8C00704708B50021007CFFF778FC30EA200064
:104B9C0028BF4FF0FF3008BD08B50121007CFFF79E
:104BAC006DFC30EA200028BF4FF0FF3008BD08B57F
:104BBC00007CFFF75BFC20EAE07008BD08B5007CC8
:104BCC00FFF74CFC20EAE07008BD007CFFF766BCE8
:104BDC0010B51421044600F05AFB204610BD38B520
:104BEC000446007C0D46FFF741FC002801DC607C8C
:104BFC0028B12946207CFFF749FC20EAE07038BD3B
:104C0C0010B50446002363604FF47A73A360054B20
:104C1C00236001230846217463741146FFF70EFCD0
:104C2C00204610BD98570D000022007CFFF70EBCEB
:104C3C0010B514220446002100F08DFC204610BD56
:104C4C0030B50E4D87B001A8FFF7F2FF296811F0BF
:104C5C00010410D12846FFF71CFA60B101AA2146C5
:104C6C000748FFF7CDFF2846FFF718FA054A064913
:104C7C00034800F007FB024807B030BDD0E3032027
:104C8C00D4E303208CE303208D4B0D00002211464E
:104C9C004068FFF73FBC002211464068FFF75ABC42
:104CAC00002211464068FFF765BC00224068FFF700
:104CBC0059BC002281F001014068FFF743BC00237E
:104CCC001A4619464068FFF735BC00231A461946A8
:104CDC004068FFF727BC002211464068FFF70ABC6A
:104CEC00002202214068FFF70DBC00231A464068E1
:104CFC00FFF7F8BB38B5084C28252A46002120467A
:104D0C0000F029FC4FF0FF336360044B2580042234
:104D1C005A60034A1A6038BDF0E30320E8E303202D
:104D2C00C8570D0070474174704708B5007CFFF7F9
:104D3C003DFB20EAE07008BD08B5007CFFF70EFBD8
:104D4C0020EAE07008BD08B5007CFFF717FB30EADD
:104D5C00200028BF4FF0FF3008BD08B5007CFFF7DE
:104D6C0005FB30EA200028BF4FF0FF3008BD007C67
:104D7C00FFF70CBB10B51421044600F088FA20464E
:104D8C0010BD70B5457C04460E4625B9007CFFF776
:104D9C000DFB002805DD3146207CBDE87040FFF797
:104DAC00D5BA284670BD000010B504460846114619
:104DBC00002262604FF47A72A260054A22600122DE
:104DCC00207462741A46FFF7B9FA204610BD00BF72
:104DDC00FC570D000023007CFFF7F0BA0022FFF710
:104DEC00F9BF007CFFF7DABA38B50C4D296811F021
:104DFC00010411D12846FFF74CF968B1084A094B58
:104E0C0009482146FFF7D0FF2846FFF747F9074A24
:104E1C000749054800F036FA034838BDB0E40320D2
:104E2C00B4E403202CE4032018E403208CE30320D7
:104E3C00314D0D007047F8B5064615460C468F18D7
:104E4C00BC4206D0336814F8011B9B683046984767
:104E5C00F6E72846F8BD0022007CFFF7B7BA002120
:104E6C00007CFFF7BBBA0021007CFFF7BFBA002122
:104E7C00007CFFF7C3BA0021007CFFF7C7BA10B55E
:104E8C001421044600F003FA204610BD10B5044668
:104E9C004FF47A730846A3600021044B20746160C0
:104EAC002360FFF7C3FA204610BD00BF2C580D003D
:104EBC000021007CFFF7B2BA002211464068FFF7D0
:104ECC0049BB002211464068FFF754BB00224068E2
:104EDC00FFF748BB002281F001014068FFF732BBAD
:104EEC0000231A4601214068FFF724BB00231A4611
:104EFC0019464068FFF716BB002211464068FFF7C1
:104F0C0009BB002211464068FFF7F4BA00220221C7
:104F1C004068FFF7F7BA00231A464068FFF7E2BA79
:104F2C0038B5054688B104684CB1A3681BB103229F
:104F3C002146204698471021204600F0A8F9284623
:104F4C001421BDE8384000F0A2B938BD10B1036897
:104F5C005B681847704710B503680446BBB15868C6
:104F6C00FFF7BCF978B923685A7C12B95868FFF777
:104F7C00BDF923685868FFF7C1F920680023236046
:104F8C0028B1FFF7CDFF206808B1FFF7C9FF204615
:104F9C0010BD000038B50C4B03600446D0F8CC01B2
:104FAC0008B1FFF774F8D4F8C45135B12846FFF7AF
:104FBC00D2FF0421284600F06AF9A06808B1FFF777
:104FCC00C5FF204638BD00BF54580D0038B50E4CF7
:104FDC000E4B23600025022304F5E4706360A5608A
:104FEC00C4F8C451C4F8C851FFF798F9084BC4F879
:104FFC00CC5184F8D05123602046064A0649BDE8BE
:10500C00384000F03FB900BF38E5032088580D0048
:10501C0054580D008CE30320A14F0D0000231A46B9
:10502C004068FFF75FBA002202214068FFF76ABAB6
:10503C00002211464068FFF75DBA00221146406815
:10504C00FFF768BA00231A4619464068FFF76ABA98
:10505C0000231A4619464068FFF76CBA002281F00B
:10506C0001014068FFF76EBA00224068FFF77ABA78
:10507C00002211464068FFF77DBA002211464068B5
:10508C00FFF768BA2DE9F043002495B016460D469B
:10509C000746FFF73BFD214620220CA8009400F0A8
:1050AC005AFA40230C9321466B460CAA3046FFF764
:1050BC00CDF80446002844D1024601216868FFF768
:1050CC0029FA0221804622466868FFF723FA009EDF
:1050DC0081462146002E34D0002932D17368022B30
:1050EC0002D00A2B09D02AE0B8F1000F27D0716941
:1050FC0038460431FFF737FD20E0B9F1000F1ED020
:10510C007469112201A800F026FA06238DF81430D8
:10511C0001AD04F108031834186859682A4603C213
:10512C000833A3421546F7D101A906A807ADFFF72E
:10513C00FBFC0FCD3C1D0FC42B6823700121F669BD
:10514C00C8E70098FFF77AF8384615B0BDE8F08349
:10515C00024B034A1A6000225A6070470CE7032086
:10516C0088580D0010B504460F48FFF79DFA28B17A
:10517C00A4F10B03022B01D8002010BD00F062F843
:10518C00FFF796FE08B1012CF6D9FFF72DFEFFF7BD
:10519C0028FE18B1A4F10903012BEDD9232C8CBFE7
:1051AC000020012010BD00BF14E70320232838B5D0
:1051BC0004460D460AD8FF2908D0FFF7D3FF28B1C3
:1051CC0029462046BDE83840FFF750B838BD38B501
:1051DC0004460D46FFF752F8FF2810D0062804D8D5
:1051EC004D2323FA00F0C30709D42046FFF7BAFF7A
:1051FC0028B129462046BDE83840FFF747B838BDEE
:10520C0070B50C4C0C4E0D4D00212046FFF738FAB2
:10521C0020460B4C3246294600F034F8012120463A
:10522C00FFF72EFA324629462046BDE8704000F0C2
:10523C0029B800BF14E703208CE303207D460D0042
:10524C0024E7032038B50B4D296811F001040FD168
:10525C002846FEF71EFF58B121460748FFF716FEF9
:10526C002846FEF71BFF054A0549034800F00AF8DB
:10527C00014838BD38E703203CE703208CE30320CA
:10528C00414E0D000B460146184600F04BB9FEF797
:10529C00FCBE0000184B1A68D1075CBF01221A60D3
:1052AC00164B1A68D2075CBF01221A60144B1A689D
:1052BC00D0075CBF01221A60124B1A68D1075CBF81
:1052CC0001221A60104B1A68D2075CBF01221A60C7
:1052DC000E4B1A68D0075CBF01221A600C4B1A687F
:1052EC00D1075CBF01221A600A4B1A68D2075CBF57
:1052FC0001221A60704700BF6CE7032068E70320A7
:10530C0064E7032060E703205CE7032058E70320F1
:10531C0054E7032050E70320244B1A68D0075CBFE6
:10532C0001221A60224B1A68D1075CBF01221A6055
:10533C00204B1A68D2075CBF01221A601E4B1A68F8
:10534C00D0075CBF01221A601C4B1A68D1075CBFE6
:10535C0001221A601A4B1A68D2075CBF01221A602C
:10536C00184B1A68D0075CBF01221A60164B1A68DA
:10537C00D1075CBF01221A60144B1A68D2075CBFBC
:10538C0001221A60124B1A68D0075CBF01221A6006
:10539C00104B1A68D1075CBF01221A600E4B1A68B9
:1053AC00D2075CBF01221A60704700BF9CE7032044
:1053BC0098E7032094E7032090E703208CE7032071
:1053CC0088E7032084E7032080E703207CE70320A1
:1053DC0078E7032074E7032070E70320244B1A6856
:1053EC00D0075CBF01221A60224B1A68D1075CBF40
:1053FC0001221A60204B1A68D2075CBF01221A6086
:10540C001E4B1A68D0075CBF01221A601C4B1A682D
:10541C00D1075CBF01221A601A4B1A68D2075CBF15
:10542C0001221A60184B1A68D0075CBF01221A605F
:10543C00164B1A68D1075CBF01221A60144B1A680C
:10544C00D2075CBF01221A60124B1A68D0075CBFEE
:10545C0001221A60104B1A68D1075CBF01221A6036
:10546C000E4B1A68D2075CBF01221A60704700BF4E
:10547C00CCE70320C8E70320C4E70320C0E70320E0
:10548C00BCE70320B8E70320B4E70320B0E7032010
:10549C00ACE70320A8E70320A4E70320A0E7032040
:1054AC00184B1A68D1075CBF01221A60164B1A6898
:1054BC00D2075CBF01221A60144B1A68D0075CBF7C
:1054CC0001221A60124B1A68D1075CBF01221A60C4
:1054DC00104B1A68D2075CBF01221A600E4B1A6877
:1054EC00D0075CBF01221A600C4B1A68D1075CBF55
:1054FC0001221A600A4B1A68D2075CBF01221A609B
:10550C00704700BFECE70320E8E70320E4E7032043
:10551C00E0E70320DCE70320D8E70320D4E70320EF
:10552C00D0E7032010B5054C13462CB10A460146B2
:10553C000220AFF3008010BD204610BD000000001B
:10554C0010B5431E0A44914204D011F8014B03F8E4
:10555C00014FF8E710BD02440346934202D003F812
:10556C00011BFAE77047000038B5124B1C68A36B9F
:10557C000546D3B91820FFF725F843F20E33A06384
:10558C0003804AF6CD33438041F2342383804EF2BC
:10559C006D63C3804DF6EC630381052343810B23BC
:1055AC00838101220023C0E90423A36B00221D6127
:1055BC005A6138BD88E3032010F8012B11F8013B28
:1055CC00012A28BF9A42F7D0D01A7047034611F827
:1055DC00012B03F8012B002AF9D17047034613F86D
:1055EC00012B002AFBD1181A013870471D400D0001
:1055FC0059400D0085400D0089400D000000000051
:10560C00676F006F6E006F66660072657475726E00
:10561C0056616C7565006C656400726574726965C1
:10562C007665000000000000000000005F460D00E1
:10563C0055460D004B460D0041460D0035460D00FC
:10564C0029460D001D460D0015460D000B460D009C
:10565C0001460D0091500D000000000000000000FC
:10566C007D460D007F460D006261756400536572C6
:10567C0069616C0053657269616C31007479706595
:10568C0000706172616D00636D6400696400686E26
:10569C0064007374726D0066696C74006C766C00D7
:1056AC0061646448616E646C65720072656D6F76DE
:1056BC006548616E646C657200656E756D48616EEF
:1056CC00646C657273004A534F4E53747265616D0E
:1056DC004C6F6748616E646C657200617070002578
:1056EC003031307520005D20002564002C2000280E
:1056FC00293A2000205B00636F6465203D20002563
:10570C00690064657461696C73203D20000D0A00AA
:10571C006C6E00666E00636F64650064657461692D
:10572C006C006E6F6E6500747261636500696E6605
:10573C006F007761726E006572726F720070616ECD
:10574C00696300616C6C005A00252B3033643A2578
:10575C003032750025592D256D2D25645425483A78
:10576C00254D3A2553257A0061736374696D650084
:10577C000000000000000000B34A0D00A34A0D0019
:10578C00A54A0D0000000000000000008D4B0D002C
:10579C00DD4B0D00EB4B0D0039480D00C94B0D00D6
:1057AC008F4B0D00A54B0D00D74B0D00BB4B0D00C7
:1057BC00894B0D000000000000000000F74C0D00AC
:1057CC00ED4C0D00E34C0D00994C0D00D74C0D0029
:1057DC00CB4C0D00BF4C0D00B74C0D00AD4C0D006B
:1057EC00A34C0D0091500D000000000000000000C3
:1057FC00314D0D00814D0D008F4D0D0039480D00C0
:10580C00454D0D00674D0D00534D0D007B4D0D00AA
:10581C00334D0D00374D0D0000000000000000005E
:10582C00414E0D008B4E0D00634E0D00434E0D008E
:10583C006B4E0D00734E0D007B4E0D00834E0D0014
:10584C000000000000000000234F0D00194F0D0058
:10585C000F4F0D00054F0D00F94E0D00ED4E0D00D4
:10586C00E14E0D00D94E0D00CF4E0D00C54E0D0072
:10587C0091500D00000000000000000029500D00A8
:10588C0033500D003D500D0047500D0051500D0090
:10589C005D500D0069500D0075500D007D500D00D0
:1058AC0087500D0091500D0000000000000000001A
:1058BC0000000000000000000000000000000000DC
:1058CC0000000000000000000000000000000000CC
:1058DC0000000000000000000000000000000000BC
:1058EC0000000000000000000000000000000000AC
:1058FC00000000000000000000000000000000009C
:10590C0000000000000000004300000019420D00E0
:10591C0069460D00BD460D0029480D0015490D00C6
:10592C0025490D0059490D00014D0D00D94F0D00B1
:10593C005D510D000D520D00A1520D0025530D00AF
:10594C00E9530D00AD540D000000000000000000F4
:04595C000000000047
:10596000400000000600000074570D000000000019
:10597000B4580D00D4580D00F4580D00000000007C
:1059800000000000000000000000000014590D009D
:105990000000000000000000000000000000000007
:1059A00000000000000000000000000000000000F7
:1059B00000000000000000000000000000000000E7
:1059C00000000000000000000000000028E30320A9
:1059D000FFFFFFFF00000102030405060708090A94
:1059E0000B0C0D0E0F101112131415161718191A8F
:0859F0001B1C1D1E1F202800D6
:0459F8007856341297
:04000003D000401CCD
:00000001FF
